{
  "_format": "hh-sol-artifact-1",
  "contractName": "FundMe",
  "sourceName": "contracts/FundMe.sol",
  "abi": [
    {
      "inputs": [
        {
          "internalType": "address",
          "name": "priceFeedAddress",
          "type": "address"
        }
      ],
      "stateMutability": "nonpayable",
      "type": "constructor"
    },
    {
      "inputs": [],
      "name": "NotOwner",
      "type": "error"
    },
    {
      "stateMutability": "payable",
      "type": "fallback"
    },
    {
      "inputs": [],
      "name": "MINIMUMUSD",
      "outputs": [
        {
          "internalType": "uint256",
          "name": "",
          "type": "uint256"
        }
      ],
      "stateMutability": "view",
      "type": "function"
    },
    {
      "inputs": [
        {
          "internalType": "address",
          "name": "",
          "type": "address"
        }
      ],
      "name": "addressAndFundsent",
      "outputs": [
        {
          "internalType": "uint256",
          "name": "",
          "type": "uint256"
        }
      ],
      "stateMutability": "view",
      "type": "function"
    },
    {
      "inputs": [],
      "name": "fund",
      "outputs": [],
      "stateMutability": "payable",
      "type": "function"
    },
    {
      "inputs": [],
      "name": "owner",
      "outputs": [
        {
          "internalType": "address",
          "name": "",
          "type": "address"
        }
      ],
      "stateMutability": "view",
      "type": "function"
    },
    {
      "inputs": [],
      "name": "priceFeed",
      "outputs": [
        {
          "internalType": "contract AggregatorV3Interface",
          "name": "",
          "type": "address"
        }
      ],
      "stateMutability": "view",
      "type": "function"
    },
    {
      "inputs": [],
      "name": "withdraw",
      "outputs": [],
      "stateMutability": "nonpayable",
      "type": "function"
    },
    {
      "stateMutability": "payable",
      "type": "receive"
    }
  ],
  "bytecode": "0x60a060405234801561001057600080fd5b50604051610ec8380380610ec883398181016040528101906100329190610113565b3373ffffffffffffffffffffffffffffffffffffffff1660808173ffffffffffffffffffffffffffffffffffffffff1660601b8152505080600260006101000a81548173ffffffffffffffffffffffffffffffffffffffff021916908373ffffffffffffffffffffffffffffffffffffffff16021790555050610140565b600080fd5b600073ffffffffffffffffffffffffffffffffffffffff82169050919050565b60006100e0826100b5565b9050919050565b6100f0816100d5565b81146100fb57600080fd5b50565b60008151905061010d816100e7565b92915050565b600060208284031215610129576101286100b0565b5b6000610137848285016100fe565b91505092915050565b60805160601c610d63610165600039600081816102aa01526105050152610d636000f3fe6080604052600436106100595760003560e01c80633c4c58cc146100725780633ccfd60b146100af578063741bef1a146100c65780637d451480146100f15780638da5cb5b1461011c578063b60d42881461014757610068565b3661006857610066610151565b005b610070610151565b005b34801561007e57600080fd5b506100996004803603810190610094919061070d565b610279565b6040516100a69190610753565b60405180910390f35b3480156100bb57600080fd5b506100c4610291565b005b3480156100d257600080fd5b506100db6104d1565b6040516100e891906107cd565b60405180910390f35b3480156100fd57600080fd5b506101066104f7565b6040516101139190610753565b60405180910390f35b34801561012857600080fd5b50610131610503565b60405161013e91906107f7565b60405180910390f35b61014f610151565b005b671bc16d674ec8000061018f600260009054906101000a900473ffffffffffffffffffffffffffffffffffffffff163461052790919063ffffffff16565b10156101d0576040517f08c379a00000000000000000000000000000000000000000000000000000000081526004016101c790610895565b60405180910390fd5b6000339080600181540180825580915050600190039060005260206000200160009091909190916101000a81548173ffffffffffffffffffffffffffffffffffffffff021916908373ffffffffffffffffffffffffffffffffffffffff16021790555034600160003373ffffffffffffffffffffffffffffffffffffffff1673ffffffffffffffffffffffffffffffffffffffff16815260200190815260200160002081905550565b60016020528060005260406000206000915090505481565b3373ffffffffffffffffffffffffffffffffffffffff167f000000000000000000000000000000000000000000000000000000000000000073ffffffffffffffffffffffffffffffffffffffff161461031f576040517f08c379a000000000000000000000000000000000000000000000000000000000815260040161031690610901565b60405180910390fd5b60005b6000805490508110156103ca57600080828154811061034457610343610921565b5b9060005260206000200160009054906101000a900473ffffffffffffffffffffffffffffffffffffffff1690506000600160008373ffffffffffffffffffffffffffffffffffffffff1673ffffffffffffffffffffffffffffffffffffffff168152602001908152602001600020819055505080806103c29061097f565b915050610322565b50600067ffffffffffffffff8111156103e6576103e56109c8565b5b6040519080825280602002602001820160405280156104145781602001602082028036833780820191505090505b506000908051906020019061042a929190610603565b5060003373ffffffffffffffffffffffffffffffffffffffff164760405161045190610a28565b60006040518083038185875af1925050503d806000811461048e576040519150601f19603f3d011682016040523d82523d6000602084013e610493565b606091505b50509050806104ce576040517f30cd747100000000000000000000000000000000000000000000000000000000815260040160405180910390fd5b50565b600260009054906101000a900473ffffffffffffffffffffffffffffffffffffffff1681565b671bc16d674ec8000081565b7f000000000000000000000000000000000000000000000000000000000000000081565b60008061053383610563565b90506000670de0b6b3a7640000858361054c9190610a3d565b6105569190610ac6565b9050809250505092915050565b6000808273ffffffffffffffffffffffffffffffffffffffff1663feaf968c6040518163ffffffff1660e01b815260040160a06040518083038186803b1580156105ac57600080fd5b505afa1580156105c0573d6000803e3d6000fd5b505050506040513d601f19601f820116820180604052508101906105e49190610b9b565b5050509150506402540be400816105fb9190610c16565b915050919050565b82805482825590600052602060002090810192821561067c579160200282015b8281111561067b5782518260006101000a81548173ffffffffffffffffffffffffffffffffffffffff021916908373ffffffffffffffffffffffffffffffffffffffff16021790555091602001919060010190610623565b5b509050610689919061068d565b5090565b5b808211156106a657600081600090555060010161068e565b5090565b600080fd5b600073ffffffffffffffffffffffffffffffffffffffff82169050919050565b60006106da826106af565b9050919050565b6106ea816106cf565b81146106f557600080fd5b50565b600081359050610707816106e1565b92915050565b600060208284031215610723576107226106aa565b5b6000610731848285016106f8565b91505092915050565b6000819050919050565b61074d8161073a565b82525050565b60006020820190506107686000830184610744565b92915050565b6000819050919050565b600061079361078e610789846106af565b61076e565b6106af565b9050919050565b60006107a582610778565b9050919050565b60006107b78261079a565b9050919050565b6107c7816107ac565b82525050565b60006020820190506107e260008301846107be565b92915050565b6107f1816106cf565b82525050565b600060208201905061080c60008301846107e8565b92915050565b600082825260208201905092915050565b7f446964206e6f742073656e6420656e6f756768204574682c206e6f772072657660008201527f65727465642e0000000000000000000000000000000000000000000000000000602082015250565b600061087f602683610812565b915061088a82610823565b604082019050919050565b600060208201905081810360008301526108ae81610872565b9050919050565b7f53656e646572206973206e6f74206f776e65722e200000000000000000000000600082015250565b60006108eb601583610812565b91506108f6826108b5565b602082019050919050565b6000602082019050818103600083015261091a816108de565b9050919050565b7f4e487b7100000000000000000000000000000000000000000000000000000000600052603260045260246000fd5b7f4e487b7100000000000000000000000000000000000000000000000000000000600052601160045260246000fd5b600061098a8261073a565b91507fffffffffffffffffffffffffffffffffffffffffffffffffffffffffffffffff8214156109bd576109bc610950565b5b600182019050919050565b7f4e487b7100000000000000000000000000000000000000000000000000000000600052604160045260246000fd5b600081905092915050565b50565b6000610a126000836109f7565b9150610a1d82610a02565b600082019050919050565b6000610a3382610a05565b9150819050919050565b6000610a488261073a565b9150610a538361073a565b9250817fffffffffffffffffffffffffffffffffffffffffffffffffffffffffffffffff0483118215151615610a8c57610a8b610950565b5b828202905092915050565b7f4e487b7100000000000000000000000000000000000000000000000000000000600052601260045260246000fd5b6000610ad18261073a565b9150610adc8361073a565b925082610aec57610aeb610a97565b5b828204905092915050565b600069ffffffffffffffffffff82169050919050565b610b1681610af7565b8114610b2157600080fd5b50565b600081519050610b3381610b0d565b92915050565b6000819050919050565b610b4c81610b39565b8114610b5757600080fd5b50565b600081519050610b6981610b43565b92915050565b610b788161073a565b8114610b8357600080fd5b50565b600081519050610b9581610b6f565b92915050565b600080600080600060a08688031215610bb757610bb66106aa565b5b6000610bc588828901610b24565b9550506020610bd688828901610b5a565b9450506040610be788828901610b86565b9350506060610bf888828901610b86565b9250506080610c0988828901610b24565b9150509295509295909350565b6000610c2182610b39565b9150610c2c83610b39565b9250827f7fffffffffffffffffffffffffffffffffffffffffffffffffffffffffffffff0482116000841360008413161615610c6b57610c6a610950565b5b817f80000000000000000000000000000000000000000000000000000000000000000583126000841260008413161615610ca857610ca7610950565b5b827f80000000000000000000000000000000000000000000000000000000000000000582126000841360008412161615610ce557610ce4610950565b5b827f7fffffffffffffffffffffffffffffffffffffffffffffffffffffffffffffff0582126000841260008412161615610d2257610d21610950565b5b82820290509291505056fea26469706673582212201bd0b2f4cadce15d25944219d45600499da4d064445e39e1b598130a4bacde1964736f6c63430008080033",
  "linkReferences": {},
  "deployedLinkReferences": {}
}