{
  "_format": "hh-sol-artifact-1",
  "contractName": "FundMe2",
  "sourceName": "contracts/FundMe.sol",
  "abi": [
    {
      "inputs": [],
      "stateMutability": "nonpayable",
      "type": "constructor"
    },
    {
      "inputs": [],
      "name": "NotOwner",
      "type": "error"
    },
    {
      "stateMutability": "payable",
      "type": "fallback"
    },
    {
      "inputs": [],
      "name": "MINIMUMUSD",
      "outputs": [
        {
          "internalType": "uint256",
          "name": "",
          "type": "uint256"
        }
      ],
      "stateMutability": "view",
      "type": "function"
    },
    {
      "inputs": [
        {
          "internalType": "address",
          "name": "",
          "type": "address"
        }
      ],
      "name": "addressAndFundsent",
      "outputs": [
        {
          "internalType": "uint256",
          "name": "",
          "type": "uint256"
        }
      ],
      "stateMutability": "view",
      "type": "function"
    },
    {
      "inputs": [],
      "name": "fund",
      "outputs": [],
      "stateMutability": "payable",
      "type": "function"
    },
    {
      "inputs": [],
      "name": "owner",
      "outputs": [
        {
          "internalType": "address",
          "name": "",
          "type": "address"
        }
      ],
      "stateMutability": "view",
      "type": "function"
    },
    {
      "inputs": [],
      "name": "withdraw",
      "outputs": [],
      "stateMutability": "nonpayable",
      "type": "function"
    },
    {
      "stateMutability": "payable",
      "type": "receive"
    }
  ],
  "bytecode": "0x60a060405234801561001057600080fd5b503373ffffffffffffffffffffffffffffffffffffffff1660808173ffffffffffffffffffffffffffffffffffffffff1660601b8152505060805160601c610c7761006d60003960008181610248015261047d0152610c776000f3fe60806040526004361061004e5760003560e01c80633c4c58cc146100675780633ccfd60b146100a45780637d451480146100bb5780638da5cb5b146100e6578063b60d4288146101115761005d565b3661005d5761005b61011b565b005b61006561011b565b005b34801561007357600080fd5b5061008e6004803603810190610089919061069b565b610217565b60405161009b91906106e1565b60405180910390f35b3480156100b057600080fd5b506100b961022f565b005b3480156100c757600080fd5b506100d061046f565b6040516100dd91906106e1565b60405180910390f35b3480156100f257600080fd5b506100fb61047b565b604051610108919061070b565b60405180910390f35b61011961011b565b005b671bc16d674ec8000061012d3461049f565b101561016e576040517f08c379a0000000000000000000000000000000000000000000000000000000008152600401610165906107a9565b60405180910390fd5b6000339080600181540180825580915050600190039060005260206000200160009091909190916101000a81548173ffffffffffffffffffffffffffffffffffffffff021916908373ffffffffffffffffffffffffffffffffffffffff16021790555034600160003373ffffffffffffffffffffffffffffffffffffffff1673ffffffffffffffffffffffffffffffffffffffff16815260200190815260200160002081905550565b60016020528060005260406000206000915090505481565b3373ffffffffffffffffffffffffffffffffffffffff167f000000000000000000000000000000000000000000000000000000000000000073ffffffffffffffffffffffffffffffffffffffff16146102bd576040517f08c379a00000000000000000000000000000000000000000000000000000000081526004016102b490610815565b60405180910390fd5b60005b6000805490508110156103685760008082815481106102e2576102e1610835565b5b9060005260206000200160009054906101000a900473ffffffffffffffffffffffffffffffffffffffff1690506000600160008373ffffffffffffffffffffffffffffffffffffffff1673ffffffffffffffffffffffffffffffffffffffff1681526020019081526020016000208190555050808061036090610893565b9150506102c0565b50600067ffffffffffffffff811115610384576103836108dc565b5b6040519080825280602002602001820160405280156103b25781602001602082028036833780820191505090505b50600090805190602001906103c8929190610591565b5060003373ffffffffffffffffffffffffffffffffffffffff16476040516103ef9061093c565b60006040518083038185875af1925050503d806000811461042c576040519150601f19603f3d011682016040523d82523d6000602084013e610431565b606091505b505090508061046c576040517f30cd747100000000000000000000000000000000000000000000000000000000815260040160405180910390fd5b50565b671bc16d674ec8000081565b7f000000000000000000000000000000000000000000000000000000000000000081565b6000806104aa6104d9565b90506000670de0b6b3a764000084836104c39190610951565b6104cd91906109da565b90508092505050919050565b60008073694aa1769357215de4fac081bf1f309adc325306905060008173ffffffffffffffffffffffffffffffffffffffff1663feaf968c6040518163ffffffff1660e01b815260040160a06040518083038186803b15801561053b57600080fd5b505afa15801561054f573d6000803e3d6000fd5b505050506040513d601f19601f820116820180604052508101906105739190610aaf565b5050509150506402540be4008161058a9190610b2a565b9250505090565b82805482825590600052602060002090810192821561060a579160200282015b828111156106095782518260006101000a81548173ffffffffffffffffffffffffffffffffffffffff021916908373ffffffffffffffffffffffffffffffffffffffff160217905550916020019190600101906105b1565b5b509050610617919061061b565b5090565b5b8082111561063457600081600090555060010161061c565b5090565b600080fd5b600073ffffffffffffffffffffffffffffffffffffffff82169050919050565b60006106688261063d565b9050919050565b6106788161065d565b811461068357600080fd5b50565b6000813590506106958161066f565b92915050565b6000602082840312156106b1576106b0610638565b5b60006106bf84828501610686565b91505092915050565b6000819050919050565b6106db816106c8565b82525050565b60006020820190506106f660008301846106d2565b92915050565b6107058161065d565b82525050565b600060208201905061072060008301846106fc565b92915050565b600082825260208201905092915050565b7f446964206e6f742073656e6420656e6f756768204574682c206e6f772072657660008201527f65727465642e0000000000000000000000000000000000000000000000000000602082015250565b6000610793602683610726565b915061079e82610737565b604082019050919050565b600060208201905081810360008301526107c281610786565b9050919050565b7f53656e646572206973206e6f74206f776e65722e200000000000000000000000600082015250565b60006107ff601583610726565b915061080a826107c9565b602082019050919050565b6000602082019050818103600083015261082e816107f2565b9050919050565b7f4e487b7100000000000000000000000000000000000000000000000000000000600052603260045260246000fd5b7f4e487b7100000000000000000000000000000000000000000000000000000000600052601160045260246000fd5b600061089e826106c8565b91507fffffffffffffffffffffffffffffffffffffffffffffffffffffffffffffffff8214156108d1576108d0610864565b5b600182019050919050565b7f4e487b7100000000000000000000000000000000000000000000000000000000600052604160045260246000fd5b600081905092915050565b50565b600061092660008361090b565b915061093182610916565b600082019050919050565b600061094782610919565b9150819050919050565b600061095c826106c8565b9150610967836106c8565b9250817fffffffffffffffffffffffffffffffffffffffffffffffffffffffffffffffff04831182151516156109a05761099f610864565b5b828202905092915050565b7f4e487b7100000000000000000000000000000000000000000000000000000000600052601260045260246000fd5b60006109e5826106c8565b91506109f0836106c8565b925082610a00576109ff6109ab565b5b828204905092915050565b600069ffffffffffffffffffff82169050919050565b610a2a81610a0b565b8114610a3557600080fd5b50565b600081519050610a4781610a21565b92915050565b6000819050919050565b610a6081610a4d565b8114610a6b57600080fd5b50565b600081519050610a7d81610a57565b92915050565b610a8c816106c8565b8114610a9757600080fd5b50565b600081519050610aa981610a83565b92915050565b600080600080600060a08688031215610acb57610aca610638565b5b6000610ad988828901610a38565b9550506020610aea88828901610a6e565b9450506040610afb88828901610a9a565b9350506060610b0c88828901610a9a565b9250506080610b1d88828901610a38565b9150509295509295909350565b6000610b3582610a4d565b9150610b4083610a4d565b9250827f7fffffffffffffffffffffffffffffffffffffffffffffffffffffffffffffff0482116000841360008413161615610b7f57610b7e610864565b5b817f80000000000000000000000000000000000000000000000000000000000000000583126000841260008413161615610bbc57610bbb610864565b5b827f80000000000000000000000000000000000000000000000000000000000000000582126000841360008412161615610bf957610bf8610864565b5b827f7fffffffffffffffffffffffffffffffffffffffffffffffffffffffffffffff0582126000841260008412161615610c3657610c35610864565b5b82820290509291505056fea264697066735822122053109e48423cb3a920c68d91d4613447642a4fc66e8f6af9430cdafecaf5f92164736f6c63430008080033",
  "linkReferences": {},
  "deployedLinkReferences": {}
}