{
	"data": {
		"bytecode": {
			"linkReferences": {},
			"object": "6080604052348015600e575f80fd5b506109b88061001c5f395ff3fe608060405234801561000f575f80fd5b506004361061007b575f3560e01c80636f760f41116100595780636f760f41146100d75780638bab8dd5146100f35780639e7a13ad14610123578063a4607c00146101545761007b565b80632e64cec11461007f578063471f7cdf1461009d5780636057361d146100bb575b5f80fd5b610087610172565b604051610094919061031f565b60405180910390f35b6100a561017a565b6040516100b2919061031f565b60405180910390f35b6100d560048036038101906100d09190610373565b61017f565b005b6100f160048036038101906100ec91906104da565b610194565b005b61010d60048036038101906101089190610534565b61021d565b60405161011a919061031f565b60405180910390f35b61013d60048036038101906101389190610373565b61024a565b60405161014b9291906105db565b60405180910390f35b61015c6102ff565b604051610169919061031f565b60405180910390f35b5f8054905090565b5f5481565b600a8161018c9190610636565b5f8190555050565b5f6040518060400160405280838152602001848152509050600181908060018154018082558091505060019003905f5260205f2090600202015f909190919091505f820151815f015560208201518160010190816101f29190610863565b50505081600284604051610206919061096c565b908152602001604051809103902081905550505050565b6002818051602081018201805184825260208301602085012081835280955050505050505f915090505481565b60018181548110610259575f80fd5b905f5260205f2090600202015f91509050805f01549080600101805461027e90610696565b80601f01602080910402602001604051908101604052809291908181526020018280546102aa90610696565b80156102f55780601f106102cc576101008083540402835291602001916102f5565b820191905f5260205f20905b8154815290600101906020018083116102d857829003601f168201915b5050505050905082565b5f6009905090565b5f819050919050565b61031981610307565b82525050565b5f6020820190506103325f830184610310565b92915050565b5f604051905090565b5f80fd5b5f80fd5b61035281610307565b811461035c575f80fd5b50565b5f8135905061036d81610349565b92915050565b5f6020828403121561038857610387610341565b5b5f6103958482850161035f565b91505092915050565b5f80fd5b5f80fd5b5f601f19601f8301169050919050565b7f4e487b71000000000000000000000000000000000000000000000000000000005f52604160045260245ffd5b6103ec826103a6565b810181811067ffffffffffffffff8211171561040b5761040a6103b6565b5b80604052505050565b5f61041d610338565b905061042982826103e3565b919050565b5f67ffffffffffffffff821115610448576104476103b6565b5b610451826103a6565b9050602081019050919050565b828183375f83830152505050565b5f61047e6104798461042e565b610414565b90508281526020810184848401111561049a576104996103a2565b5b6104a584828561045e565b509392505050565b5f82601f8301126104c1576104c061039e565b5b81356104d184826020860161046c565b91505092915050565b5f80604083850312156104f0576104ef610341565b5b5f83013567ffffffffffffffff81111561050d5761050c610345565b5b610519858286016104ad565b925050602061052a8582860161035f565b9150509250929050565b5f6020828403121561054957610548610341565b5b5f82013567ffffffffffffffff81111561056657610565610345565b5b610572848285016104ad565b91505092915050565b5f81519050919050565b5f82825260208201905092915050565b8281835e5f83830152505050565b5f6105ad8261057b565b6105b78185610585565b93506105c7818560208601610595565b6105d0816103a6565b840191505092915050565b5f6040820190506105ee5f830185610310565b818103602083015261060081846105a3565b90509392505050565b7f4e487b71000000000000000000000000000000000000000000000000000000005f52601160045260245ffd5b5f61064082610307565b915061064b83610307565b925082820190508082111561066357610662610609565b5b92915050565b7f4e487b71000000000000000000000000000000000000000000000000000000005f52602260045260245ffd5b5f60028204905060018216806106ad57607f821691505b6020821081036106c0576106bf610669565b5b50919050565b5f819050815f5260205f209050919050565b5f6020601f8301049050919050565b5f82821b905092915050565b5f600883026107227fffffffffffffffffffffffffffffffffffffffffffffffffffffffffffffffff826106e7565b61072c86836106e7565b95508019841693508086168417925050509392505050565b5f819050919050565b5f61076761076261075d84610307565b610744565b610307565b9050919050565b5f819050919050565b6107808361074d565b61079461078c8261076e565b8484546106f3565b825550505050565b5f90565b6107a861079c565b6107b3818484610777565b505050565b5b818110156107d6576107cb5f826107a0565b6001810190506107b9565b5050565b601f82111561081b576107ec816106c6565b6107f5846106d8565b81016020851015610804578190505b610818610810856106d8565b8301826107b8565b50505b505050565b5f82821c905092915050565b5f61083b5f1984600802610820565b1980831691505092915050565b5f610853838361082c565b9150826002028217905092915050565b61086c8261057b565b67ffffffffffffffff811115610885576108846103b6565b5b61088f8254610696565b61089a8282856107da565b5f60209050601f8311600181146108cb575f84156108b9578287015190505b6108c38582610848565b86555061092a565b601f1984166108d9866106c6565b5f5b82811015610900578489015182556001820191506020850194506020810190506108db565b8683101561091d5784890151610919601f89168261082c565b8355505b6001600288020188555050505b505050505050565b5f81905092915050565b5f6109468261057b565b6109508185610932565b9350610960818560208601610595565b80840191505092915050565b5f610977828461093c565b91508190509291505056fea2646970667358221220d8fcd618873743d23a8b65df9552d8fa34b213cad924313066e49a656be74ab664736f6c634300081a0033",
			"opcodes": "PUSH1 0x80 PUSH1 0x40 MSTORE CALLVALUE DUP1 ISZERO PUSH1 0xE JUMPI PUSH0 DUP1 REVERT JUMPDEST POP PUSH2 0x9B8 DUP1 PUSH2 0x1C PUSH0 CODECOPY PUSH0 RETURN INVALID PUSH1 0x80 PUSH1 0x40 MSTORE CALLVALUE DUP1 ISZERO PUSH2 0xF JUMPI PUSH0 DUP1 REVERT JUMPDEST POP PUSH1 0x4 CALLDATASIZE LT PUSH2 0x7B JUMPI PUSH0 CALLDATALOAD PUSH1 0xE0 SHR DUP1 PUSH4 0x6F760F41 GT PUSH2 0x59 JUMPI DUP1 PUSH4 0x6F760F41 EQ PUSH2 0xD7 JUMPI DUP1 PUSH4 0x8BAB8DD5 EQ PUSH2 0xF3 JUMPI DUP1 PUSH4 0x9E7A13AD EQ PUSH2 0x123 JUMPI DUP1 PUSH4 0xA4607C00 EQ PUSH2 0x154 JUMPI PUSH2 0x7B JUMP JUMPDEST DUP1 PUSH4 0x2E64CEC1 EQ PUSH2 0x7F JUMPI DUP1 PUSH4 0x471F7CDF EQ PUSH2 0x9D JUMPI DUP1 PUSH4 0x6057361D EQ PUSH2 0xBB JUMPI JUMPDEST PUSH0 DUP1 REVERT JUMPDEST PUSH2 0x87 PUSH2 0x172 JUMP JUMPDEST PUSH1 0x40 MLOAD PUSH2 0x94 SWAP2 SWAP1 PUSH2 0x31F JUMP JUMPDEST PUSH1 0x40 MLOAD DUP1 SWAP2 SUB SWAP1 RETURN JUMPDEST PUSH2 0xA5 PUSH2 0x17A JUMP JUMPDEST PUSH1 0x40 MLOAD PUSH2 0xB2 SWAP2 SWAP1 PUSH2 0x31F JUMP JUMPDEST PUSH1 0x40 MLOAD DUP1 SWAP2 SUB SWAP1 RETURN JUMPDEST PUSH2 0xD5 PUSH1 0x4 DUP1 CALLDATASIZE SUB DUP2 ADD SWAP1 PUSH2 0xD0 SWAP2 SWAP1 PUSH2 0x373 JUMP JUMPDEST PUSH2 0x17F JUMP JUMPDEST STOP JUMPDEST PUSH2 0xF1 PUSH1 0x4 DUP1 CALLDATASIZE SUB DUP2 ADD SWAP1 PUSH2 0xEC SWAP2 SWAP1 PUSH2 0x4DA JUMP JUMPDEST PUSH2 0x194 JUMP JUMPDEST STOP JUMPDEST PUSH2 0x10D PUSH1 0x4 DUP1 CALLDATASIZE SUB DUP2 ADD SWAP1 PUSH2 0x108 SWAP2 SWAP1 PUSH2 0x534 JUMP JUMPDEST PUSH2 0x21D JUMP JUMPDEST PUSH1 0x40 MLOAD PUSH2 0x11A SWAP2 SWAP1 PUSH2 0x31F JUMP JUMPDEST PUSH1 0x40 MLOAD DUP1 SWAP2 SUB SWAP1 RETURN JUMPDEST PUSH2 0x13D PUSH1 0x4 DUP1 CALLDATASIZE SUB DUP2 ADD SWAP1 PUSH2 0x138 SWAP2 SWAP1 PUSH2 0x373 JUMP JUMPDEST PUSH2 0x24A JUMP JUMPDEST PUSH1 0x40 MLOAD PUSH2 0x14B SWAP3 SWAP2 SWAP1 PUSH2 0x5DB JUMP JUMPDEST PUSH1 0x40 MLOAD DUP1 SWAP2 SUB SWAP1 RETURN JUMPDEST PUSH2 0x15C PUSH2 0x2FF JUMP JUMPDEST PUSH1 0x40 MLOAD PUSH2 0x169 SWAP2 SWAP1 PUSH2 0x31F JUMP JUMPDEST PUSH1 0x40 MLOAD DUP1 SWAP2 SUB SWAP1 RETURN JUMPDEST PUSH0 DUP1 SLOAD SWAP1 POP SWAP1 JUMP JUMPDEST PUSH0 SLOAD DUP2 JUMP JUMPDEST PUSH1 0xA DUP2 PUSH2 0x18C SWAP2 SWAP1 PUSH2 0x636 JUMP JUMPDEST PUSH0 DUP2 SWAP1 SSTORE POP POP JUMP JUMPDEST PUSH0 PUSH1 0x40 MLOAD DUP1 PUSH1 0x40 ADD PUSH1 0x40 MSTORE DUP1 DUP4 DUP2 MSTORE PUSH1 0x20 ADD DUP5 DUP2 MSTORE POP SWAP1 POP PUSH1 0x1 DUP2 SWAP1 DUP1 PUSH1 0x1 DUP2 SLOAD ADD DUP1 DUP3 SSTORE DUP1 SWAP2 POP POP PUSH1 0x1 SWAP1 SUB SWAP1 PUSH0 MSTORE PUSH1 0x20 PUSH0 KECCAK256 SWAP1 PUSH1 0x2 MUL ADD PUSH0 SWAP1 SWAP2 SWAP1 SWAP2 SWAP1 SWAP2 POP PUSH0 DUP3 ADD MLOAD DUP2 PUSH0 ADD SSTORE PUSH1 0x20 DUP3 ADD MLOAD DUP2 PUSH1 0x1 ADD SWAP1 DUP2 PUSH2 0x1F2 SWAP2 SWAP1 PUSH2 0x863 JUMP JUMPDEST POP POP POP DUP2 PUSH1 0x2 DUP5 PUSH1 0x40 MLOAD PUSH2 0x206 SWAP2 SWAP1 PUSH2 0x96C JUMP JUMPDEST SWAP1 DUP2 MSTORE PUSH1 0x20 ADD PUSH1 0x40 MLOAD DUP1 SWAP2 SUB SWAP1 KECCAK256 DUP2 SWAP1 SSTORE POP POP POP POP JUMP JUMPDEST PUSH1 0x2 DUP2 DUP1 MLOAD PUSH1 0x20 DUP2 ADD DUP3 ADD DUP1 MLOAD DUP5 DUP3 MSTORE PUSH1 0x20 DUP4 ADD PUSH1 0x20 DUP6 ADD KECCAK256 DUP2 DUP4 MSTORE DUP1 SWAP6 POP POP POP POP POP POP PUSH0 SWAP2 POP SWAP1 POP SLOAD DUP2 JUMP JUMPDEST PUSH1 0x1 DUP2 DUP2 SLOAD DUP2 LT PUSH2 0x259 JUMPI PUSH0 DUP1 REVERT JUMPDEST SWAP1 PUSH0 MSTORE PUSH1 0x20 PUSH0 KECCAK256 SWAP1 PUSH1 0x2 MUL ADD PUSH0 SWAP2 POP SWAP1 POP DUP1 PUSH0 ADD SLOAD SWAP1 DUP1 PUSH1 0x1 ADD DUP1 SLOAD PUSH2 0x27E SWAP1 PUSH2 0x696 JUMP JUMPDEST DUP1 PUSH1 0x1F ADD PUSH1 0x20 DUP1 SWAP2 DIV MUL PUSH1 0x20 ADD PUSH1 0x40 MLOAD SWAP1 DUP2 ADD PUSH1 0x40 MSTORE DUP1 SWAP3 SWAP2 SWAP1 DUP2 DUP2 MSTORE PUSH1 0x20 ADD DUP3 DUP1 SLOAD PUSH2 0x2AA SWAP1 PUSH2 0x696 JUMP JUMPDEST DUP1 ISZERO PUSH2 0x2F5 JUMPI DUP1 PUSH1 0x1F LT PUSH2 0x2CC JUMPI PUSH2 0x100 DUP1 DUP4 SLOAD DIV MUL DUP4 MSTORE SWAP2 PUSH1 0x20 ADD SWAP2 PUSH2 0x2F5 JUMP JUMPDEST DUP3 ADD SWAP2 SWAP1 PUSH0 MSTORE PUSH1 0x20 PUSH0 KECCAK256 SWAP1 JUMPDEST DUP2 SLOAD DUP2 MSTORE SWAP1 PUSH1 0x1 ADD SWAP1 PUSH1 0x20 ADD DUP1 DUP4 GT PUSH2 0x2D8 JUMPI DUP3 SWAP1 SUB PUSH1 0x1F AND DUP3 ADD SWAP2 JUMPDEST POP POP POP POP POP SWAP1 POP DUP3 JUMP JUMPDEST PUSH0 PUSH1 0x9 SWAP1 POP SWAP1 JUMP JUMPDEST PUSH0 DUP2 SWAP1 POP SWAP2 SWAP1 POP JUMP JUMPDEST PUSH2 0x319 DUP2 PUSH2 0x307 JUMP JUMPDEST DUP3 MSTORE POP POP JUMP JUMPDEST PUSH0 PUSH1 0x20 DUP3 ADD SWAP1 POP PUSH2 0x332 PUSH0 DUP4 ADD DUP5 PUSH2 0x310 JUMP JUMPDEST SWAP3 SWAP2 POP POP JUMP JUMPDEST PUSH0 PUSH1 0x40 MLOAD SWAP1 POP SWAP1 JUMP JUMPDEST PUSH0 DUP1 REVERT JUMPDEST PUSH0 DUP1 REVERT JUMPDEST PUSH2 0x352 DUP2 PUSH2 0x307 JUMP JUMPDEST DUP2 EQ PUSH2 0x35C JUMPI PUSH0 DUP1 REVERT JUMPDEST POP JUMP JUMPDEST PUSH0 DUP2 CALLDATALOAD SWAP1 POP PUSH2 0x36D DUP2 PUSH2 0x349 JUMP JUMPDEST SWAP3 SWAP2 POP POP JUMP JUMPDEST PUSH0 PUSH1 0x20 DUP3 DUP5 SUB SLT ISZERO PUSH2 0x388 JUMPI PUSH2 0x387 PUSH2 0x341 JUMP JUMPDEST JUMPDEST PUSH0 PUSH2 0x395 DUP5 DUP3 DUP6 ADD PUSH2 0x35F JUMP JUMPDEST SWAP2 POP POP SWAP3 SWAP2 POP POP JUMP JUMPDEST PUSH0 DUP1 REVERT JUMPDEST PUSH0 DUP1 REVERT JUMPDEST PUSH0 PUSH1 0x1F NOT PUSH1 0x1F DUP4 ADD AND SWAP1 POP SWAP2 SWAP1 POP JUMP JUMPDEST PUSH32 0x4E487B7100000000000000000000000000000000000000000000000000000000 PUSH0 MSTORE PUSH1 0x41 PUSH1 0x4 MSTORE PUSH1 0x24 PUSH0 REVERT JUMPDEST PUSH2 0x3EC DUP3 PUSH2 0x3A6 JUMP JUMPDEST DUP2 ADD DUP2 DUP2 LT PUSH8 0xFFFFFFFFFFFFFFFF DUP3 GT OR ISZERO PUSH2 0x40B JUMPI PUSH2 0x40A PUSH2 0x3B6 JUMP JUMPDEST JUMPDEST DUP1 PUSH1 0x40 MSTORE POP POP POP JUMP JUMPDEST PUSH0 PUSH2 0x41D PUSH2 0x338 JUMP JUMPDEST SWAP1 POP PUSH2 0x429 DUP3 DUP3 PUSH2 0x3E3 JUMP JUMPDEST SWAP2 SWAP1 POP JUMP JUMPDEST PUSH0 PUSH8 0xFFFFFFFFFFFFFFFF DUP3 GT ISZERO PUSH2 0x448 JUMPI PUSH2 0x447 PUSH2 0x3B6 JUMP JUMPDEST JUMPDEST PUSH2 0x451 DUP3 PUSH2 0x3A6 JUMP JUMPDEST SWAP1 POP PUSH1 0x20 DUP2 ADD SWAP1 POP SWAP2 SWAP1 POP JUMP JUMPDEST DUP3 DUP2 DUP4 CALLDATACOPY PUSH0 DUP4 DUP4 ADD MSTORE POP POP POP JUMP JUMPDEST PUSH0 PUSH2 0x47E PUSH2 0x479 DUP5 PUSH2 0x42E JUMP JUMPDEST PUSH2 0x414 JUMP JUMPDEST SWAP1 POP DUP3 DUP2 MSTORE PUSH1 0x20 DUP2 ADD DUP5 DUP5 DUP5 ADD GT ISZERO PUSH2 0x49A JUMPI PUSH2 0x499 PUSH2 0x3A2 JUMP JUMPDEST JUMPDEST PUSH2 0x4A5 DUP5 DUP3 DUP6 PUSH2 0x45E JUMP JUMPDEST POP SWAP4 SWAP3 POP POP POP JUMP JUMPDEST PUSH0 DUP3 PUSH1 0x1F DUP4 ADD SLT PUSH2 0x4C1 JUMPI PUSH2 0x4C0 PUSH2 0x39E JUMP JUMPDEST JUMPDEST DUP2 CALLDATALOAD PUSH2 0x4D1 DUP5 DUP3 PUSH1 0x20 DUP7 ADD PUSH2 0x46C JUMP JUMPDEST SWAP2 POP POP SWAP3 SWAP2 POP POP JUMP JUMPDEST PUSH0 DUP1 PUSH1 0x40 DUP4 DUP6 SUB SLT ISZERO PUSH2 0x4F0 JUMPI PUSH2 0x4EF PUSH2 0x341 JUMP JUMPDEST JUMPDEST PUSH0 DUP4 ADD CALLDATALOAD PUSH8 0xFFFFFFFFFFFFFFFF DUP2 GT ISZERO PUSH2 0x50D JUMPI PUSH2 0x50C PUSH2 0x345 JUMP JUMPDEST JUMPDEST PUSH2 0x519 DUP6 DUP3 DUP7 ADD PUSH2 0x4AD JUMP JUMPDEST SWAP3 POP POP PUSH1 0x20 PUSH2 0x52A DUP6 DUP3 DUP7 ADD PUSH2 0x35F JUMP JUMPDEST SWAP2 POP POP SWAP3 POP SWAP3 SWAP1 POP JUMP JUMPDEST PUSH0 PUSH1 0x20 DUP3 DUP5 SUB SLT ISZERO PUSH2 0x549 JUMPI PUSH2 0x548 PUSH2 0x341 JUMP JUMPDEST JUMPDEST PUSH0 DUP3 ADD CALLDATALOAD PUSH8 0xFFFFFFFFFFFFFFFF DUP2 GT ISZERO PUSH2 0x566 JUMPI PUSH2 0x565 PUSH2 0x345 JUMP JUMPDEST JUMPDEST PUSH2 0x572 DUP5 DUP3 DUP6 ADD PUSH2 0x4AD JUMP JUMPDEST SWAP2 POP POP SWAP3 SWAP2 POP POP JUMP JUMPDEST PUSH0 DUP2 MLOAD SWAP1 POP SWAP2 SWAP1 POP JUMP JUMPDEST PUSH0 DUP3 DUP3 MSTORE PUSH1 0x20 DUP3 ADD SWAP1 POP SWAP3 SWAP2 POP POP JUMP JUMPDEST DUP3 DUP2 DUP4 MCOPY PUSH0 DUP4 DUP4 ADD MSTORE POP POP POP JUMP JUMPDEST PUSH0 PUSH2 0x5AD DUP3 PUSH2 0x57B JUMP JUMPDEST PUSH2 0x5B7 DUP2 DUP6 PUSH2 0x585 JUMP JUMPDEST SWAP4 POP PUSH2 0x5C7 DUP2 DUP6 PUSH1 0x20 DUP7 ADD PUSH2 0x595 JUMP JUMPDEST PUSH2 0x5D0 DUP2 PUSH2 0x3A6 JUMP JUMPDEST DUP5 ADD SWAP2 POP POP SWAP3 SWAP2 POP POP JUMP JUMPDEST PUSH0 PUSH1 0x40 DUP3 ADD SWAP1 POP PUSH2 0x5EE PUSH0 DUP4 ADD DUP6 PUSH2 0x310 JUMP JUMPDEST DUP2 DUP2 SUB PUSH1 0x20 DUP4 ADD MSTORE PUSH2 0x600 DUP2 DUP5 PUSH2 0x5A3 JUMP JUMPDEST SWAP1 POP SWAP4 SWAP3 POP POP POP JUMP JUMPDEST PUSH32 0x4E487B7100000000000000000000000000000000000000000000000000000000 PUSH0 MSTORE PUSH1 0x11 PUSH1 0x4 MSTORE PUSH1 0x24 PUSH0 REVERT JUMPDEST PUSH0 PUSH2 0x640 DUP3 PUSH2 0x307 JUMP JUMPDEST SWAP2 POP PUSH2 0x64B DUP4 PUSH2 0x307 JUMP JUMPDEST SWAP3 POP DUP3 DUP3 ADD SWAP1 POP DUP1 DUP3 GT ISZERO PUSH2 0x663 JUMPI PUSH2 0x662 PUSH2 0x609 JUMP JUMPDEST JUMPDEST SWAP3 SWAP2 POP POP JUMP JUMPDEST PUSH32 0x4E487B7100000000000000000000000000000000000000000000000000000000 PUSH0 MSTORE PUSH1 0x22 PUSH1 0x4 MSTORE PUSH1 0x24 PUSH0 REVERT JUMPDEST PUSH0 PUSH1 0x2 DUP3 DIV SWAP1 POP PUSH1 0x1 DUP3 AND DUP1 PUSH2 0x6AD JUMPI PUSH1 0x7F DUP3 AND SWAP2 POP JUMPDEST PUSH1 0x20 DUP3 LT DUP2 SUB PUSH2 0x6C0 JUMPI PUSH2 0x6BF PUSH2 0x669 JUMP JUMPDEST JUMPDEST POP SWAP2 SWAP1 POP JUMP JUMPDEST PUSH0 DUP2 SWAP1 POP DUP2 PUSH0 MSTORE PUSH1 0x20 PUSH0 KECCAK256 SWAP1 POP SWAP2 SWAP1 POP JUMP JUMPDEST PUSH0 PUSH1 0x20 PUSH1 0x1F DUP4 ADD DIV SWAP1 POP SWAP2 SWAP1 POP JUMP JUMPDEST PUSH0 DUP3 DUP3 SHL SWAP1 POP SWAP3 SWAP2 POP POP JUMP JUMPDEST PUSH0 PUSH1 0x8 DUP4 MUL PUSH2 0x722 PUSH32 0xFFFFFFFFFFFFFFFFFFFFFFFFFFFFFFFFFFFFFFFFFFFFFFFFFFFFFFFFFFFFFFFF DUP3 PUSH2 0x6E7 JUMP JUMPDEST PUSH2 0x72C DUP7 DUP4 PUSH2 0x6E7 JUMP JUMPDEST SWAP6 POP DUP1 NOT DUP5 AND SWAP4 POP DUP1 DUP7 AND DUP5 OR SWAP3 POP POP POP SWAP4 SWAP3 POP POP POP JUMP JUMPDEST PUSH0 DUP2 SWAP1 POP SWAP2 SWAP1 POP JUMP JUMPDEST PUSH0 PUSH2 0x767 PUSH2 0x762 PUSH2 0x75D DUP5 PUSH2 0x307 JUMP JUMPDEST PUSH2 0x744 JUMP JUMPDEST PUSH2 0x307 JUMP JUMPDEST SWAP1 POP SWAP2 SWAP1 POP JUMP JUMPDEST PUSH0 DUP2 SWAP1 POP SWAP2 SWAP1 POP JUMP JUMPDEST PUSH2 0x780 DUP4 PUSH2 0x74D JUMP JUMPDEST PUSH2 0x794 PUSH2 0x78C DUP3 PUSH2 0x76E JUMP JUMPDEST DUP5 DUP5 SLOAD PUSH2 0x6F3 JUMP JUMPDEST DUP3 SSTORE POP POP POP POP JUMP JUMPDEST PUSH0 SWAP1 JUMP JUMPDEST PUSH2 0x7A8 PUSH2 0x79C JUMP JUMPDEST PUSH2 0x7B3 DUP2 DUP5 DUP5 PUSH2 0x777 JUMP JUMPDEST POP POP POP JUMP JUMPDEST JUMPDEST DUP2 DUP2 LT ISZERO PUSH2 0x7D6 JUMPI PUSH2 0x7CB PUSH0 DUP3 PUSH2 0x7A0 JUMP JUMPDEST PUSH1 0x1 DUP2 ADD SWAP1 POP PUSH2 0x7B9 JUMP JUMPDEST POP POP JUMP JUMPDEST PUSH1 0x1F DUP3 GT ISZERO PUSH2 0x81B JUMPI PUSH2 0x7EC DUP2 PUSH2 0x6C6 JUMP JUMPDEST PUSH2 0x7F5 DUP5 PUSH2 0x6D8 JUMP JUMPDEST DUP2 ADD PUSH1 0x20 DUP6 LT ISZERO PUSH2 0x804 JUMPI DUP2 SWAP1 POP JUMPDEST PUSH2 0x818 PUSH2 0x810 DUP6 PUSH2 0x6D8 JUMP JUMPDEST DUP4 ADD DUP3 PUSH2 0x7B8 JUMP JUMPDEST POP POP JUMPDEST POP POP POP JUMP JUMPDEST PUSH0 DUP3 DUP3 SHR SWAP1 POP SWAP3 SWAP2 POP POP JUMP JUMPDEST PUSH0 PUSH2 0x83B PUSH0 NOT DUP5 PUSH1 0x8 MUL PUSH2 0x820 JUMP JUMPDEST NOT DUP1 DUP4 AND SWAP2 POP POP SWAP3 SWAP2 POP POP JUMP JUMPDEST PUSH0 PUSH2 0x853 DUP4 DUP4 PUSH2 0x82C JUMP JUMPDEST SWAP2 POP DUP3 PUSH1 0x2 MUL DUP3 OR SWAP1 POP SWAP3 SWAP2 POP POP JUMP JUMPDEST PUSH2 0x86C DUP3 PUSH2 0x57B JUMP JUMPDEST PUSH8 0xFFFFFFFFFFFFFFFF DUP2 GT ISZERO PUSH2 0x885 JUMPI PUSH2 0x884 PUSH2 0x3B6 JUMP JUMPDEST JUMPDEST PUSH2 0x88F DUP3 SLOAD PUSH2 0x696 JUMP JUMPDEST PUSH2 0x89A DUP3 DUP3 DUP6 PUSH2 0x7DA JUMP JUMPDEST PUSH0 PUSH1 0x20 SWAP1 POP PUSH1 0x1F DUP4 GT PUSH1 0x1 DUP2 EQ PUSH2 0x8CB JUMPI PUSH0 DUP5 ISZERO PUSH2 0x8B9 JUMPI DUP3 DUP8 ADD MLOAD SWAP1 POP JUMPDEST PUSH2 0x8C3 DUP6 DUP3 PUSH2 0x848 JUMP JUMPDEST DUP7 SSTORE POP PUSH2 0x92A JUMP JUMPDEST PUSH1 0x1F NOT DUP5 AND PUSH2 0x8D9 DUP7 PUSH2 0x6C6 JUMP JUMPDEST PUSH0 JUMPDEST DUP3 DUP2 LT ISZERO PUSH2 0x900 JUMPI DUP5 DUP10 ADD MLOAD DUP3 SSTORE PUSH1 0x1 DUP3 ADD SWAP2 POP PUSH1 0x20 DUP6 ADD SWAP5 POP PUSH1 0x20 DUP2 ADD SWAP1 POP PUSH2 0x8DB JUMP JUMPDEST DUP7 DUP4 LT ISZERO PUSH2 0x91D JUMPI DUP5 DUP10 ADD MLOAD PUSH2 0x919 PUSH1 0x1F DUP10 AND DUP3 PUSH2 0x82C JUMP JUMPDEST DUP4 SSTORE POP JUMPDEST PUSH1 0x1 PUSH1 0x2 DUP9 MUL ADD DUP9 SSTORE POP POP POP JUMPDEST POP POP POP POP POP POP JUMP JUMPDEST PUSH0 DUP2 SWAP1 POP SWAP3 SWAP2 POP POP JUMP JUMPDEST PUSH0 PUSH2 0x946 DUP3 PUSH2 0x57B JUMP JUMPDEST PUSH2 0x950 DUP2 DUP6 PUSH2 0x932 JUMP JUMPDEST SWAP4 POP PUSH2 0x960 DUP2 DUP6 PUSH1 0x20 DUP7 ADD PUSH2 0x595 JUMP JUMPDEST DUP1 DUP5 ADD SWAP2 POP POP SWAP3 SWAP2 POP POP JUMP JUMPDEST PUSH0 PUSH2 0x977 DUP3 DUP5 PUSH2 0x93C JUMP JUMPDEST SWAP2 POP DUP2 SWAP1 POP SWAP3 SWAP2 POP POP JUMP INVALID LOG2 PUSH5 0x6970667358 0x22 SLT KECCAK256 0xD8 0xFC 0xD6 XOR DUP8 CALLDATACOPY NUMBER 0xD2 GASPRICE DUP12 PUSH6 0xDF9552D8FA34 0xB2 SGT 0xCA 0xD9 0x24 BALANCE ADDRESS PUSH7 0xE49A656BE74AB6 PUSH5 0x736F6C6343 STOP ADDMOD BYTE STOP CALLER "
		},
		"gasEstimates": {
			"creation": {
				"codeDepositCost": "497600",
				"executionCost": "528",
				"totalCost": "498128"
			},
			"external": {
				"addPerson(string,uint256)": "infinite",
				"favoriteNumber()": "2447",
				"nameToFavoriteNumber(string)": "infinite",
				"people(uint256)": "infinite",
				"pureFunctionExample()": "398",
				"retrieve()": "2433",
				"store(uint256)": "infinite"
			}
		},
		"methodIdentifiers": {
			"addPerson(string,uint256)": "6f760f41",
			"favoriteNumber()": "471f7cdf",
			"nameToFavoriteNumber(string)": "8bab8dd5",
			"people(uint256)": "9e7a13ad",
			"pureFunctionExample()": "a4607c00",
			"retrieve()": "2e64cec1",
			"store(uint256)": "6057361d"
		}
	},
	"abi": [
		{
			"inputs": [
				{
					"internalType": "string",
					"name": "_name",
					"type": "string"
				},
				{
					"internalType": "uint256",
					"name": "_favoriteNumber",
					"type": "uint256"
				}
			],
			"name": "addPerson",
			"outputs": [],
			"stateMutability": "nonpayable",
			"type": "function"
		},
		{
			"inputs": [],
			"name": "favoriteNumber",
			"outputs": [
				{
					"internalType": "uint256",
					"name": "",
					"type": "uint256"
				}
			],
			"stateMutability": "view",
			"type": "function"
		},
		{
			"inputs": [
				{
					"internalType": "string",
					"name": "",
					"type": "string"
				}
			],
			"name": "nameToFavoriteNumber",
			"outputs": [
				{
					"internalType": "uint256",
					"name": "",
					"type": "uint256"
				}
			],
			"stateMutability": "view",
			"type": "function"
		},
		{
			"inputs": [
				{
					"internalType": "uint256",
					"name": "",
					"type": "uint256"
				}
			],
			"name": "people",
			"outputs": [
				{
					"internalType": "uint256",
					"name": "favoriteNumber",
					"type": "uint256"
				},
				{
					"internalType": "string",
					"name": "name",
					"type": "string"
				}
			],
			"stateMutability": "view",
			"type": "function"
		},
		{
			"inputs": [],
			"name": "pureFunctionExample",
			"outputs": [
				{
					"internalType": "uint256",
					"name": "",
					"type": "uint256"
				}
			],
			"stateMutability": "pure",
			"type": "function"
		},
		{
			"inputs": [],
			"name": "retrieve",
			"outputs": [
				{
					"internalType": "uint256",
					"name": "",
					"type": "uint256"
				}
			],
			"stateMutability": "view",
			"type": "function"
		},
		{
			"inputs": [
				{
					"internalType": "uint256",
					"name": "_favoriteNumber",
					"type": "uint256"
				}
			],
			"name": "store",
			"outputs": [],
			"stateMutability": "nonpayable",
			"type": "function"
		}
	]
}