{
	"contracts/FundMe1.sol": {
		"FundMe1": {
			"abi": [
				{
					"inputs": [],
					"name": "fund",
					"outputs": [],
					"stateMutability": "payable",
					"type": "function"
				},
				{
					"inputs": [],
					"name": "number",
					"outputs": [
						{
							"internalType": "uint256",
							"name": "",
							"type": "uint256"
						}
					],
					"stateMutability": "view",
					"type": "function"
				}
			],
			"devdoc": {
				"kind": "dev",
				"methods": {},
				"version": 1
			},
			"evm": {
				"assembly": "    /* \"contracts/FundMe1.sol\":469:1416  contract FundMe1{... */\n  mstore(0x40, 0x80)\n  callvalue\n  dup1\n  iszero\n  tag_1\n  jumpi\n  0x00\n  dup1\n  revert\ntag_1:\n  pop\n  dataSize(sub_0)\n  dup1\n  dataOffset(sub_0)\n  0x00\n  codecopy\n  0x00\n  return\nstop\n\nsub_0: assembly {\n        /* \"contracts/FundMe1.sol\":469:1416  contract FundMe1{... */\n      mstore(0x40, 0x80)\n      jumpi(tag_1, lt(calldatasize, 0x04))\n      shr(0xe0, calldataload(0x00))\n      dup1\n      0x8381f58a\n      eq\n      tag_2\n      jumpi\n      dup1\n      0xb60d4288\n      eq\n      tag_3\n      jumpi\n    tag_1:\n      0x00\n      dup1\n      revert\n        /* \"contracts/FundMe1.sol\":492:513  uint256 public number */\n    tag_2:\n      callvalue\n      dup1\n      iszero\n      tag_4\n      jumpi\n      0x00\n      dup1\n      revert\n    tag_4:\n      pop\n      tag_5\n      tag_6\n      jump\t// in\n    tag_5:\n      mload(0x40)\n      tag_7\n      swap2\n      swap1\n      tag_8\n      jump\t// in\n    tag_7:\n      mload(0x40)\n      dup1\n      swap2\n      sub\n      swap1\n      return\n        /* \"contracts/FundMe1.sol\":695:1408  function fund() public payable {... */\n    tag_3:\n      tag_9\n      tag_10\n      jump\t// in\n    tag_9:\n      stop\n        /* \"contracts/FundMe1.sol\":492:513  uint256 public number */\n    tag_6:\n      sload(0x00)\n      dup2\n      jump\t// out\n        /* \"contracts/FundMe1.sol\":695:1408  function fund() public payable {... */\n    tag_10:\n        /* \"contracts/FundMe1.sol\":746:747  5 */\n      0x05\n        /* \"contracts/FundMe1.sol\":737:743  number */\n      0x00\n        /* \"contracts/FundMe1.sol\":737:747  number = 5 */\n      dup2\n      swap1\n      sstore\n      pop\n        /* \"contracts/FundMe1.sol\":917:921  1e18 */\n      0x0de0b6b3a7640000\n        /* \"contracts/FundMe1.sol\":905:914  msg.value */\n      callvalue\n        /* \"contracts/FundMe1.sol\":905:921  msg.value > 1e18 */\n      gt\n        /* \"contracts/FundMe1.sol\":896:964  require (msg.value > 1e18, \"Did not send enough Eth, now reverted.\") */\n      tag_12\n      jumpi\n      mload(0x40)\n      0x08c379a000000000000000000000000000000000000000000000000000000000\n      dup2\n      mstore\n      0x04\n      add\n      tag_13\n      swap1\n      tag_14\n      jump\t// in\n    tag_13:\n      mload(0x40)\n      dup1\n      swap2\n      sub\n      swap1\n      revert\n    tag_12:\n        /* \"contracts/FundMe1.sol\":695:1408  function fund() public payable {... */\n      jump\t// out\n        /* \"#utility.yul\":7:84   */\n    tag_15:\n        /* \"#utility.yul\":44:51   */\n      0x00\n        /* \"#utility.yul\":73:78   */\n      dup2\n        /* \"#utility.yul\":62:78   */\n      swap1\n      pop\n        /* \"#utility.yul\":7:84   */\n      swap2\n      swap1\n      pop\n      jump\t// out\n        /* \"#utility.yul\":90:208   */\n    tag_16:\n        /* \"#utility.yul\":177:201   */\n      tag_23\n        /* \"#utility.yul\":195:200   */\n      dup2\n        /* \"#utility.yul\":177:201   */\n      tag_15\n      jump\t// in\n    tag_23:\n        /* \"#utility.yul\":172:175   */\n      dup3\n        /* \"#utility.yul\":165:202   */\n      mstore\n        /* \"#utility.yul\":90:208   */\n      pop\n      pop\n      jump\t// out\n        /* \"#utility.yul\":214:436   */\n    tag_8:\n        /* \"#utility.yul\":307:311   */\n      0x00\n        /* \"#utility.yul\":345:347   */\n      0x20\n        /* \"#utility.yul\":334:343   */\n      dup3\n        /* \"#utility.yul\":330:348   */\n      add\n        /* \"#utility.yul\":322:348   */\n      swap1\n      pop\n        /* \"#utility.yul\":358:429   */\n      tag_25\n        /* \"#utility.yul\":426:427   */\n      0x00\n        /* \"#utility.yul\":415:424   */\n      dup4\n        /* \"#utility.yul\":411:428   */\n      add\n        /* \"#utility.yul\":402:408   */\n      dup5\n        /* \"#utility.yul\":358:429   */\n      tag_16\n      jump\t// in\n    tag_25:\n        /* \"#utility.yul\":214:436   */\n      swap3\n      swap2\n      pop\n      pop\n      jump\t// out\n        /* \"#utility.yul\":442:611   */\n    tag_17:\n        /* \"#utility.yul\":526:537   */\n      0x00\n        /* \"#utility.yul\":560:566   */\n      dup3\n        /* \"#utility.yul\":555:558   */\n      dup3\n        /* \"#utility.yul\":548:567   */\n      mstore\n        /* \"#utility.yul\":600:604   */\n      0x20\n        /* \"#utility.yul\":595:598   */\n      dup3\n        /* \"#utility.yul\":591:605   */\n      add\n        /* \"#utility.yul\":576:605   */\n      swap1\n      pop\n        /* \"#utility.yul\":442:611   */\n      swap3\n      swap2\n      pop\n      pop\n      jump\t// out\n        /* \"#utility.yul\":617:842   */\n    tag_18:\n        /* \"#utility.yul\":757:791   */\n      0x446964206e6f742073656e6420656e6f756768204574682c206e6f7720726576\n        /* \"#utility.yul\":753:754   */\n      0x00\n        /* \"#utility.yul\":745:751   */\n      dup3\n        /* \"#utility.yul\":741:755   */\n      add\n        /* \"#utility.yul\":734:792   */\n      mstore\n        /* \"#utility.yul\":826:834   */\n      0x65727465642e0000000000000000000000000000000000000000000000000000\n        /* \"#utility.yul\":821:823   */\n      0x20\n        /* \"#utility.yul\":813:819   */\n      dup3\n        /* \"#utility.yul\":809:824   */\n      add\n        /* \"#utility.yul\":802:835   */\n      mstore\n        /* \"#utility.yul\":617:842   */\n      pop\n      jump\t// out\n        /* \"#utility.yul\":848:1214   */\n    tag_19:\n        /* \"#utility.yul\":990:993   */\n      0x00\n        /* \"#utility.yul\":1011:1078   */\n      tag_29\n        /* \"#utility.yul\":1075:1077   */\n      0x26\n        /* \"#utility.yul\":1070:1073   */\n      dup4\n        /* \"#utility.yul\":1011:1078   */\n      tag_17\n      jump\t// in\n    tag_29:\n        /* \"#utility.yul\":1004:1078   */\n      swap2\n      pop\n        /* \"#utility.yul\":1087:1180   */\n      tag_30\n        /* \"#utility.yul\":1176:1179   */\n      dup3\n        /* \"#utility.yul\":1087:1180   */\n      tag_18\n      jump\t// in\n    tag_30:\n        /* \"#utility.yul\":1205:1207   */\n      0x40\n        /* \"#utility.yul\":1200:1203   */\n      dup3\n        /* \"#utility.yul\":1196:1208   */\n      add\n        /* \"#utility.yul\":1189:1208   */\n      swap1\n      pop\n        /* \"#utility.yul\":848:1214   */\n      swap2\n      swap1\n      pop\n      jump\t// out\n        /* \"#utility.yul\":1220:1639   */\n    tag_14:\n        /* \"#utility.yul\":1386:1390   */\n      0x00\n        /* \"#utility.yul\":1424:1426   */\n      0x20\n        /* \"#utility.yul\":1413:1422   */\n      dup3\n        /* \"#utility.yul\":1409:1427   */\n      add\n        /* \"#utility.yul\":1401:1427   */\n      swap1\n      pop\n        /* \"#utility.yul\":1473:1482   */\n      dup2\n        /* \"#utility.yul\":1467:1471   */\n      dup2\n        /* \"#utility.yul\":1463:1483   */\n      sub\n        /* \"#utility.yul\":1459:1460   */\n      0x00\n        /* \"#utility.yul\":1448:1457   */\n      dup4\n        /* \"#utility.yul\":1444:1461   */\n      add\n        /* \"#utility.yul\":1437:1484   */\n      mstore\n        /* \"#utility.yul\":1501:1632   */\n      tag_32\n        /* \"#utility.yul\":1627:1631   */\n      dup2\n        /* \"#utility.yul\":1501:1632   */\n      tag_19\n      jump\t// in\n    tag_32:\n        /* \"#utility.yul\":1493:1632   */\n      swap1\n      pop\n        /* \"#utility.yul\":1220:1639   */\n      swap2\n      swap1\n      pop\n      jump\t// out\n\n    auxdata: 0xa2646970667358221220c2d53c05bd5255a96a5305227ad5312590f743e0ecd111265f5f093b030ddc3f64736f6c634300081a0033\n}\n",
				"bytecode": {
					"linkReferences": {},
					"object": "6080604052348015600e575f80fd5b506101bd8061001c5f395ff3fe608060405260043610610028575f3560e01c80638381f58a1461002c578063b60d428814610056575b5f80fd5b348015610037575f80fd5b50610040610060565b60405161004d91906100d0565b60405180910390f35b61005e610065565b005b5f5481565b60055f81905550670de0b6b3a764000034116100b6576040517f08c379a00000000000000000000000000000000000000000000000000000000081526004016100ad90610169565b60405180910390fd5b565b5f819050919050565b6100ca816100b8565b82525050565b5f6020820190506100e35f8301846100c1565b92915050565b5f82825260208201905092915050565b7f446964206e6f742073656e6420656e6f756768204574682c206e6f77207265765f8201527f65727465642e0000000000000000000000000000000000000000000000000000602082015250565b5f6101536026836100e9565b915061015e826100f9565b604082019050919050565b5f6020820190508181035f83015261018081610147565b905091905056fea2646970667358221220c2d53c05bd5255a96a5305227ad5312590f743e0ecd111265f5f093b030ddc3f64736f6c634300081a0033",
					"opcodes": "PUSH1 0x80 PUSH1 0x40 MSTORE CALLVALUE DUP1 ISZERO PUSH1 0xE JUMPI PUSH0 DUP1 REVERT JUMPDEST POP PUSH2 0x1BD DUP1 PUSH2 0x1C PUSH0 CODECOPY PUSH0 RETURN INVALID PUSH1 0x80 PUSH1 0x40 MSTORE PUSH1 0x4 CALLDATASIZE LT PUSH2 0x28 JUMPI PUSH0 CALLDATALOAD PUSH1 0xE0 SHR DUP1 PUSH4 0x8381F58A EQ PUSH2 0x2C JUMPI DUP1 PUSH4 0xB60D4288 EQ PUSH2 0x56 JUMPI JUMPDEST PUSH0 DUP1 REVERT JUMPDEST CALLVALUE DUP1 ISZERO PUSH2 0x37 JUMPI PUSH0 DUP1 REVERT JUMPDEST POP PUSH2 0x40 PUSH2 0x60 JUMP JUMPDEST PUSH1 0x40 MLOAD PUSH2 0x4D SWAP2 SWAP1 PUSH2 0xD0 JUMP JUMPDEST PUSH1 0x40 MLOAD DUP1 SWAP2 SUB SWAP1 RETURN JUMPDEST PUSH2 0x5E PUSH2 0x65 JUMP JUMPDEST STOP JUMPDEST PUSH0 SLOAD DUP2 JUMP JUMPDEST PUSH1 0x5 PUSH0 DUP2 SWAP1 SSTORE POP PUSH8 0xDE0B6B3A7640000 CALLVALUE GT PUSH2 0xB6 JUMPI PUSH1 0x40 MLOAD PUSH32 0x8C379A000000000000000000000000000000000000000000000000000000000 DUP2 MSTORE PUSH1 0x4 ADD PUSH2 0xAD SWAP1 PUSH2 0x169 JUMP JUMPDEST PUSH1 0x40 MLOAD DUP1 SWAP2 SUB SWAP1 REVERT JUMPDEST JUMP JUMPDEST PUSH0 DUP2 SWAP1 POP SWAP2 SWAP1 POP JUMP JUMPDEST PUSH2 0xCA DUP2 PUSH2 0xB8 JUMP JUMPDEST DUP3 MSTORE POP POP JUMP JUMPDEST PUSH0 PUSH1 0x20 DUP3 ADD SWAP1 POP PUSH2 0xE3 PUSH0 DUP4 ADD DUP5 PUSH2 0xC1 JUMP JUMPDEST SWAP3 SWAP2 POP POP JUMP JUMPDEST PUSH0 DUP3 DUP3 MSTORE PUSH1 0x20 DUP3 ADD SWAP1 POP SWAP3 SWAP2 POP POP JUMP JUMPDEST PUSH32 0x446964206E6F742073656E6420656E6F756768204574682C206E6F7720726576 PUSH0 DUP3 ADD MSTORE PUSH32 0x65727465642E0000000000000000000000000000000000000000000000000000 PUSH1 0x20 DUP3 ADD MSTORE POP JUMP JUMPDEST PUSH0 PUSH2 0x153 PUSH1 0x26 DUP4 PUSH2 0xE9 JUMP JUMPDEST SWAP2 POP PUSH2 0x15E DUP3 PUSH2 0xF9 JUMP JUMPDEST PUSH1 0x40 DUP3 ADD SWAP1 POP SWAP2 SWAP1 POP JUMP JUMPDEST PUSH0 PUSH1 0x20 DUP3 ADD SWAP1 POP DUP2 DUP2 SUB PUSH0 DUP4 ADD MSTORE PUSH2 0x180 DUP2 PUSH2 0x147 JUMP JUMPDEST SWAP1 POP SWAP2 SWAP1 POP JUMP INVALID LOG2 PUSH5 0x6970667358 0x22 SLT KECCAK256 0xC2 0xD5 EXTCODECOPY SDIV 0xBD MSTORE SSTORE 0xA9 PUSH11 0x5305227AD5312590F743E0 0xEC 0xD1 GT 0x26 PUSH0 PUSH0 MULMOD EXTCODESIZE SUB 0xD 0xDC EXTCODEHASH PUSH5 0x736F6C6343 STOP ADDMOD BYTE STOP CALLER "
				},
				"gasEstimates": {
					"creation": {
						"codeDepositCost": "89000",
						"executionCost": "133",
						"totalCost": "89133"
					},
					"external": {
						"fund()": "22556",
						"number()": "2402"
					}
				},
				"methodIdentifiers": {
					"fund()": "b60d4288",
					"number()": "8381f58a"
				}
			},
			"storageLayout": {
				"storage": [
					{
						"astId": 3,
						"contract": "contracts/FundMe1.sol:FundMe1",
						"label": "number",
						"offset": 0,
						"slot": "0",
						"type": "t_uint256"
					}
				],
				"types": {
					"t_uint256": {
						"encoding": "inplace",
						"label": "uint256",
						"numberOfBytes": "32"
					}
				}
			},
			"userdoc": {
				"kind": "user",
				"methods": {},
				"version": 1
			}
		}
	}
}