{
	"contracts/FundMe2.sol": {
		"FundMe2": {
			"abi": [
				{
					"inputs": [],
					"stateMutability": "nonpayable",
					"type": "constructor"
				},
				{
					"inputs": [],
					"name": "MINIMUMUSD",
					"outputs": [
						{
							"internalType": "uint256",
							"name": "",
							"type": "uint256"
						}
					],
					"stateMutability": "view",
					"type": "function"
				},
				{
					"inputs": [
						{
							"internalType": "address",
							"name": "",
							"type": "address"
						}
					],
					"name": "addressAndFundsent",
					"outputs": [
						{
							"internalType": "uint256",
							"name": "",
							"type": "uint256"
						}
					],
					"stateMutability": "view",
					"type": "function"
				},
				{
					"inputs": [],
					"name": "fund",
					"outputs": [],
					"stateMutability": "payable",
					"type": "function"
				},
				{
					"inputs": [],
					"name": "owner",
					"outputs": [
						{
							"internalType": "address",
							"name": "",
							"type": "address"
						}
					],
					"stateMutability": "view",
					"type": "function"
				},
				{
					"inputs": [],
					"name": "withdraw",
					"outputs": [],
					"stateMutability": "nonpayable",
					"type": "function"
				}
			],
			"devdoc": {
				"kind": "dev",
				"methods": {},
				"version": 1
			},
			"evm": {
				"assembly": "    /* \"contracts/FundMe2.sol\":881:4856  contract FundMe2{... */\n  mstore(0x40, 0x80)\n    /* \"contracts/FundMe2.sol\":1403:1411  2 * 1e18 */\n  0x1bc16d674ec80000\n    /* \"contracts/FundMe2.sol\":1375:1411  uint256 public MINIMUMUSD = 2 * 1e18 */\n  0x00\n  sstore\n    /* \"contracts/FundMe2.sol\":2084:2132  constructor(){... */\n  callvalue\n  dup1\n  iszero\n  tag_1\n  jumpi\n  0x00\n  dup1\n  revert\ntag_1:\n  pop\n    /* \"contracts/FundMe2.sol\":2115:2125  msg.sender */\n  caller\n    /* \"contracts/FundMe2.sol\":2107:2112  owner */\n  0x03\n  0x00\n    /* \"contracts/FundMe2.sol\":2107:2125  owner = msg.sender */\n  0x0100\n  exp\n  dup2\n  sload\n  dup2\n  0xffffffffffffffffffffffffffffffffffffffff\n  mul\n  not\n  and\n  swap1\n  dup4\n  0xffffffffffffffffffffffffffffffffffffffff\n  and\n  mul\n  or\n  swap1\n  sstore\n  pop\n    /* \"contracts/FundMe2.sol\":881:4856  contract FundMe2{... */\n  dataSize(sub_0)\n  dup1\n  dataOffset(sub_0)\n  0x00\n  codecopy\n  0x00\n  return\nstop\n\nsub_0: assembly {\n        /* \"contracts/FundMe2.sol\":881:4856  contract FundMe2{... */\n      mstore(0x40, 0x80)\n      jumpi(tag_1, lt(calldatasize, 0x04))\n      shr(0xe0, calldataload(0x00))\n      dup1\n      0x3c4c58cc\n      eq\n      tag_2\n      jumpi\n      dup1\n      0x3ccfd60b\n      eq\n      tag_3\n      jumpi\n      dup1\n      0x7d451480\n      eq\n      tag_4\n      jumpi\n      dup1\n      0x8da5cb5b\n      eq\n      tag_5\n      jumpi\n      dup1\n      0xb60d4288\n      eq\n      tag_6\n      jumpi\n    tag_1:\n      0x00\n      dup1\n      revert\n        /* \"contracts/FundMe2.sol\":1816:1869  mapping(address => uint256) public addressAndFundsent */\n    tag_2:\n      callvalue\n      dup1\n      iszero\n      tag_7\n      jumpi\n      0x00\n      dup1\n      revert\n    tag_7:\n      pop\n      tag_8\n      0x04\n      dup1\n      calldatasize\n      sub\n      dup2\n      add\n      swap1\n      tag_9\n      swap2\n      swap1\n      tag_10\n      jump\t// in\n    tag_9:\n      tag_11\n      jump\t// in\n    tag_8:\n      mload(0x40)\n      tag_12\n      swap2\n      swap1\n      tag_13\n      jump\t// in\n    tag_12:\n      mload(0x40)\n      dup1\n      swap2\n      sub\n      swap1\n      return\n        /* \"contracts/FundMe2.sol\":3012:4412  function withdraw() public onlyOwner{... */\n    tag_3:\n      callvalue\n      dup1\n      iszero\n      tag_14\n      jumpi\n      0x00\n      dup1\n      revert\n    tag_14:\n      pop\n      tag_15\n      tag_16\n      jump\t// in\n    tag_15:\n      stop\n        /* \"contracts/FundMe2.sol\":1375:1411  uint256 public MINIMUMUSD = 2 * 1e18 */\n    tag_4:\n      callvalue\n      dup1\n      iszero\n      tag_17\n      jumpi\n      0x00\n      dup1\n      revert\n    tag_17:\n      pop\n      tag_18\n      tag_19\n      jump\t// in\n    tag_18:\n      mload(0x40)\n      tag_20\n      swap2\n      swap1\n      tag_13\n      jump\t// in\n    tag_20:\n      mload(0x40)\n      dup1\n      swap2\n      sub\n      swap1\n      return\n        /* \"contracts/FundMe2.sol\":1877:1897  address public owner */\n    tag_5:\n      callvalue\n      dup1\n      iszero\n      tag_21\n      jumpi\n      0x00\n      dup1\n      revert\n    tag_21:\n      pop\n      tag_22\n      tag_23\n      jump\t// in\n    tag_22:\n      mload(0x40)\n      tag_24\n      swap2\n      swap1\n      tag_25\n      jump\t// in\n    tag_24:\n      mload(0x40)\n      dup1\n      swap2\n      sub\n      swap1\n      return\n        /* \"contracts/FundMe2.sol\":2314:3006  function fund() public payable {... */\n    tag_6:\n      tag_26\n      tag_27\n      jump\t// in\n    tag_26:\n      stop\n        /* \"contracts/FundMe2.sol\":1816:1869  mapping(address => uint256) public addressAndFundsent */\n    tag_11:\n      mstore(0x20, 0x02)\n      dup1\n      0x00\n      mstore\n      keccak256(0x00, 0x40)\n      0x00\n      swap2\n      pop\n      swap1\n      pop\n      sload\n      dup2\n      jump\t// out\n        /* \"contracts/FundMe2.sol\":3012:4412  function withdraw() public onlyOwner{... */\n    tag_16:\n        /* \"contracts/FundMe2.sol\":4631:4641  msg.sender */\n      caller\n        /* \"contracts/FundMe2.sol\":4622:4641  owner == msg.sender */\n      0xffffffffffffffffffffffffffffffffffffffff\n      and\n        /* \"contracts/FundMe2.sol\":4622:4627  owner */\n      0x03\n      0x00\n      swap1\n      sload\n      swap1\n      0x0100\n      exp\n      swap1\n      div\n      0xffffffffffffffffffffffffffffffffffffffff\n      and\n        /* \"contracts/FundMe2.sol\":4622:4641  owner == msg.sender */\n      0xffffffffffffffffffffffffffffffffffffffff\n      and\n      eq\n        /* \"contracts/FundMe2.sol\":4614:4667  require(owner == msg.sender, \"Sender is not owner. \") */\n      tag_29\n      jumpi\n      mload(0x40)\n      0x08c379a000000000000000000000000000000000000000000000000000000000\n      dup2\n      mstore\n      0x04\n      add\n      tag_30\n      swap1\n      tag_31\n      jump\t// in\n    tag_30:\n      mload(0x40)\n      dup1\n      swap2\n      sub\n      swap1\n      revert\n    tag_29:\n        /* \"contracts/FundMe2.sol\":3064:3083  uint256 funderIndex */\n      0x00\n        /* \"contracts/FundMe2.sol\":3059:3239  for (uint256 funderIndex = 0; funderIndex < funders.length; funderIndex++){... */\n    tag_33:\n        /* \"contracts/FundMe2.sol\":3103:3110  funders */\n      0x01\n        /* \"contracts/FundMe2.sol\":3103:3117  funders.length */\n      dup1\n      sload\n      swap1\n      pop\n        /* \"contracts/FundMe2.sol\":3089:3100  funderIndex */\n      dup2\n        /* \"contracts/FundMe2.sol\":3089:3117  funderIndex < funders.length */\n      lt\n        /* \"contracts/FundMe2.sol\":3059:3239  for (uint256 funderIndex = 0; funderIndex < funders.length; funderIndex++){... */\n      iszero\n      tag_34\n      jumpi\n        /* \"contracts/FundMe2.sol\":3147:3161  address funder */\n      0x00\n        /* \"contracts/FundMe2.sol\":3164:3171  funders */\n      0x01\n        /* \"contracts/FundMe2.sol\":3172:3183  funderIndex */\n      dup3\n        /* \"contracts/FundMe2.sol\":3164:3184  funders[funderIndex] */\n      dup2\n      sload\n      dup2\n      lt\n      tag_36\n      jumpi\n      tag_37\n      tag_38\n      jump\t// in\n    tag_37:\n    tag_36:\n      swap1\n      0x00\n      mstore\n      keccak256(0x00, 0x20)\n      add\n      0x00\n      swap1\n      sload\n      swap1\n      0x0100\n      exp\n      swap1\n      div\n      0xffffffffffffffffffffffffffffffffffffffff\n      and\n        /* \"contracts/FundMe2.sol\":3147:3184  address funder = funders[funderIndex] */\n      swap1\n      pop\n        /* \"contracts/FundMe2.sol\":3227:3228  0 */\n      0x00\n        /* \"contracts/FundMe2.sol\":3198:3216  addressAndFundsent */\n      0x02\n        /* \"contracts/FundMe2.sol\":3198:3224  addressAndFundsent[funder] */\n      0x00\n        /* \"contracts/FundMe2.sol\":3217:3223  funder */\n      dup4\n        /* \"contracts/FundMe2.sol\":3198:3224  addressAndFundsent[funder] */\n      0xffffffffffffffffffffffffffffffffffffffff\n      and\n      0xffffffffffffffffffffffffffffffffffffffff\n      and\n      dup2\n      mstore\n      0x20\n      add\n      swap1\n      dup2\n      mstore\n      0x20\n      add\n      0x00\n      keccak256\n        /* \"contracts/FundMe2.sol\":3198:3228  addressAndFundsent[funder] = 0 */\n      dup2\n      swap1\n      sstore\n      pop\n        /* \"contracts/FundMe2.sol\":3133:3239  {... */\n      pop\n        /* \"contracts/FundMe2.sol\":3119:3132  funderIndex++ */\n      dup1\n      dup1\n      0x01\n      add\n      swap2\n      pop\n      pop\n        /* \"contracts/FundMe2.sol\":3059:3239  for (uint256 funderIndex = 0; funderIndex < funders.length; funderIndex++){... */\n      jump(tag_33)\n    tag_34:\n      pop\n        /* \"contracts/FundMe2.sol\":3272:3273  0 */\n      0x00\n        /* \"contracts/FundMe2.sol\":3258:3274  new address[](0) */\n      0xffffffffffffffff\n      dup2\n      gt\n      iszero\n      tag_40\n      jumpi\n      tag_41\n      tag_42\n      jump\t// in\n    tag_41:\n    tag_40:\n      mload(0x40)\n      swap1\n      dup1\n      dup3\n      mstore\n      dup1\n      0x20\n      mul\n      0x20\n      add\n      dup3\n      add\n      0x40\n      mstore\n      dup1\n      iszero\n      tag_43\n      jumpi\n      dup2\n      0x20\n      add\n      0x20\n      dup3\n      mul\n      dup1\n      calldatasize\n      dup4\n      calldatacopy\n      dup1\n      dup3\n      add\n      swap2\n      pop\n      pop\n      swap1\n      pop\n    tag_43:\n      pop\n        /* \"contracts/FundMe2.sol\":3248:3255  funders */\n      0x01\n        /* \"contracts/FundMe2.sol\":3248:3274  funders = new address[](0) */\n      swap1\n      dup1\n      mload\n      swap1\n      0x20\n      add\n      swap1\n      tag_44\n      swap3\n      swap2\n      swap1\n      tag_45\n      jump\t// in\n    tag_44:\n      pop\n        /* \"contracts/FundMe2.sol\":4278:4294  bool callSuccess */\n      0x00\n        /* \"contracts/FundMe2.sol\":4308:4318  msg.sender */\n      caller\n        /* \"contracts/FundMe2.sol\":4300:4324  payable(msg.sender).call */\n      0xffffffffffffffffffffffffffffffffffffffff\n      and\n        /* \"contracts/FundMe2.sol\":4332:4353  address(this).balance */\n      selfbalance\n        /* \"contracts/FundMe2.sol\":4300:4358  payable(msg.sender).call{value: address(this).balance}(\"\") */\n      mload(0x40)\n      tag_46\n      swap1\n      tag_47\n      jump\t// in\n    tag_46:\n      0x00\n      mload(0x40)\n      dup1\n      dup4\n      sub\n      dup2\n      dup6\n      dup8\n      gas\n      call\n      swap3\n      pop\n      pop\n      pop\n      returndatasize\n      dup1\n      0x00\n      dup2\n      eq\n      tag_50\n      jumpi\n      mload(0x40)\n      swap2\n      pop\n      and(add(returndatasize, 0x3f), not(0x1f))\n      dup3\n      add\n      0x40\n      mstore\n      returndatasize\n      dup3\n      mstore\n      returndatasize\n      0x00\n      0x20\n      dup5\n      add\n      returndatacopy\n      jump(tag_49)\n    tag_50:\n      0x60\n      swap2\n      pop\n    tag_49:\n      pop\n        /* \"contracts/FundMe2.sol\":4277:4358  (bool callSuccess, ) = payable(msg.sender).call{value: address(this).balance}(\"\") */\n      pop\n      swap1\n      pop\n        /* \"contracts/FundMe2.sol\":4376:4387  callSuccess */\n      dup1\n        /* \"contracts/FundMe2.sol\":4368:4405  require(callSuccess, \"Call failed. \") */\n      tag_51\n      jumpi\n      mload(0x40)\n      0x08c379a000000000000000000000000000000000000000000000000000000000\n      dup2\n      mstore\n      0x04\n      add\n      tag_52\n      swap1\n      tag_53\n      jump\t// in\n    tag_52:\n      mload(0x40)\n      dup1\n      swap2\n      sub\n      swap1\n      revert\n    tag_51:\n        /* \"contracts/FundMe2.sol\":3048:4412  {... */\n      pop\n        /* \"contracts/FundMe2.sol\":3012:4412  function withdraw() public onlyOwner{... */\n      jump\t// out\n        /* \"contracts/FundMe2.sol\":1375:1411  uint256 public MINIMUMUSD = 2 * 1e18 */\n    tag_19:\n      sload(0x00)\n      dup2\n      jump\t// out\n        /* \"contracts/FundMe2.sol\":1877:1897  address public owner */\n    tag_23:\n      0x03\n      0x00\n      swap1\n      sload\n      swap1\n      0x0100\n      exp\n      swap1\n      div\n      0xffffffffffffffffffffffffffffffffffffffff\n      and\n      dup2\n      jump\t// out\n        /* \"contracts/FundMe2.sol\":2314:3006  function fund() public payable {... */\n    tag_27:\n        /* \"contracts/FundMe2.sol\":2802:2812  MINIMUMUSD */\n      sload(0x00)\n        /* \"contracts/FundMe2.sol\":2769:2798  msg.value.getConversionRate() */\n      tag_55\n        /* \"contracts/FundMe2.sol\":2769:2778  msg.value */\n      callvalue\n        /* \"contracts/FundMe2.sol\":2769:2796  msg.value.getConversionRate */\n      tag_56\n        /* \"contracts/FundMe2.sol\":2769:2798  msg.value.getConversionRate() */\n      jump\t// in\n    tag_55:\n        /* \"contracts/FundMe2.sol\":2769:2812  msg.value.getConversionRate() >= MINIMUMUSD */\n      lt\n      iszero\n        /* \"contracts/FundMe2.sol\":2760:2855  require (msg.value.getConversionRate() >= MINIMUMUSD, \"Did not send enough Eth, now reverted.\") */\n      tag_57\n      jumpi\n      mload(0x40)\n      0x08c379a000000000000000000000000000000000000000000000000000000000\n      dup2\n      mstore\n      0x04\n      add\n      tag_58\n      swap1\n      tag_59\n      jump\t// in\n    tag_58:\n      mload(0x40)\n      dup1\n      swap2\n      sub\n      swap1\n      revert\n    tag_57:\n        /* \"contracts/FundMe2.sol\":2923:2930  funders */\n      0x01\n        /* \"contracts/FundMe2.sol\":2936:2946  msg.sender */\n      caller\n        /* \"contracts/FundMe2.sol\":2923:2947  funders.push(msg.sender) */\n      swap1\n      dup1\n      0x01\n      dup2\n      sload\n      add\n      dup1\n      dup3\n      sstore\n      dup1\n      swap2\n      pop\n      pop\n      0x01\n      swap1\n      sub\n      swap1\n      0x00\n      mstore\n      keccak256(0x00, 0x20)\n      add\n      0x00\n      swap1\n      swap2\n      swap1\n      swap2\n      swap1\n      swap2\n      0x0100\n      exp\n      dup2\n      sload\n      dup2\n      0xffffffffffffffffffffffffffffffffffffffff\n      mul\n      not\n      and\n      swap1\n      dup4\n      0xffffffffffffffffffffffffffffffffffffffff\n      and\n      mul\n      or\n      swap1\n      sstore\n      pop\n        /* \"contracts/FundMe2.sol\":2990:2999  msg.value */\n      callvalue\n        /* \"contracts/FundMe2.sol\":2957:2975  addressAndFundsent */\n      0x02\n        /* \"contracts/FundMe2.sol\":2957:2987  addressAndFundsent[msg.sender] */\n      0x00\n        /* \"contracts/FundMe2.sol\":2976:2986  msg.sender */\n      caller\n        /* \"contracts/FundMe2.sol\":2957:2987  addressAndFundsent[msg.sender] */\n      0xffffffffffffffffffffffffffffffffffffffff\n      and\n      0xffffffffffffffffffffffffffffffffffffffff\n      and\n      dup2\n      mstore\n      0x20\n      add\n      swap1\n      dup2\n      mstore\n      0x20\n      add\n      0x00\n      keccak256\n        /* \"contracts/FundMe2.sol\":2957:2999  addressAndFundsent[msg.sender] = msg.value */\n      dup2\n      swap1\n      sstore\n      pop\n        /* \"contracts/FundMe2.sol\":2314:3006  function fund() public payable {... */\n      jump\t// out\n        /* \"contracts/PriceConverter.sol\":2420:2638  function getConversionRate(uint256 ethAmount) internal view returns (uint256){... */\n    tag_56:\n        /* \"contracts/PriceConverter.sol\":2489:2496  uint256 */\n      0x00\n        /* \"contracts/PriceConverter.sol\":2507:2523  uint256 ethPrice */\n      dup1\n        /* \"contracts/PriceConverter.sol\":2526:2536  getPrice() */\n      tag_62\n        /* \"contracts/PriceConverter.sol\":2526:2534  getPrice */\n      tag_63\n        /* \"contracts/PriceConverter.sol\":2526:2536  getPrice() */\n      jump\t// in\n    tag_62:\n        /* \"contracts/PriceConverter.sol\":2507:2536  uint256 ethPrice = getPrice() */\n      swap1\n      pop\n        /* \"contracts/PriceConverter.sol\":2546:2568  uint256 ethAmountInUsd */\n      0x00\n        /* \"contracts/PriceConverter.sol\":2596:2600  1e18 */\n      0x0de0b6b3a7640000\n        /* \"contracts/PriceConverter.sol\":2583:2592  ethAmount */\n      dup5\n        /* \"contracts/PriceConverter.sol\":2572:2580  ethPrice */\n      dup4\n        /* \"contracts/PriceConverter.sol\":2572:2592  ethPrice * ethAmount */\n      tag_64\n      swap2\n      swap1\n      tag_65\n      jump\t// in\n    tag_64:\n        /* \"contracts/PriceConverter.sol\":2571:2600  (ethPrice * ethAmount) / 1e18 */\n      tag_66\n      swap2\n      swap1\n      tag_67\n      jump\t// in\n    tag_66:\n        /* \"contracts/PriceConverter.sol\":2546:2600  uint256 ethAmountInUsd = (ethPrice * ethAmount) / 1e18 */\n      swap1\n      pop\n        /* \"contracts/PriceConverter.sol\":2617:2631  ethAmountInUsd */\n      dup1\n        /* \"contracts/PriceConverter.sol\":2610:2631  return ethAmountInUsd */\n      swap3\n      pop\n      pop\n      pop\n        /* \"contracts/PriceConverter.sol\":2420:2638  function getConversionRate(uint256 ethAmount) internal view returns (uint256){... */\n      swap2\n      swap1\n      pop\n      jump\t// out\n        /* \"contracts/PriceConverter.sol\":860:2370  function getPrice() internal view returns (uint256) {... */\n    tag_63:\n        /* \"contracts/PriceConverter.sol\":903:910  uint256 */\n      0x00\n        /* \"contracts/PriceConverter.sol\":1227:1258  AggregatorV3Interface priceFeed */\n      dup1\n        /* \"contracts/PriceConverter.sol\":1283:1325  0x694AA1769357215DE4FAC081bf1f309aDC325306 */\n      0x694aa1769357215de4fac081bf1f309adc325306\n        /* \"contracts/PriceConverter.sol\":1227:1326  AggregatorV3Interface priceFeed = AggregatorV3Interface(0x694AA1769357215DE4FAC081bf1f309aDC325306) */\n      swap1\n      pop\n        /* \"contracts/PriceConverter.sol\":1992:2004  int256 price */\n      0x00\n        /* \"contracts/PriceConverter.sol\":2011:2020  priceFeed */\n      dup2\n        /* \"contracts/PriceConverter.sol\":2011:2036  priceFeed.latestRoundData */\n      0xffffffffffffffffffffffffffffffffffffffff\n      and\n      0xfeaf968c\n        /* \"contracts/PriceConverter.sol\":2011:2038  priceFeed.latestRoundData() */\n      mload(0x40)\n      dup2\n      0xffffffff\n      and\n      0xe0\n      shl\n      dup2\n      mstore\n      0x04\n      add\n      0xa0\n      mload(0x40)\n      dup1\n      dup4\n      sub\n      dup2\n      dup7\n      gas\n      staticcall\n      iszero\n      dup1\n      iszero\n      tag_70\n      jumpi\n      returndatasize\n      0x00\n      dup1\n      returndatacopy\n      revert(0x00, returndatasize)\n    tag_70:\n      pop\n      pop\n      pop\n      pop\n      mload(0x40)\n      returndatasize\n      not(0x1f)\n      0x1f\n      dup3\n      add\n      and\n      dup3\n      add\n      dup1\n      0x40\n      mstore\n      pop\n      dup2\n      add\n      swap1\n      tag_71\n      swap2\n      swap1\n      tag_72\n      jump\t// in\n    tag_71:\n        /* \"contracts/PriceConverter.sol\":1990:2038  (,int256 price,,,) = priceFeed.latestRoundData() */\n      pop\n      pop\n      pop\n      swap2\n      pop\n      pop\n        /* \"contracts/PriceConverter.sol\":2071:2075  1e10 */\n      0x02540be400\n        /* \"contracts/PriceConverter.sol\":2063:2068  price */\n      dup2\n        /* \"contracts/PriceConverter.sol\":2063:2075  price * 1e10 */\n      tag_73\n      swap2\n      swap1\n      tag_74\n      jump\t// in\n    tag_73:\n        /* \"contracts/PriceConverter.sol\":2048:2076  return uint256(price * 1e10) */\n      swap3\n      pop\n      pop\n      pop\n        /* \"contracts/PriceConverter.sol\":860:2370  function getPrice() internal view returns (uint256) {... */\n      swap1\n      jump\t// out\n    tag_45:\n      dup3\n      dup1\n      sload\n      dup3\n      dup3\n      sstore\n      swap1\n      0x00\n      mstore\n      keccak256(0x00, 0x20)\n      swap1\n      dup2\n      add\n      swap3\n      dup3\n      iszero\n      tag_75\n      jumpi\n      swap2\n      0x20\n      mul\n      dup3\n      add\n    tag_76:\n      dup3\n      dup2\n      gt\n      iszero\n      tag_77\n      jumpi\n      dup3\n      mload\n      dup3\n      exp(0x0100, 0x00)\n      dup2\n      sload\n      dup2\n      0xffffffffffffffffffffffffffffffffffffffff\n      mul\n      not\n      and\n      swap1\n      dup4\n      0xffffffffffffffffffffffffffffffffffffffff\n      and\n      mul\n      or\n      swap1\n      sstore\n      pop\n      swap2\n      0x20\n      add\n      swap2\n      swap1\n      0x01\n      add\n      swap1\n      jump(tag_76)\n    tag_77:\n    tag_75:\n      pop\n      swap1\n      pop\n      tag_78\n      swap2\n      swap1\n      tag_79\n      jump\t// in\n    tag_78:\n      pop\n      swap1\n      jump\t// out\n    tag_79:\n    tag_80:\n      dup1\n      dup3\n      gt\n      iszero\n      tag_81\n      jumpi\n      0x00\n      dup2\n      0x00\n      swap1\n      sstore\n      pop\n      0x01\n      add\n      jump(tag_80)\n    tag_81:\n      pop\n      swap1\n      jump\t// out\n        /* \"#utility.yul\":88:205   */\n    tag_83:\n        /* \"#utility.yul\":197:198   */\n      0x00\n        /* \"#utility.yul\":194:195   */\n      dup1\n        /* \"#utility.yul\":187:199   */\n      revert\n        /* \"#utility.yul\":334:460   */\n    tag_85:\n        /* \"#utility.yul\":371:378   */\n      0x00\n        /* \"#utility.yul\":411:453   */\n      0xffffffffffffffffffffffffffffffffffffffff\n        /* \"#utility.yul\":404:409   */\n      dup3\n        /* \"#utility.yul\":400:454   */\n      and\n        /* \"#utility.yul\":389:454   */\n      swap1\n      pop\n        /* \"#utility.yul\":334:460   */\n      swap2\n      swap1\n      pop\n      jump\t// out\n        /* \"#utility.yul\":466:562   */\n    tag_86:\n        /* \"#utility.yul\":503:510   */\n      0x00\n        /* \"#utility.yul\":532:556   */\n      tag_118\n        /* \"#utility.yul\":550:555   */\n      dup3\n        /* \"#utility.yul\":532:556   */\n      tag_85\n      jump\t// in\n    tag_118:\n        /* \"#utility.yul\":521:556   */\n      swap1\n      pop\n        /* \"#utility.yul\":466:562   */\n      swap2\n      swap1\n      pop\n      jump\t// out\n        /* \"#utility.yul\":568:690   */\n    tag_87:\n        /* \"#utility.yul\":641:665   */\n      tag_120\n        /* \"#utility.yul\":659:664   */\n      dup2\n        /* \"#utility.yul\":641:665   */\n      tag_86\n      jump\t// in\n    tag_120:\n        /* \"#utility.yul\":634:639   */\n      dup2\n        /* \"#utility.yul\":631:666   */\n      eq\n        /* \"#utility.yul\":621:684   */\n      tag_121\n      jumpi\n        /* \"#utility.yul\":680:681   */\n      0x00\n        /* \"#utility.yul\":677:678   */\n      dup1\n        /* \"#utility.yul\":670:682   */\n      revert\n        /* \"#utility.yul\":621:684   */\n    tag_121:\n        /* \"#utility.yul\":568:690   */\n      pop\n      jump\t// out\n        /* \"#utility.yul\":696:835   */\n    tag_88:\n        /* \"#utility.yul\":742:747   */\n      0x00\n        /* \"#utility.yul\":780:786   */\n      dup2\n        /* \"#utility.yul\":767:787   */\n      calldataload\n        /* \"#utility.yul\":758:787   */\n      swap1\n      pop\n        /* \"#utility.yul\":796:829   */\n      tag_123\n        /* \"#utility.yul\":823:828   */\n      dup2\n        /* \"#utility.yul\":796:829   */\n      tag_87\n      jump\t// in\n    tag_123:\n        /* \"#utility.yul\":696:835   */\n      swap3\n      swap2\n      pop\n      pop\n      jump\t// out\n        /* \"#utility.yul\":841:1170   */\n    tag_10:\n        /* \"#utility.yul\":900:906   */\n      0x00\n        /* \"#utility.yul\":949:951   */\n      0x20\n        /* \"#utility.yul\":937:946   */\n      dup3\n        /* \"#utility.yul\":928:935   */\n      dup5\n        /* \"#utility.yul\":924:947   */\n      sub\n        /* \"#utility.yul\":920:952   */\n      slt\n        /* \"#utility.yul\":917:1036   */\n      iszero\n      tag_125\n      jumpi\n        /* \"#utility.yul\":955:1034   */\n      tag_126\n      tag_83\n      jump\t// in\n    tag_126:\n        /* \"#utility.yul\":917:1036   */\n    tag_125:\n        /* \"#utility.yul\":1075:1076   */\n      0x00\n        /* \"#utility.yul\":1100:1153   */\n      tag_127\n        /* \"#utility.yul\":1145:1152   */\n      dup5\n        /* \"#utility.yul\":1136:1142   */\n      dup3\n        /* \"#utility.yul\":1125:1134   */\n      dup6\n        /* \"#utility.yul\":1121:1143   */\n      add\n        /* \"#utility.yul\":1100:1153   */\n      tag_88\n      jump\t// in\n    tag_127:\n        /* \"#utility.yul\":1090:1153   */\n      swap2\n      pop\n        /* \"#utility.yul\":1046:1163   */\n      pop\n        /* \"#utility.yul\":841:1170   */\n      swap3\n      swap2\n      pop\n      pop\n      jump\t// out\n        /* \"#utility.yul\":1176:1253   */\n    tag_89:\n        /* \"#utility.yul\":1213:1220   */\n      0x00\n        /* \"#utility.yul\":1242:1247   */\n      dup2\n        /* \"#utility.yul\":1231:1247   */\n      swap1\n      pop\n        /* \"#utility.yul\":1176:1253   */\n      swap2\n      swap1\n      pop\n      jump\t// out\n        /* \"#utility.yul\":1259:1377   */\n    tag_90:\n        /* \"#utility.yul\":1346:1370   */\n      tag_130\n        /* \"#utility.yul\":1364:1369   */\n      dup2\n        /* \"#utility.yul\":1346:1370   */\n      tag_89\n      jump\t// in\n    tag_130:\n        /* \"#utility.yul\":1341:1344   */\n      dup3\n        /* \"#utility.yul\":1334:1371   */\n      mstore\n        /* \"#utility.yul\":1259:1377   */\n      pop\n      pop\n      jump\t// out\n        /* \"#utility.yul\":1383:1605   */\n    tag_13:\n        /* \"#utility.yul\":1476:1480   */\n      0x00\n        /* \"#utility.yul\":1514:1516   */\n      0x20\n        /* \"#utility.yul\":1503:1512   */\n      dup3\n        /* \"#utility.yul\":1499:1517   */\n      add\n        /* \"#utility.yul\":1491:1517   */\n      swap1\n      pop\n        /* \"#utility.yul\":1527:1598   */\n      tag_132\n        /* \"#utility.yul\":1595:1596   */\n      0x00\n        /* \"#utility.yul\":1584:1593   */\n      dup4\n        /* \"#utility.yul\":1580:1597   */\n      add\n        /* \"#utility.yul\":1571:1577   */\n      dup5\n        /* \"#utility.yul\":1527:1598   */\n      tag_90\n      jump\t// in\n    tag_132:\n        /* \"#utility.yul\":1383:1605   */\n      swap3\n      swap2\n      pop\n      pop\n      jump\t// out\n        /* \"#utility.yul\":1611:1729   */\n    tag_91:\n        /* \"#utility.yul\":1698:1722   */\n      tag_134\n        /* \"#utility.yul\":1716:1721   */\n      dup2\n        /* \"#utility.yul\":1698:1722   */\n      tag_86\n      jump\t// in\n    tag_134:\n        /* \"#utility.yul\":1693:1696   */\n      dup3\n        /* \"#utility.yul\":1686:1723   */\n      mstore\n        /* \"#utility.yul\":1611:1729   */\n      pop\n      pop\n      jump\t// out\n        /* \"#utility.yul\":1735:1957   */\n    tag_25:\n        /* \"#utility.yul\":1828:1832   */\n      0x00\n        /* \"#utility.yul\":1866:1868   */\n      0x20\n        /* \"#utility.yul\":1855:1864   */\n      dup3\n        /* \"#utility.yul\":1851:1869   */\n      add\n        /* \"#utility.yul\":1843:1869   */\n      swap1\n      pop\n        /* \"#utility.yul\":1879:1950   */\n      tag_136\n        /* \"#utility.yul\":1947:1948   */\n      0x00\n        /* \"#utility.yul\":1936:1945   */\n      dup4\n        /* \"#utility.yul\":1932:1949   */\n      add\n        /* \"#utility.yul\":1923:1929   */\n      dup5\n        /* \"#utility.yul\":1879:1950   */\n      tag_91\n      jump\t// in\n    tag_136:\n        /* \"#utility.yul\":1735:1957   */\n      swap3\n      swap2\n      pop\n      pop\n      jump\t// out\n        /* \"#utility.yul\":1963:2132   */\n    tag_92:\n        /* \"#utility.yul\":2047:2058   */\n      0x00\n        /* \"#utility.yul\":2081:2087   */\n      dup3\n        /* \"#utility.yul\":2076:2079   */\n      dup3\n        /* \"#utility.yul\":2069:2088   */\n      mstore\n        /* \"#utility.yul\":2121:2125   */\n      0x20\n        /* \"#utility.yul\":2116:2119   */\n      dup3\n        /* \"#utility.yul\":2112:2126   */\n      add\n        /* \"#utility.yul\":2097:2126   */\n      swap1\n      pop\n        /* \"#utility.yul\":1963:2132   */\n      swap3\n      swap2\n      pop\n      pop\n      jump\t// out\n        /* \"#utility.yul\":2138:2309   */\n    tag_93:\n        /* \"#utility.yul\":2278:2301   */\n      0x53656e646572206973206e6f74206f776e65722e200000000000000000000000\n        /* \"#utility.yul\":2274:2275   */\n      0x00\n        /* \"#utility.yul\":2266:2272   */\n      dup3\n        /* \"#utility.yul\":2262:2276   */\n      add\n        /* \"#utility.yul\":2255:2302   */\n      mstore\n        /* \"#utility.yul\":2138:2309   */\n      pop\n      jump\t// out\n        /* \"#utility.yul\":2315:2681   */\n    tag_94:\n        /* \"#utility.yul\":2457:2460   */\n      0x00\n        /* \"#utility.yul\":2478:2545   */\n      tag_140\n        /* \"#utility.yul\":2542:2544   */\n      0x15\n        /* \"#utility.yul\":2537:2540   */\n      dup4\n        /* \"#utility.yul\":2478:2545   */\n      tag_92\n      jump\t// in\n    tag_140:\n        /* \"#utility.yul\":2471:2545   */\n      swap2\n      pop\n        /* \"#utility.yul\":2554:2647   */\n      tag_141\n        /* \"#utility.yul\":2643:2646   */\n      dup3\n        /* \"#utility.yul\":2554:2647   */\n      tag_93\n      jump\t// in\n    tag_141:\n        /* \"#utility.yul\":2672:2674   */\n      0x20\n        /* \"#utility.yul\":2667:2670   */\n      dup3\n        /* \"#utility.yul\":2663:2675   */\n      add\n        /* \"#utility.yul\":2656:2675   */\n      swap1\n      pop\n        /* \"#utility.yul\":2315:2681   */\n      swap2\n      swap1\n      pop\n      jump\t// out\n        /* \"#utility.yul\":2687:3106   */\n    tag_31:\n        /* \"#utility.yul\":2853:2857   */\n      0x00\n        /* \"#utility.yul\":2891:2893   */\n      0x20\n        /* \"#utility.yul\":2880:2889   */\n      dup3\n        /* \"#utility.yul\":2876:2894   */\n      add\n        /* \"#utility.yul\":2868:2894   */\n      swap1\n      pop\n        /* \"#utility.yul\":2940:2949   */\n      dup2\n        /* \"#utility.yul\":2934:2938   */\n      dup2\n        /* \"#utility.yul\":2930:2950   */\n      sub\n        /* \"#utility.yul\":2926:2927   */\n      0x00\n        /* \"#utility.yul\":2915:2924   */\n      dup4\n        /* \"#utility.yul\":2911:2928   */\n      add\n        /* \"#utility.yul\":2904:2951   */\n      mstore\n        /* \"#utility.yul\":2968:3099   */\n      tag_143\n        /* \"#utility.yul\":3094:3098   */\n      dup2\n        /* \"#utility.yul\":2968:3099   */\n      tag_94\n      jump\t// in\n    tag_143:\n        /* \"#utility.yul\":2960:3099   */\n      swap1\n      pop\n        /* \"#utility.yul\":2687:3106   */\n      swap2\n      swap1\n      pop\n      jump\t// out\n        /* \"#utility.yul\":3112:3292   */\n    tag_38:\n        /* \"#utility.yul\":3160:3237   */\n      0x4e487b7100000000000000000000000000000000000000000000000000000000\n        /* \"#utility.yul\":3157:3158   */\n      0x00\n        /* \"#utility.yul\":3150:3238   */\n      mstore\n        /* \"#utility.yul\":3257:3261   */\n      0x32\n        /* \"#utility.yul\":3254:3255   */\n      0x04\n        /* \"#utility.yul\":3247:3262   */\n      mstore\n        /* \"#utility.yul\":3281:3285   */\n      0x24\n        /* \"#utility.yul\":3278:3279   */\n      0x00\n        /* \"#utility.yul\":3271:3286   */\n      revert\n        /* \"#utility.yul\":3298:3478   */\n    tag_42:\n        /* \"#utility.yul\":3346:3423   */\n      0x4e487b7100000000000000000000000000000000000000000000000000000000\n        /* \"#utility.yul\":3343:3344   */\n      0x00\n        /* \"#utility.yul\":3336:3424   */\n      mstore\n        /* \"#utility.yul\":3443:3447   */\n      0x41\n        /* \"#utility.yul\":3440:3441   */\n      0x04\n        /* \"#utility.yul\":3433:3448   */\n      mstore\n        /* \"#utility.yul\":3467:3471   */\n      0x24\n        /* \"#utility.yul\":3464:3465   */\n      0x00\n        /* \"#utility.yul\":3457:3472   */\n      revert\n        /* \"#utility.yul\":3484:3631   */\n    tag_95:\n        /* \"#utility.yul\":3585:3596   */\n      0x00\n        /* \"#utility.yul\":3622:3625   */\n      dup2\n        /* \"#utility.yul\":3607:3625   */\n      swap1\n      pop\n        /* \"#utility.yul\":3484:3631   */\n      swap3\n      swap2\n      pop\n      pop\n      jump\t// out\n        /* \"#utility.yul\":3637:3751   */\n    tag_96:\n      pop\n      jump\t// out\n        /* \"#utility.yul\":3757:4155   */\n    tag_97:\n        /* \"#utility.yul\":3916:3919   */\n      0x00\n        /* \"#utility.yul\":3937:4020   */\n      tag_149\n        /* \"#utility.yul\":4018:4019   */\n      0x00\n        /* \"#utility.yul\":4013:4016   */\n      dup4\n        /* \"#utility.yul\":3937:4020   */\n      tag_95\n      jump\t// in\n    tag_149:\n        /* \"#utility.yul\":3930:4020   */\n      swap2\n      pop\n        /* \"#utility.yul\":4029:4122   */\n      tag_150\n        /* \"#utility.yul\":4118:4121   */\n      dup3\n        /* \"#utility.yul\":4029:4122   */\n      tag_96\n      jump\t// in\n    tag_150:\n        /* \"#utility.yul\":4147:4148   */\n      0x00\n        /* \"#utility.yul\":4142:4145   */\n      dup3\n        /* \"#utility.yul\":4138:4149   */\n      add\n        /* \"#utility.yul\":4131:4149   */\n      swap1\n      pop\n        /* \"#utility.yul\":3757:4155   */\n      swap2\n      swap1\n      pop\n      jump\t// out\n        /* \"#utility.yul\":4161:4540   */\n    tag_47:\n        /* \"#utility.yul\":4345:4348   */\n      0x00\n        /* \"#utility.yul\":4367:4514   */\n      tag_152\n        /* \"#utility.yul\":4510:4513   */\n      dup3\n        /* \"#utility.yul\":4367:4514   */\n      tag_97\n      jump\t// in\n    tag_152:\n        /* \"#utility.yul\":4360:4514   */\n      swap2\n      pop\n        /* \"#utility.yul\":4531:4534   */\n      dup2\n        /* \"#utility.yul\":4524:4534   */\n      swap1\n      pop\n        /* \"#utility.yul\":4161:4540   */\n      swap2\n      swap1\n      pop\n      jump\t// out\n        /* \"#utility.yul\":4546:4709   */\n    tag_98:\n        /* \"#utility.yul\":4686:4701   */\n      0x43616c6c206661696c65642e2000000000000000000000000000000000000000\n        /* \"#utility.yul\":4682:4683   */\n      0x00\n        /* \"#utility.yul\":4674:4680   */\n      dup3\n        /* \"#utility.yul\":4670:4684   */\n      add\n        /* \"#utility.yul\":4663:4702   */\n      mstore\n        /* \"#utility.yul\":4546:4709   */\n      pop\n      jump\t// out\n        /* \"#utility.yul\":4715:5081   */\n    tag_99:\n        /* \"#utility.yul\":4857:4860   */\n      0x00\n        /* \"#utility.yul\":4878:4945   */\n      tag_155\n        /* \"#utility.yul\":4942:4944   */\n      0x0d\n        /* \"#utility.yul\":4937:4940   */\n      dup4\n        /* \"#utility.yul\":4878:4945   */\n      tag_92\n      jump\t// in\n    tag_155:\n        /* \"#utility.yul\":4871:4945   */\n      swap2\n      pop\n        /* \"#utility.yul\":4954:5047   */\n      tag_156\n        /* \"#utility.yul\":5043:5046   */\n      dup3\n        /* \"#utility.yul\":4954:5047   */\n      tag_98\n      jump\t// in\n    tag_156:\n        /* \"#utility.yul\":5072:5074   */\n      0x20\n        /* \"#utility.yul\":5067:5070   */\n      dup3\n        /* \"#utility.yul\":5063:5075   */\n      add\n        /* \"#utility.yul\":5056:5075   */\n      swap1\n      pop\n        /* \"#utility.yul\":4715:5081   */\n      swap2\n      swap1\n      pop\n      jump\t// out\n        /* \"#utility.yul\":5087:5506   */\n    tag_53:\n        /* \"#utility.yul\":5253:5257   */\n      0x00\n        /* \"#utility.yul\":5291:5293   */\n      0x20\n        /* \"#utility.yul\":5280:5289   */\n      dup3\n        /* \"#utility.yul\":5276:5294   */\n      add\n        /* \"#utility.yul\":5268:5294   */\n      swap1\n      pop\n        /* \"#utility.yul\":5340:5349   */\n      dup2\n        /* \"#utility.yul\":5334:5338   */\n      dup2\n        /* \"#utility.yul\":5330:5350   */\n      sub\n        /* \"#utility.yul\":5326:5327   */\n      0x00\n        /* \"#utility.yul\":5315:5324   */\n      dup4\n        /* \"#utility.yul\":5311:5328   */\n      add\n        /* \"#utility.yul\":5304:5351   */\n      mstore\n        /* \"#utility.yul\":5368:5499   */\n      tag_158\n        /* \"#utility.yul\":5494:5498   */\n      dup2\n        /* \"#utility.yul\":5368:5499   */\n      tag_99\n      jump\t// in\n    tag_158:\n        /* \"#utility.yul\":5360:5499   */\n      swap1\n      pop\n        /* \"#utility.yul\":5087:5506   */\n      swap2\n      swap1\n      pop\n      jump\t// out\n        /* \"#utility.yul\":5512:5737   */\n    tag_100:\n        /* \"#utility.yul\":5652:5686   */\n      0x446964206e6f742073656e6420656e6f756768204574682c206e6f7720726576\n        /* \"#utility.yul\":5648:5649   */\n      0x00\n        /* \"#utility.yul\":5640:5646   */\n      dup3\n        /* \"#utility.yul\":5636:5650   */\n      add\n        /* \"#utility.yul\":5629:5687   */\n      mstore\n        /* \"#utility.yul\":5721:5729   */\n      0x65727465642e0000000000000000000000000000000000000000000000000000\n        /* \"#utility.yul\":5716:5718   */\n      0x20\n        /* \"#utility.yul\":5708:5714   */\n      dup3\n        /* \"#utility.yul\":5704:5719   */\n      add\n        /* \"#utility.yul\":5697:5730   */\n      mstore\n        /* \"#utility.yul\":5512:5737   */\n      pop\n      jump\t// out\n        /* \"#utility.yul\":5743:6109   */\n    tag_101:\n        /* \"#utility.yul\":5885:5888   */\n      0x00\n        /* \"#utility.yul\":5906:5973   */\n      tag_161\n        /* \"#utility.yul\":5970:5972   */\n      0x26\n        /* \"#utility.yul\":5965:5968   */\n      dup4\n        /* \"#utility.yul\":5906:5973   */\n      tag_92\n      jump\t// in\n    tag_161:\n        /* \"#utility.yul\":5899:5973   */\n      swap2\n      pop\n        /* \"#utility.yul\":5982:6075   */\n      tag_162\n        /* \"#utility.yul\":6071:6074   */\n      dup3\n        /* \"#utility.yul\":5982:6075   */\n      tag_100\n      jump\t// in\n    tag_162:\n        /* \"#utility.yul\":6100:6102   */\n      0x40\n        /* \"#utility.yul\":6095:6098   */\n      dup3\n        /* \"#utility.yul\":6091:6103   */\n      add\n        /* \"#utility.yul\":6084:6103   */\n      swap1\n      pop\n        /* \"#utility.yul\":5743:6109   */\n      swap2\n      swap1\n      pop\n      jump\t// out\n        /* \"#utility.yul\":6115:6534   */\n    tag_59:\n        /* \"#utility.yul\":6281:6285   */\n      0x00\n        /* \"#utility.yul\":6319:6321   */\n      0x20\n        /* \"#utility.yul\":6308:6317   */\n      dup3\n        /* \"#utility.yul\":6304:6322   */\n      add\n        /* \"#utility.yul\":6296:6322   */\n      swap1\n      pop\n        /* \"#utility.yul\":6368:6377   */\n      dup2\n        /* \"#utility.yul\":6362:6366   */\n      dup2\n        /* \"#utility.yul\":6358:6378   */\n      sub\n        /* \"#utility.yul\":6354:6355   */\n      0x00\n        /* \"#utility.yul\":6343:6352   */\n      dup4\n        /* \"#utility.yul\":6339:6356   */\n      add\n        /* \"#utility.yul\":6332:6379   */\n      mstore\n        /* \"#utility.yul\":6396:6527   */\n      tag_164\n        /* \"#utility.yul\":6522:6526   */\n      dup2\n        /* \"#utility.yul\":6396:6527   */\n      tag_101\n      jump\t// in\n    tag_164:\n        /* \"#utility.yul\":6388:6527   */\n      swap1\n      pop\n        /* \"#utility.yul\":6115:6534   */\n      swap2\n      swap1\n      pop\n      jump\t// out\n        /* \"#utility.yul\":6540:6720   */\n    tag_102:\n        /* \"#utility.yul\":6588:6665   */\n      0x4e487b7100000000000000000000000000000000000000000000000000000000\n        /* \"#utility.yul\":6585:6586   */\n      0x00\n        /* \"#utility.yul\":6578:6666   */\n      mstore\n        /* \"#utility.yul\":6685:6689   */\n      0x11\n        /* \"#utility.yul\":6682:6683   */\n      0x04\n        /* \"#utility.yul\":6675:6690   */\n      mstore\n        /* \"#utility.yul\":6709:6713   */\n      0x24\n        /* \"#utility.yul\":6706:6707   */\n      0x00\n        /* \"#utility.yul\":6699:6714   */\n      revert\n        /* \"#utility.yul\":6726:7136   */\n    tag_65:\n        /* \"#utility.yul\":6766:6773   */\n      0x00\n        /* \"#utility.yul\":6789:6809   */\n      tag_167\n        /* \"#utility.yul\":6807:6808   */\n      dup3\n        /* \"#utility.yul\":6789:6809   */\n      tag_89\n      jump\t// in\n    tag_167:\n        /* \"#utility.yul\":6784:6809   */\n      swap2\n      pop\n        /* \"#utility.yul\":6823:6843   */\n      tag_168\n        /* \"#utility.yul\":6841:6842   */\n      dup4\n        /* \"#utility.yul\":6823:6843   */\n      tag_89\n      jump\t// in\n    tag_168:\n        /* \"#utility.yul\":6818:6843   */\n      swap3\n      pop\n        /* \"#utility.yul\":6878:6879   */\n      dup3\n        /* \"#utility.yul\":6875:6876   */\n      dup3\n        /* \"#utility.yul\":6871:6880   */\n      mul\n        /* \"#utility.yul\":6900:6930   */\n      tag_169\n        /* \"#utility.yul\":6918:6929   */\n      dup2\n        /* \"#utility.yul\":6900:6930   */\n      tag_89\n      jump\t// in\n    tag_169:\n        /* \"#utility.yul\":6889:6930   */\n      swap2\n      pop\n        /* \"#utility.yul\":7079:7080   */\n      dup3\n        /* \"#utility.yul\":7070:7077   */\n      dup3\n        /* \"#utility.yul\":7066:7081   */\n      div\n        /* \"#utility.yul\":7063:7064   */\n      dup5\n        /* \"#utility.yul\":7060:7082   */\n      eq\n        /* \"#utility.yul\":7040:7041   */\n      dup4\n        /* \"#utility.yul\":7033:7042   */\n      iszero\n        /* \"#utility.yul\":7013:7096   */\n      or\n        /* \"#utility.yul\":6990:7129   */\n      tag_170\n      jumpi\n        /* \"#utility.yul\":7109:7127   */\n      tag_171\n      tag_102\n      jump\t// in\n    tag_171:\n        /* \"#utility.yul\":6990:7129   */\n    tag_170:\n        /* \"#utility.yul\":6774:7136   */\n      pop\n        /* \"#utility.yul\":6726:7136   */\n      swap3\n      swap2\n      pop\n      pop\n      jump\t// out\n        /* \"#utility.yul\":7142:7322   */\n    tag_103:\n        /* \"#utility.yul\":7190:7267   */\n      0x4e487b7100000000000000000000000000000000000000000000000000000000\n        /* \"#utility.yul\":7187:7188   */\n      0x00\n        /* \"#utility.yul\":7180:7268   */\n      mstore\n        /* \"#utility.yul\":7287:7291   */\n      0x12\n        /* \"#utility.yul\":7284:7285   */\n      0x04\n        /* \"#utility.yul\":7277:7292   */\n      mstore\n        /* \"#utility.yul\":7311:7315   */\n      0x24\n        /* \"#utility.yul\":7308:7309   */\n      0x00\n        /* \"#utility.yul\":7301:7316   */\n      revert\n        /* \"#utility.yul\":7328:7513   */\n    tag_67:\n        /* \"#utility.yul\":7368:7369   */\n      0x00\n        /* \"#utility.yul\":7385:7405   */\n      tag_174\n        /* \"#utility.yul\":7403:7404   */\n      dup3\n        /* \"#utility.yul\":7385:7405   */\n      tag_89\n      jump\t// in\n    tag_174:\n        /* \"#utility.yul\":7380:7405   */\n      swap2\n      pop\n        /* \"#utility.yul\":7419:7439   */\n      tag_175\n        /* \"#utility.yul\":7437:7438   */\n      dup4\n        /* \"#utility.yul\":7419:7439   */\n      tag_89\n      jump\t// in\n    tag_175:\n        /* \"#utility.yul\":7414:7439   */\n      swap3\n      pop\n        /* \"#utility.yul\":7458:7459   */\n      dup3\n        /* \"#utility.yul\":7448:7483   */\n      tag_176\n      jumpi\n        /* \"#utility.yul\":7463:7481   */\n      tag_177\n      tag_103\n      jump\t// in\n    tag_177:\n        /* \"#utility.yul\":7448:7483   */\n    tag_176:\n        /* \"#utility.yul\":7505:7506   */\n      dup3\n        /* \"#utility.yul\":7502:7503   */\n      dup3\n        /* \"#utility.yul\":7498:7507   */\n      div\n        /* \"#utility.yul\":7493:7507   */\n      swap1\n      pop\n        /* \"#utility.yul\":7328:7513   */\n      swap3\n      swap2\n      pop\n      pop\n      jump\t// out\n        /* \"#utility.yul\":7519:7624   */\n    tag_104:\n        /* \"#utility.yul\":7555:7562   */\n      0x00\n        /* \"#utility.yul\":7595:7617   */\n      0xffffffffffffffffffff\n        /* \"#utility.yul\":7588:7593   */\n      dup3\n        /* \"#utility.yul\":7584:7618   */\n      and\n        /* \"#utility.yul\":7573:7618   */\n      swap1\n      pop\n        /* \"#utility.yul\":7519:7624   */\n      swap2\n      swap1\n      pop\n      jump\t// out\n        /* \"#utility.yul\":7630:7750   */\n    tag_105:\n        /* \"#utility.yul\":7702:7725   */\n      tag_180\n        /* \"#utility.yul\":7719:7724   */\n      dup2\n        /* \"#utility.yul\":7702:7725   */\n      tag_104\n      jump\t// in\n    tag_180:\n        /* \"#utility.yul\":7695:7700   */\n      dup2\n        /* \"#utility.yul\":7692:7726   */\n      eq\n        /* \"#utility.yul\":7682:7744   */\n      tag_181\n      jumpi\n        /* \"#utility.yul\":7740:7741   */\n      0x00\n        /* \"#utility.yul\":7737:7738   */\n      dup1\n        /* \"#utility.yul\":7730:7742   */\n      revert\n        /* \"#utility.yul\":7682:7744   */\n    tag_181:\n        /* \"#utility.yul\":7630:7750   */\n      pop\n      jump\t// out\n        /* \"#utility.yul\":7756:7897   */\n    tag_106:\n        /* \"#utility.yul\":7812:7817   */\n      0x00\n        /* \"#utility.yul\":7843:7849   */\n      dup2\n        /* \"#utility.yul\":7837:7850   */\n      mload\n        /* \"#utility.yul\":7828:7850   */\n      swap1\n      pop\n        /* \"#utility.yul\":7859:7891   */\n      tag_183\n        /* \"#utility.yul\":7885:7890   */\n      dup2\n        /* \"#utility.yul\":7859:7891   */\n      tag_105\n      jump\t// in\n    tag_183:\n        /* \"#utility.yul\":7756:7897   */\n      swap3\n      swap2\n      pop\n      pop\n      jump\t// out\n        /* \"#utility.yul\":7903:7979   */\n    tag_107:\n        /* \"#utility.yul\":7939:7946   */\n      0x00\n        /* \"#utility.yul\":7968:7973   */\n      dup2\n        /* \"#utility.yul\":7957:7973   */\n      swap1\n      pop\n        /* \"#utility.yul\":7903:7979   */\n      swap2\n      swap1\n      pop\n      jump\t// out\n        /* \"#utility.yul\":7985:8105   */\n    tag_108:\n        /* \"#utility.yul\":8057:8080   */\n      tag_186\n        /* \"#utility.yul\":8074:8079   */\n      dup2\n        /* \"#utility.yul\":8057:8080   */\n      tag_107\n      jump\t// in\n    tag_186:\n        /* \"#utility.yul\":8050:8055   */\n      dup2\n        /* \"#utility.yul\":8047:8081   */\n      eq\n        /* \"#utility.yul\":8037:8099   */\n      tag_187\n      jumpi\n        /* \"#utility.yul\":8095:8096   */\n      0x00\n        /* \"#utility.yul\":8092:8093   */\n      dup1\n        /* \"#utility.yul\":8085:8097   */\n      revert\n        /* \"#utility.yul\":8037:8099   */\n    tag_187:\n        /* \"#utility.yul\":7985:8105   */\n      pop\n      jump\t// out\n        /* \"#utility.yul\":8111:8252   */\n    tag_109:\n        /* \"#utility.yul\":8167:8172   */\n      0x00\n        /* \"#utility.yul\":8198:8204   */\n      dup2\n        /* \"#utility.yul\":8192:8205   */\n      mload\n        /* \"#utility.yul\":8183:8205   */\n      swap1\n      pop\n        /* \"#utility.yul\":8214:8246   */\n      tag_189\n        /* \"#utility.yul\":8240:8245   */\n      dup2\n        /* \"#utility.yul\":8214:8246   */\n      tag_108\n      jump\t// in\n    tag_189:\n        /* \"#utility.yul\":8111:8252   */\n      swap3\n      swap2\n      pop\n      pop\n      jump\t// out\n        /* \"#utility.yul\":8258:8380   */\n    tag_110:\n        /* \"#utility.yul\":8331:8355   */\n      tag_191\n        /* \"#utility.yul\":8349:8354   */\n      dup2\n        /* \"#utility.yul\":8331:8355   */\n      tag_89\n      jump\t// in\n    tag_191:\n        /* \"#utility.yul\":8324:8329   */\n      dup2\n        /* \"#utility.yul\":8321:8356   */\n      eq\n        /* \"#utility.yul\":8311:8374   */\n      tag_192\n      jumpi\n        /* \"#utility.yul\":8370:8371   */\n      0x00\n        /* \"#utility.yul\":8367:8368   */\n      dup1\n        /* \"#utility.yul\":8360:8372   */\n      revert\n        /* \"#utility.yul\":8311:8374   */\n    tag_192:\n        /* \"#utility.yul\":8258:8380   */\n      pop\n      jump\t// out\n        /* \"#utility.yul\":8386:8529   */\n    tag_111:\n        /* \"#utility.yul\":8443:8448   */\n      0x00\n        /* \"#utility.yul\":8474:8480   */\n      dup2\n        /* \"#utility.yul\":8468:8481   */\n      mload\n        /* \"#utility.yul\":8459:8481   */\n      swap1\n      pop\n        /* \"#utility.yul\":8490:8523   */\n      tag_194\n        /* \"#utility.yul\":8517:8522   */\n      dup2\n        /* \"#utility.yul\":8490:8523   */\n      tag_110\n      jump\t// in\n    tag_194:\n        /* \"#utility.yul\":8386:8529   */\n      swap3\n      swap2\n      pop\n      pop\n      jump\t// out\n        /* \"#utility.yul\":8535:9506   */\n    tag_72:\n        /* \"#utility.yul\":8638:8644   */\n      0x00\n        /* \"#utility.yul\":8646:8652   */\n      dup1\n        /* \"#utility.yul\":8654:8660   */\n      0x00\n        /* \"#utility.yul\":8662:8668   */\n      dup1\n        /* \"#utility.yul\":8670:8676   */\n      0x00\n        /* \"#utility.yul\":8719:8722   */\n      0xa0\n        /* \"#utility.yul\":8707:8716   */\n      dup7\n        /* \"#utility.yul\":8698:8705   */\n      dup9\n        /* \"#utility.yul\":8694:8717   */\n      sub\n        /* \"#utility.yul\":8690:8723   */\n      slt\n        /* \"#utility.yul\":8687:8807   */\n      iszero\n      tag_196\n      jumpi\n        /* \"#utility.yul\":8726:8805   */\n      tag_197\n      tag_83\n      jump\t// in\n    tag_197:\n        /* \"#utility.yul\":8687:8807   */\n    tag_196:\n        /* \"#utility.yul\":8846:8847   */\n      0x00\n        /* \"#utility.yul\":8871:8934   */\n      tag_198\n        /* \"#utility.yul\":8926:8933   */\n      dup9\n        /* \"#utility.yul\":8917:8923   */\n      dup3\n        /* \"#utility.yul\":8906:8915   */\n      dup10\n        /* \"#utility.yul\":8902:8924   */\n      add\n        /* \"#utility.yul\":8871:8934   */\n      tag_106\n      jump\t// in\n    tag_198:\n        /* \"#utility.yul\":8861:8934   */\n      swap6\n      pop\n        /* \"#utility.yul\":8817:8944   */\n      pop\n        /* \"#utility.yul\":8983:8985   */\n      0x20\n        /* \"#utility.yul\":9009:9072   */\n      tag_199\n        /* \"#utility.yul\":9064:9071   */\n      dup9\n        /* \"#utility.yul\":9055:9061   */\n      dup3\n        /* \"#utility.yul\":9044:9053   */\n      dup10\n        /* \"#utility.yul\":9040:9062   */\n      add\n        /* \"#utility.yul\":9009:9072   */\n      tag_109\n      jump\t// in\n    tag_199:\n        /* \"#utility.yul\":8999:9072   */\n      swap5\n      pop\n        /* \"#utility.yul\":8954:9082   */\n      pop\n        /* \"#utility.yul\":9121:9123   */\n      0x40\n        /* \"#utility.yul\":9147:9211   */\n      tag_200\n        /* \"#utility.yul\":9203:9210   */\n      dup9\n        /* \"#utility.yul\":9194:9200   */\n      dup3\n        /* \"#utility.yul\":9183:9192   */\n      dup10\n        /* \"#utility.yul\":9179:9201   */\n      add\n        /* \"#utility.yul\":9147:9211   */\n      tag_111\n      jump\t// in\n    tag_200:\n        /* \"#utility.yul\":9137:9211   */\n      swap4\n      pop\n        /* \"#utility.yul\":9092:9221   */\n      pop\n        /* \"#utility.yul\":9260:9262   */\n      0x60\n        /* \"#utility.yul\":9286:9350   */\n      tag_201\n        /* \"#utility.yul\":9342:9349   */\n      dup9\n        /* \"#utility.yul\":9333:9339   */\n      dup3\n        /* \"#utility.yul\":9322:9331   */\n      dup10\n        /* \"#utility.yul\":9318:9340   */\n      add\n        /* \"#utility.yul\":9286:9350   */\n      tag_111\n      jump\t// in\n    tag_201:\n        /* \"#utility.yul\":9276:9350   */\n      swap3\n      pop\n        /* \"#utility.yul\":9231:9360   */\n      pop\n        /* \"#utility.yul\":9399:9402   */\n      0x80\n        /* \"#utility.yul\":9426:9489   */\n      tag_202\n        /* \"#utility.yul\":9481:9488   */\n      dup9\n        /* \"#utility.yul\":9472:9478   */\n      dup3\n        /* \"#utility.yul\":9461:9470   */\n      dup10\n        /* \"#utility.yul\":9457:9479   */\n      add\n        /* \"#utility.yul\":9426:9489   */\n      tag_106\n      jump\t// in\n    tag_202:\n        /* \"#utility.yul\":9416:9489   */\n      swap2\n      pop\n        /* \"#utility.yul\":9370:9499   */\n      pop\n        /* \"#utility.yul\":8535:9506   */\n      swap3\n      swap6\n      pop\n      swap3\n      swap6\n      swap1\n      swap4\n      pop\n      jump\t// out\n        /* \"#utility.yul\":9512:10068   */\n    tag_74:\n        /* \"#utility.yul\":9551:9558   */\n      0x00\n        /* \"#utility.yul\":9574:9593   */\n      tag_204\n        /* \"#utility.yul\":9591:9592   */\n      dup3\n        /* \"#utility.yul\":9574:9593   */\n      tag_107\n      jump\t// in\n    tag_204:\n        /* \"#utility.yul\":9569:9593   */\n      swap2\n      pop\n        /* \"#utility.yul\":9607:9626   */\n      tag_205\n        /* \"#utility.yul\":9624:9625   */\n      dup4\n        /* \"#utility.yul\":9607:9626   */\n      tag_107\n      jump\t// in\n    tag_205:\n        /* \"#utility.yul\":9602:9626   */\n      swap3\n      pop\n        /* \"#utility.yul\":9661:9662   */\n      dup3\n        /* \"#utility.yul\":9658:9659   */\n      dup3\n        /* \"#utility.yul\":9654:9663   */\n      mul\n        /* \"#utility.yul\":9683:9712   */\n      tag_206\n        /* \"#utility.yul\":9700:9711   */\n      dup2\n        /* \"#utility.yul\":9683:9712   */\n      tag_107\n      jump\t// in\n    tag_206:\n        /* \"#utility.yul\":9672:9712   */\n      swap2\n      pop\n        /* \"#utility.yul\":9770:9836   */\n      0x8000000000000000000000000000000000000000000000000000000000000000\n        /* \"#utility.yul\":9767:9768   */\n      dup5\n        /* \"#utility.yul\":9764:9837   */\n      eq\n        /* \"#utility.yul\":9760:9761   */\n      0x00\n        /* \"#utility.yul\":9757:9758   */\n      dup5\n        /* \"#utility.yul\":9753:9762   */\n      slt\n        /* \"#utility.yul\":9749:9838   */\n      and\n        /* \"#utility.yul\":9746:9861   */\n      iszero\n      tag_207\n      jumpi\n        /* \"#utility.yul\":9841:9859   */\n      tag_208\n      tag_102\n      jump\t// in\n    tag_208:\n        /* \"#utility.yul\":9746:9861   */\n    tag_207:\n        /* \"#utility.yul\":10011:10012   */\n      dup3\n        /* \"#utility.yul\":10002:10009   */\n      dup3\n        /* \"#utility.yul\":9997:10013   */\n      sdiv\n        /* \"#utility.yul\":9994:9995   */\n      dup5\n        /* \"#utility.yul\":9991:10014   */\n      eq\n        /* \"#utility.yul\":9971:9972   */\n      dup4\n        /* \"#utility.yul\":9964:9973   */\n      iszero\n        /* \"#utility.yul\":9944:10028   */\n      or\n        /* \"#utility.yul\":9921:10061   */\n      tag_209\n      jumpi\n        /* \"#utility.yul\":10041:10059   */\n      tag_210\n      tag_102\n      jump\t// in\n    tag_210:\n        /* \"#utility.yul\":9921:10061   */\n    tag_209:\n        /* \"#utility.yul\":9559:10068   */\n      pop\n        /* \"#utility.yul\":9512:10068   */\n      swap3\n      swap2\n      pop\n      pop\n      jump\t// out\n\n    auxdata: 0xa26469706673582212206639cff26af2bbd55d1179f2ccc8d37a067d0a870f49e38437e40ce7ca8fdb4564736f6c634300081a0033\n}\n",
				"bytecode": {
					"linkReferences": {},
					"object": "6080604052671bc16d674ec800005f553480156019575f80fd5b503360035f6101000a81548173ffffffffffffffffffffffffffffffffffffffff021916908373ffffffffffffffffffffffffffffffffffffffff160217905550610b58806100675f395ff3fe608060405260043610610049575f3560e01c80633c4c58cc1461004d5780633ccfd60b146100895780637d4514801461009f5780638da5cb5b146100c9578063b60d4288146100f3575b5f80fd5b348015610058575f80fd5b50610073600480360381019061006e9190610641565b6100fd565b6040516100809190610684565b60405180910390f35b348015610094575f80fd5b5061009d610112565b005b3480156100aa575f80fd5b506100b361034a565b6040516100c09190610684565b60405180910390f35b3480156100d4575f80fd5b506100dd61034f565b6040516100ea91906106ac565b60405180910390f35b6100fb610374565b005b6002602052805f5260405f205f915090505481565b3373ffffffffffffffffffffffffffffffffffffffff1660035f9054906101000a900473ffffffffffffffffffffffffffffffffffffffff1673ffffffffffffffffffffffffffffffffffffffff16146101a1576040517f08c379a00000000000000000000000000000000000000000000000000000000081526004016101989061071f565b60405180910390fd5b5f5b60018054905081101561023f575f600182815481106101c5576101c461073d565b5b905f5260205f20015f9054906101000a900473ffffffffffffffffffffffffffffffffffffffff1690505f60025f8373ffffffffffffffffffffffffffffffffffffffff1673ffffffffffffffffffffffffffffffffffffffff1681526020019081526020015f20819055505080806001019150506101a3565b505f67ffffffffffffffff81111561025a5761025961076a565b5b6040519080825280602002602001820160405280156102885781602001602082028036833780820191505090505b506001908051906020019061029e929190610541565b505f3373ffffffffffffffffffffffffffffffffffffffff16476040516102c4906107c4565b5f6040518083038185875af1925050503d805f81146102fe576040519150601f19603f3d011682016040523d82523d5f602084013e610303565b606091505b5050905080610347576040517f08c379a000000000000000000000000000000000000000000000000000000000815260040161033e90610822565b60405180910390fd5b50565b5f5481565b60035f9054906101000a900473ffffffffffffffffffffffffffffffffffffffff1681565b5f5461037f34610464565b10156103c0576040517f08c379a00000000000000000000000000000000000000000000000000000000081526004016103b7906108b0565b60405180910390fd5b600133908060018154018082558091505060019003905f5260205f20015f9091909190916101000a81548173ffffffffffffffffffffffffffffffffffffffff021916908373ffffffffffffffffffffffffffffffffffffffff1602179055503460025f3373ffffffffffffffffffffffffffffffffffffffff1673ffffffffffffffffffffffffffffffffffffffff1681526020019081526020015f2081905550565b5f8061046e61049c565b90505f670de0b6b3a7640000848361048691906108fb565b6104909190610969565b90508092505050919050565b5f8073694aa1769357215de4fac081bf1f309adc32530690505f8173ffffffffffffffffffffffffffffffffffffffff1663feaf968c6040518163ffffffff1660e01b815260040160a060405180830381865afa1580156104ff573d5f803e3d5ffd5b505050506040513d601f19601f820116820180604052508101906105239190610a35565b5050509150506402540be4008161053a9190610aac565b9250505090565b828054828255905f5260205f209081019282156105b7579160200282015b828111156105b6578251825f6101000a81548173ffffffffffffffffffffffffffffffffffffffff021916908373ffffffffffffffffffffffffffffffffffffffff1602179055509160200191906001019061055f565b5b5090506105c491906105c8565b5090565b5b808211156105df575f815f9055506001016105c9565b5090565b5f80fd5b5f73ffffffffffffffffffffffffffffffffffffffff82169050919050565b5f610610826105e7565b9050919050565b61062081610606565b811461062a575f80fd5b50565b5f8135905061063b81610617565b92915050565b5f60208284031215610656576106556105e3565b5b5f6106638482850161062d565b91505092915050565b5f819050919050565b61067e8161066c565b82525050565b5f6020820190506106975f830184610675565b92915050565b6106a681610606565b82525050565b5f6020820190506106bf5f83018461069d565b92915050565b5f82825260208201905092915050565b7f53656e646572206973206e6f74206f776e65722e2000000000000000000000005f82015250565b5f6107096015836106c5565b9150610714826106d5565b602082019050919050565b5f6020820190508181035f830152610736816106fd565b9050919050565b7f4e487b71000000000000000000000000000000000000000000000000000000005f52603260045260245ffd5b7f4e487b71000000000000000000000000000000000000000000000000000000005f52604160045260245ffd5b5f81905092915050565b50565b5f6107af5f83610797565b91506107ba826107a1565b5f82019050919050565b5f6107ce826107a4565b9150819050919050565b7f43616c6c206661696c65642e20000000000000000000000000000000000000005f82015250565b5f61080c600d836106c5565b9150610817826107d8565b602082019050919050565b5f6020820190508181035f83015261083981610800565b9050919050565b7f446964206e6f742073656e6420656e6f756768204574682c206e6f77207265765f8201527f65727465642e0000000000000000000000000000000000000000000000000000602082015250565b5f61089a6026836106c5565b91506108a582610840565b604082019050919050565b5f6020820190508181035f8301526108c78161088e565b9050919050565b7f4e487b71000000000000000000000000000000000000000000000000000000005f52601160045260245ffd5b5f6109058261066c565b91506109108361066c565b925082820261091e8161066c565b91508282048414831517610935576109346108ce565b5b5092915050565b7f4e487b71000000000000000000000000000000000000000000000000000000005f52601260045260245ffd5b5f6109738261066c565b915061097e8361066c565b92508261098e5761098d61093c565b5b828204905092915050565b5f69ffffffffffffffffffff82169050919050565b6109b781610999565b81146109c1575f80fd5b50565b5f815190506109d2816109ae565b92915050565b5f819050919050565b6109ea816109d8565b81146109f4575f80fd5b50565b5f81519050610a05816109e1565b92915050565b610a148161066c565b8114610a1e575f80fd5b50565b5f81519050610a2f81610a0b565b92915050565b5f805f805f60a08688031215610a4e57610a4d6105e3565b5b5f610a5b888289016109c4565b9550506020610a6c888289016109f7565b9450506040610a7d88828901610a21565b9350506060610a8e88828901610a21565b9250506080610a9f888289016109c4565b9150509295509295909350565b5f610ab6826109d8565b9150610ac1836109d8565b9250828202610acf816109d8565b91507f800000000000000000000000000000000000000000000000000000000000000084145f84121615610b0657610b056108ce565b5b8282058414831517610b1b57610b1a6108ce565b5b509291505056fea26469706673582212206639cff26af2bbd55d1179f2ccc8d37a067d0a870f49e38437e40ce7ca8fdb4564736f6c634300081a0033",
					"opcodes": "PUSH1 0x80 PUSH1 0x40 MSTORE PUSH8 0x1BC16D674EC80000 PUSH0 SSTORE CALLVALUE DUP1 ISZERO PUSH1 0x19 JUMPI PUSH0 DUP1 REVERT JUMPDEST POP CALLER PUSH1 0x3 PUSH0 PUSH2 0x100 EXP DUP2 SLOAD DUP2 PUSH20 0xFFFFFFFFFFFFFFFFFFFFFFFFFFFFFFFFFFFFFFFF MUL NOT AND SWAP1 DUP4 PUSH20 0xFFFFFFFFFFFFFFFFFFFFFFFFFFFFFFFFFFFFFFFF AND MUL OR SWAP1 SSTORE POP PUSH2 0xB58 DUP1 PUSH2 0x67 PUSH0 CODECOPY PUSH0 RETURN INVALID PUSH1 0x80 PUSH1 0x40 MSTORE PUSH1 0x4 CALLDATASIZE LT PUSH2 0x49 JUMPI PUSH0 CALLDATALOAD PUSH1 0xE0 SHR DUP1 PUSH4 0x3C4C58CC EQ PUSH2 0x4D JUMPI DUP1 PUSH4 0x3CCFD60B EQ PUSH2 0x89 JUMPI DUP1 PUSH4 0x7D451480 EQ PUSH2 0x9F JUMPI DUP1 PUSH4 0x8DA5CB5B EQ PUSH2 0xC9 JUMPI DUP1 PUSH4 0xB60D4288 EQ PUSH2 0xF3 JUMPI JUMPDEST PUSH0 DUP1 REVERT JUMPDEST CALLVALUE DUP1 ISZERO PUSH2 0x58 JUMPI PUSH0 DUP1 REVERT JUMPDEST POP PUSH2 0x73 PUSH1 0x4 DUP1 CALLDATASIZE SUB DUP2 ADD SWAP1 PUSH2 0x6E SWAP2 SWAP1 PUSH2 0x641 JUMP JUMPDEST PUSH2 0xFD JUMP JUMPDEST PUSH1 0x40 MLOAD PUSH2 0x80 SWAP2 SWAP1 PUSH2 0x684 JUMP JUMPDEST PUSH1 0x40 MLOAD DUP1 SWAP2 SUB SWAP1 RETURN JUMPDEST CALLVALUE DUP1 ISZERO PUSH2 0x94 JUMPI PUSH0 DUP1 REVERT JUMPDEST POP PUSH2 0x9D PUSH2 0x112 JUMP JUMPDEST STOP JUMPDEST CALLVALUE DUP1 ISZERO PUSH2 0xAA JUMPI PUSH0 DUP1 REVERT JUMPDEST POP PUSH2 0xB3 PUSH2 0x34A JUMP JUMPDEST PUSH1 0x40 MLOAD PUSH2 0xC0 SWAP2 SWAP1 PUSH2 0x684 JUMP JUMPDEST PUSH1 0x40 MLOAD DUP1 SWAP2 SUB SWAP1 RETURN JUMPDEST CALLVALUE DUP1 ISZERO PUSH2 0xD4 JUMPI PUSH0 DUP1 REVERT JUMPDEST POP PUSH2 0xDD PUSH2 0x34F JUMP JUMPDEST PUSH1 0x40 MLOAD PUSH2 0xEA SWAP2 SWAP1 PUSH2 0x6AC JUMP JUMPDEST PUSH1 0x40 MLOAD DUP1 SWAP2 SUB SWAP1 RETURN JUMPDEST PUSH2 0xFB PUSH2 0x374 JUMP JUMPDEST STOP JUMPDEST PUSH1 0x2 PUSH1 0x20 MSTORE DUP1 PUSH0 MSTORE PUSH1 0x40 PUSH0 KECCAK256 PUSH0 SWAP2 POP SWAP1 POP SLOAD DUP2 JUMP JUMPDEST CALLER PUSH20 0xFFFFFFFFFFFFFFFFFFFFFFFFFFFFFFFFFFFFFFFF AND PUSH1 0x3 PUSH0 SWAP1 SLOAD SWAP1 PUSH2 0x100 EXP SWAP1 DIV PUSH20 0xFFFFFFFFFFFFFFFFFFFFFFFFFFFFFFFFFFFFFFFF AND PUSH20 0xFFFFFFFFFFFFFFFFFFFFFFFFFFFFFFFFFFFFFFFF AND EQ PUSH2 0x1A1 JUMPI PUSH1 0x40 MLOAD PUSH32 0x8C379A000000000000000000000000000000000000000000000000000000000 DUP2 MSTORE PUSH1 0x4 ADD PUSH2 0x198 SWAP1 PUSH2 0x71F JUMP JUMPDEST PUSH1 0x40 MLOAD DUP1 SWAP2 SUB SWAP1 REVERT JUMPDEST PUSH0 JUMPDEST PUSH1 0x1 DUP1 SLOAD SWAP1 POP DUP2 LT ISZERO PUSH2 0x23F JUMPI PUSH0 PUSH1 0x1 DUP3 DUP2 SLOAD DUP2 LT PUSH2 0x1C5 JUMPI PUSH2 0x1C4 PUSH2 0x73D JUMP JUMPDEST JUMPDEST SWAP1 PUSH0 MSTORE PUSH1 0x20 PUSH0 KECCAK256 ADD PUSH0 SWAP1 SLOAD SWAP1 PUSH2 0x100 EXP SWAP1 DIV PUSH20 0xFFFFFFFFFFFFFFFFFFFFFFFFFFFFFFFFFFFFFFFF AND SWAP1 POP PUSH0 PUSH1 0x2 PUSH0 DUP4 PUSH20 0xFFFFFFFFFFFFFFFFFFFFFFFFFFFFFFFFFFFFFFFF AND PUSH20 0xFFFFFFFFFFFFFFFFFFFFFFFFFFFFFFFFFFFFFFFF AND DUP2 MSTORE PUSH1 0x20 ADD SWAP1 DUP2 MSTORE PUSH1 0x20 ADD PUSH0 KECCAK256 DUP2 SWAP1 SSTORE POP POP DUP1 DUP1 PUSH1 0x1 ADD SWAP2 POP POP PUSH2 0x1A3 JUMP JUMPDEST POP PUSH0 PUSH8 0xFFFFFFFFFFFFFFFF DUP2 GT ISZERO PUSH2 0x25A JUMPI PUSH2 0x259 PUSH2 0x76A JUMP JUMPDEST JUMPDEST PUSH1 0x40 MLOAD SWAP1 DUP1 DUP3 MSTORE DUP1 PUSH1 0x20 MUL PUSH1 0x20 ADD DUP3 ADD PUSH1 0x40 MSTORE DUP1 ISZERO PUSH2 0x288 JUMPI DUP2 PUSH1 0x20 ADD PUSH1 0x20 DUP3 MUL DUP1 CALLDATASIZE DUP4 CALLDATACOPY DUP1 DUP3 ADD SWAP2 POP POP SWAP1 POP JUMPDEST POP PUSH1 0x1 SWAP1 DUP1 MLOAD SWAP1 PUSH1 0x20 ADD SWAP1 PUSH2 0x29E SWAP3 SWAP2 SWAP1 PUSH2 0x541 JUMP JUMPDEST POP PUSH0 CALLER PUSH20 0xFFFFFFFFFFFFFFFFFFFFFFFFFFFFFFFFFFFFFFFF AND SELFBALANCE PUSH1 0x40 MLOAD PUSH2 0x2C4 SWAP1 PUSH2 0x7C4 JUMP JUMPDEST PUSH0 PUSH1 0x40 MLOAD DUP1 DUP4 SUB DUP2 DUP6 DUP8 GAS CALL SWAP3 POP POP POP RETURNDATASIZE DUP1 PUSH0 DUP2 EQ PUSH2 0x2FE JUMPI PUSH1 0x40 MLOAD SWAP2 POP PUSH1 0x1F NOT PUSH1 0x3F RETURNDATASIZE ADD AND DUP3 ADD PUSH1 0x40 MSTORE RETURNDATASIZE DUP3 MSTORE RETURNDATASIZE PUSH0 PUSH1 0x20 DUP5 ADD RETURNDATACOPY PUSH2 0x303 JUMP JUMPDEST PUSH1 0x60 SWAP2 POP JUMPDEST POP POP SWAP1 POP DUP1 PUSH2 0x347 JUMPI PUSH1 0x40 MLOAD PUSH32 0x8C379A000000000000000000000000000000000000000000000000000000000 DUP2 MSTORE PUSH1 0x4 ADD PUSH2 0x33E SWAP1 PUSH2 0x822 JUMP JUMPDEST PUSH1 0x40 MLOAD DUP1 SWAP2 SUB SWAP1 REVERT JUMPDEST POP JUMP JUMPDEST PUSH0 SLOAD DUP2 JUMP JUMPDEST PUSH1 0x3 PUSH0 SWAP1 SLOAD SWAP1 PUSH2 0x100 EXP SWAP1 DIV PUSH20 0xFFFFFFFFFFFFFFFFFFFFFFFFFFFFFFFFFFFFFFFF AND DUP2 JUMP JUMPDEST PUSH0 SLOAD PUSH2 0x37F CALLVALUE PUSH2 0x464 JUMP JUMPDEST LT ISZERO PUSH2 0x3C0 JUMPI PUSH1 0x40 MLOAD PUSH32 0x8C379A000000000000000000000000000000000000000000000000000000000 DUP2 MSTORE PUSH1 0x4 ADD PUSH2 0x3B7 SWAP1 PUSH2 0x8B0 JUMP JUMPDEST PUSH1 0x40 MLOAD DUP1 SWAP2 SUB SWAP1 REVERT JUMPDEST PUSH1 0x1 CALLER SWAP1 DUP1 PUSH1 0x1 DUP2 SLOAD ADD DUP1 DUP3 SSTORE DUP1 SWAP2 POP POP PUSH1 0x1 SWAP1 SUB SWAP1 PUSH0 MSTORE PUSH1 0x20 PUSH0 KECCAK256 ADD PUSH0 SWAP1 SWAP2 SWAP1 SWAP2 SWAP1 SWAP2 PUSH2 0x100 EXP DUP2 SLOAD DUP2 PUSH20 0xFFFFFFFFFFFFFFFFFFFFFFFFFFFFFFFFFFFFFFFF MUL NOT AND SWAP1 DUP4 PUSH20 0xFFFFFFFFFFFFFFFFFFFFFFFFFFFFFFFFFFFFFFFF AND MUL OR SWAP1 SSTORE POP CALLVALUE PUSH1 0x2 PUSH0 CALLER PUSH20 0xFFFFFFFFFFFFFFFFFFFFFFFFFFFFFFFFFFFFFFFF AND PUSH20 0xFFFFFFFFFFFFFFFFFFFFFFFFFFFFFFFFFFFFFFFF AND DUP2 MSTORE PUSH1 0x20 ADD SWAP1 DUP2 MSTORE PUSH1 0x20 ADD PUSH0 KECCAK256 DUP2 SWAP1 SSTORE POP JUMP JUMPDEST PUSH0 DUP1 PUSH2 0x46E PUSH2 0x49C JUMP JUMPDEST SWAP1 POP PUSH0 PUSH8 0xDE0B6B3A7640000 DUP5 DUP4 PUSH2 0x486 SWAP2 SWAP1 PUSH2 0x8FB JUMP JUMPDEST PUSH2 0x490 SWAP2 SWAP1 PUSH2 0x969 JUMP JUMPDEST SWAP1 POP DUP1 SWAP3 POP POP POP SWAP2 SWAP1 POP JUMP JUMPDEST PUSH0 DUP1 PUSH20 0x694AA1769357215DE4FAC081BF1F309ADC325306 SWAP1 POP PUSH0 DUP2 PUSH20 0xFFFFFFFFFFFFFFFFFFFFFFFFFFFFFFFFFFFFFFFF AND PUSH4 0xFEAF968C PUSH1 0x40 MLOAD DUP2 PUSH4 0xFFFFFFFF AND PUSH1 0xE0 SHL DUP2 MSTORE PUSH1 0x4 ADD PUSH1 0xA0 PUSH1 0x40 MLOAD DUP1 DUP4 SUB DUP2 DUP7 GAS STATICCALL ISZERO DUP1 ISZERO PUSH2 0x4FF JUMPI RETURNDATASIZE PUSH0 DUP1 RETURNDATACOPY RETURNDATASIZE PUSH0 REVERT JUMPDEST POP POP POP POP PUSH1 0x40 MLOAD RETURNDATASIZE PUSH1 0x1F NOT PUSH1 0x1F DUP3 ADD AND DUP3 ADD DUP1 PUSH1 0x40 MSTORE POP DUP2 ADD SWAP1 PUSH2 0x523 SWAP2 SWAP1 PUSH2 0xA35 JUMP JUMPDEST POP POP POP SWAP2 POP POP PUSH5 0x2540BE400 DUP2 PUSH2 0x53A SWAP2 SWAP1 PUSH2 0xAAC JUMP JUMPDEST SWAP3 POP POP POP SWAP1 JUMP JUMPDEST DUP3 DUP1 SLOAD DUP3 DUP3 SSTORE SWAP1 PUSH0 MSTORE PUSH1 0x20 PUSH0 KECCAK256 SWAP1 DUP2 ADD SWAP3 DUP3 ISZERO PUSH2 0x5B7 JUMPI SWAP2 PUSH1 0x20 MUL DUP3 ADD JUMPDEST DUP3 DUP2 GT ISZERO PUSH2 0x5B6 JUMPI DUP3 MLOAD DUP3 PUSH0 PUSH2 0x100 EXP DUP2 SLOAD DUP2 PUSH20 0xFFFFFFFFFFFFFFFFFFFFFFFFFFFFFFFFFFFFFFFF MUL NOT AND SWAP1 DUP4 PUSH20 0xFFFFFFFFFFFFFFFFFFFFFFFFFFFFFFFFFFFFFFFF AND MUL OR SWAP1 SSTORE POP SWAP2 PUSH1 0x20 ADD SWAP2 SWAP1 PUSH1 0x1 ADD SWAP1 PUSH2 0x55F JUMP JUMPDEST JUMPDEST POP SWAP1 POP PUSH2 0x5C4 SWAP2 SWAP1 PUSH2 0x5C8 JUMP JUMPDEST POP SWAP1 JUMP JUMPDEST JUMPDEST DUP1 DUP3 GT ISZERO PUSH2 0x5DF JUMPI PUSH0 DUP2 PUSH0 SWAP1 SSTORE POP PUSH1 0x1 ADD PUSH2 0x5C9 JUMP JUMPDEST POP SWAP1 JUMP JUMPDEST PUSH0 DUP1 REVERT JUMPDEST PUSH0 PUSH20 0xFFFFFFFFFFFFFFFFFFFFFFFFFFFFFFFFFFFFFFFF DUP3 AND SWAP1 POP SWAP2 SWAP1 POP JUMP JUMPDEST PUSH0 PUSH2 0x610 DUP3 PUSH2 0x5E7 JUMP JUMPDEST SWAP1 POP SWAP2 SWAP1 POP JUMP JUMPDEST PUSH2 0x620 DUP2 PUSH2 0x606 JUMP JUMPDEST DUP2 EQ PUSH2 0x62A JUMPI PUSH0 DUP1 REVERT JUMPDEST POP JUMP JUMPDEST PUSH0 DUP2 CALLDATALOAD SWAP1 POP PUSH2 0x63B DUP2 PUSH2 0x617 JUMP JUMPDEST SWAP3 SWAP2 POP POP JUMP JUMPDEST PUSH0 PUSH1 0x20 DUP3 DUP5 SUB SLT ISZERO PUSH2 0x656 JUMPI PUSH2 0x655 PUSH2 0x5E3 JUMP JUMPDEST JUMPDEST PUSH0 PUSH2 0x663 DUP5 DUP3 DUP6 ADD PUSH2 0x62D JUMP JUMPDEST SWAP2 POP POP SWAP3 SWAP2 POP POP JUMP JUMPDEST PUSH0 DUP2 SWAP1 POP SWAP2 SWAP1 POP JUMP JUMPDEST PUSH2 0x67E DUP2 PUSH2 0x66C JUMP JUMPDEST DUP3 MSTORE POP POP JUMP JUMPDEST PUSH0 PUSH1 0x20 DUP3 ADD SWAP1 POP PUSH2 0x697 PUSH0 DUP4 ADD DUP5 PUSH2 0x675 JUMP JUMPDEST SWAP3 SWAP2 POP POP JUMP JUMPDEST PUSH2 0x6A6 DUP2 PUSH2 0x606 JUMP JUMPDEST DUP3 MSTORE POP POP JUMP JUMPDEST PUSH0 PUSH1 0x20 DUP3 ADD SWAP1 POP PUSH2 0x6BF PUSH0 DUP4 ADD DUP5 PUSH2 0x69D JUMP JUMPDEST SWAP3 SWAP2 POP POP JUMP JUMPDEST PUSH0 DUP3 DUP3 MSTORE PUSH1 0x20 DUP3 ADD SWAP1 POP SWAP3 SWAP2 POP POP JUMP JUMPDEST PUSH32 0x53656E646572206973206E6F74206F776E65722E200000000000000000000000 PUSH0 DUP3 ADD MSTORE POP JUMP JUMPDEST PUSH0 PUSH2 0x709 PUSH1 0x15 DUP4 PUSH2 0x6C5 JUMP JUMPDEST SWAP2 POP PUSH2 0x714 DUP3 PUSH2 0x6D5 JUMP JUMPDEST PUSH1 0x20 DUP3 ADD SWAP1 POP SWAP2 SWAP1 POP JUMP JUMPDEST PUSH0 PUSH1 0x20 DUP3 ADD SWAP1 POP DUP2 DUP2 SUB PUSH0 DUP4 ADD MSTORE PUSH2 0x736 DUP2 PUSH2 0x6FD JUMP JUMPDEST SWAP1 POP SWAP2 SWAP1 POP JUMP JUMPDEST PUSH32 0x4E487B7100000000000000000000000000000000000000000000000000000000 PUSH0 MSTORE PUSH1 0x32 PUSH1 0x4 MSTORE PUSH1 0x24 PUSH0 REVERT JUMPDEST PUSH32 0x4E487B7100000000000000000000000000000000000000000000000000000000 PUSH0 MSTORE PUSH1 0x41 PUSH1 0x4 MSTORE PUSH1 0x24 PUSH0 REVERT JUMPDEST PUSH0 DUP2 SWAP1 POP SWAP3 SWAP2 POP POP JUMP JUMPDEST POP JUMP JUMPDEST PUSH0 PUSH2 0x7AF PUSH0 DUP4 PUSH2 0x797 JUMP JUMPDEST SWAP2 POP PUSH2 0x7BA DUP3 PUSH2 0x7A1 JUMP JUMPDEST PUSH0 DUP3 ADD SWAP1 POP SWAP2 SWAP1 POP JUMP JUMPDEST PUSH0 PUSH2 0x7CE DUP3 PUSH2 0x7A4 JUMP JUMPDEST SWAP2 POP DUP2 SWAP1 POP SWAP2 SWAP1 POP JUMP JUMPDEST PUSH32 0x43616C6C206661696C65642E2000000000000000000000000000000000000000 PUSH0 DUP3 ADD MSTORE POP JUMP JUMPDEST PUSH0 PUSH2 0x80C PUSH1 0xD DUP4 PUSH2 0x6C5 JUMP JUMPDEST SWAP2 POP PUSH2 0x817 DUP3 PUSH2 0x7D8 JUMP JUMPDEST PUSH1 0x20 DUP3 ADD SWAP1 POP SWAP2 SWAP1 POP JUMP JUMPDEST PUSH0 PUSH1 0x20 DUP3 ADD SWAP1 POP DUP2 DUP2 SUB PUSH0 DUP4 ADD MSTORE PUSH2 0x839 DUP2 PUSH2 0x800 JUMP JUMPDEST SWAP1 POP SWAP2 SWAP1 POP JUMP JUMPDEST PUSH32 0x446964206E6F742073656E6420656E6F756768204574682C206E6F7720726576 PUSH0 DUP3 ADD MSTORE PUSH32 0x65727465642E0000000000000000000000000000000000000000000000000000 PUSH1 0x20 DUP3 ADD MSTORE POP JUMP JUMPDEST PUSH0 PUSH2 0x89A PUSH1 0x26 DUP4 PUSH2 0x6C5 JUMP JUMPDEST SWAP2 POP PUSH2 0x8A5 DUP3 PUSH2 0x840 JUMP JUMPDEST PUSH1 0x40 DUP3 ADD SWAP1 POP SWAP2 SWAP1 POP JUMP JUMPDEST PUSH0 PUSH1 0x20 DUP3 ADD SWAP1 POP DUP2 DUP2 SUB PUSH0 DUP4 ADD MSTORE PUSH2 0x8C7 DUP2 PUSH2 0x88E JUMP JUMPDEST SWAP1 POP SWAP2 SWAP1 POP JUMP JUMPDEST PUSH32 0x4E487B7100000000000000000000000000000000000000000000000000000000 PUSH0 MSTORE PUSH1 0x11 PUSH1 0x4 MSTORE PUSH1 0x24 PUSH0 REVERT JUMPDEST PUSH0 PUSH2 0x905 DUP3 PUSH2 0x66C JUMP JUMPDEST SWAP2 POP PUSH2 0x910 DUP4 PUSH2 0x66C JUMP JUMPDEST SWAP3 POP DUP3 DUP3 MUL PUSH2 0x91E DUP2 PUSH2 0x66C JUMP JUMPDEST SWAP2 POP DUP3 DUP3 DIV DUP5 EQ DUP4 ISZERO OR PUSH2 0x935 JUMPI PUSH2 0x934 PUSH2 0x8CE JUMP JUMPDEST JUMPDEST POP SWAP3 SWAP2 POP POP JUMP JUMPDEST PUSH32 0x4E487B7100000000000000000000000000000000000000000000000000000000 PUSH0 MSTORE PUSH1 0x12 PUSH1 0x4 MSTORE PUSH1 0x24 PUSH0 REVERT JUMPDEST PUSH0 PUSH2 0x973 DUP3 PUSH2 0x66C JUMP JUMPDEST SWAP2 POP PUSH2 0x97E DUP4 PUSH2 0x66C JUMP JUMPDEST SWAP3 POP DUP3 PUSH2 0x98E JUMPI PUSH2 0x98D PUSH2 0x93C JUMP JUMPDEST JUMPDEST DUP3 DUP3 DIV SWAP1 POP SWAP3 SWAP2 POP POP JUMP JUMPDEST PUSH0 PUSH10 0xFFFFFFFFFFFFFFFFFFFF DUP3 AND SWAP1 POP SWAP2 SWAP1 POP JUMP JUMPDEST PUSH2 0x9B7 DUP2 PUSH2 0x999 JUMP JUMPDEST DUP2 EQ PUSH2 0x9C1 JUMPI PUSH0 DUP1 REVERT JUMPDEST POP JUMP JUMPDEST PUSH0 DUP2 MLOAD SWAP1 POP PUSH2 0x9D2 DUP2 PUSH2 0x9AE JUMP JUMPDEST SWAP3 SWAP2 POP POP JUMP JUMPDEST PUSH0 DUP2 SWAP1 POP SWAP2 SWAP1 POP JUMP JUMPDEST PUSH2 0x9EA DUP2 PUSH2 0x9D8 JUMP JUMPDEST DUP2 EQ PUSH2 0x9F4 JUMPI PUSH0 DUP1 REVERT JUMPDEST POP JUMP JUMPDEST PUSH0 DUP2 MLOAD SWAP1 POP PUSH2 0xA05 DUP2 PUSH2 0x9E1 JUMP JUMPDEST SWAP3 SWAP2 POP POP JUMP JUMPDEST PUSH2 0xA14 DUP2 PUSH2 0x66C JUMP JUMPDEST DUP2 EQ PUSH2 0xA1E JUMPI PUSH0 DUP1 REVERT JUMPDEST POP JUMP JUMPDEST PUSH0 DUP2 MLOAD SWAP1 POP PUSH2 0xA2F DUP2 PUSH2 0xA0B JUMP JUMPDEST SWAP3 SWAP2 POP POP JUMP JUMPDEST PUSH0 DUP1 PUSH0 DUP1 PUSH0 PUSH1 0xA0 DUP7 DUP9 SUB SLT ISZERO PUSH2 0xA4E JUMPI PUSH2 0xA4D PUSH2 0x5E3 JUMP JUMPDEST JUMPDEST PUSH0 PUSH2 0xA5B DUP9 DUP3 DUP10 ADD PUSH2 0x9C4 JUMP JUMPDEST SWAP6 POP POP PUSH1 0x20 PUSH2 0xA6C DUP9 DUP3 DUP10 ADD PUSH2 0x9F7 JUMP JUMPDEST SWAP5 POP POP PUSH1 0x40 PUSH2 0xA7D DUP9 DUP3 DUP10 ADD PUSH2 0xA21 JUMP JUMPDEST SWAP4 POP POP PUSH1 0x60 PUSH2 0xA8E DUP9 DUP3 DUP10 ADD PUSH2 0xA21 JUMP JUMPDEST SWAP3 POP POP PUSH1 0x80 PUSH2 0xA9F DUP9 DUP3 DUP10 ADD PUSH2 0x9C4 JUMP JUMPDEST SWAP2 POP POP SWAP3 SWAP6 POP SWAP3 SWAP6 SWAP1 SWAP4 POP JUMP JUMPDEST PUSH0 PUSH2 0xAB6 DUP3 PUSH2 0x9D8 JUMP JUMPDEST SWAP2 POP PUSH2 0xAC1 DUP4 PUSH2 0x9D8 JUMP JUMPDEST SWAP3 POP DUP3 DUP3 MUL PUSH2 0xACF DUP2 PUSH2 0x9D8 JUMP JUMPDEST SWAP2 POP PUSH32 0x8000000000000000000000000000000000000000000000000000000000000000 DUP5 EQ PUSH0 DUP5 SLT AND ISZERO PUSH2 0xB06 JUMPI PUSH2 0xB05 PUSH2 0x8CE JUMP JUMPDEST JUMPDEST DUP3 DUP3 SDIV DUP5 EQ DUP4 ISZERO OR PUSH2 0xB1B JUMPI PUSH2 0xB1A PUSH2 0x8CE JUMP JUMPDEST JUMPDEST POP SWAP3 SWAP2 POP POP JUMP INVALID LOG2 PUSH5 0x6970667358 0x22 SLT KECCAK256 PUSH7 0x39CFF26AF2BBD5 TSTORE GT PUSH26 0xF2CCC8D37A067D0A870F49E38437E40CE7CA8FDB4564736F6C63 NUMBER STOP ADDMOD BYTE STOP CALLER "
				},
				"gasEstimates": {
					"creation": {
						"codeDepositCost": "580800",
						"executionCost": "46981",
						"totalCost": "627781"
					},
					"external": {
						"MINIMUMUSD()": "2446",
						"addressAndFundsent(address)": "2780",
						"fund()": "infinite",
						"owner()": "2552",
						"withdraw()": "infinite"
					}
				},
				"methodIdentifiers": {
					"MINIMUMUSD()": "7d451480",
					"addressAndFundsent(address)": "3c4c58cc",
					"fund()": "b60d4288",
					"owner()": "8da5cb5b",
					"withdraw()": "3ccfd60b"
				}
			},
			"storageLayout": {
				"storage": [
					{
						"astId": 56,
						"contract": "contracts/FundMe2.sol:FundMe2",
						"label": "MINIMUMUSD",
						"offset": 0,
						"slot": "0",
						"type": "t_uint256"
					},
					{
						"astId": 59,
						"contract": "contracts/FundMe2.sol:FundMe2",
						"label": "funders",
						"offset": 0,
						"slot": "1",
						"type": "t_array(t_address)dyn_storage"
					},
					{
						"astId": 63,
						"contract": "contracts/FundMe2.sol:FundMe2",
						"label": "addressAndFundsent",
						"offset": 0,
						"slot": "2",
						"type": "t_mapping(t_address,t_uint256)"
					},
					{
						"astId": 65,
						"contract": "contracts/FundMe2.sol:FundMe2",
						"label": "owner",
						"offset": 0,
						"slot": "3",
						"type": "t_address"
					}
				],
				"types": {
					"t_address": {
						"encoding": "inplace",
						"label": "address",
						"numberOfBytes": "20"
					},
					"t_array(t_address)dyn_storage": {
						"base": "t_address",
						"encoding": "dynamic_array",
						"label": "address[]",
						"numberOfBytes": "32"
					},
					"t_mapping(t_address,t_uint256)": {
						"encoding": "mapping",
						"key": "t_address",
						"label": "mapping(address => uint256)",
						"numberOfBytes": "32",
						"value": "t_uint256"
					},
					"t_uint256": {
						"encoding": "inplace",
						"label": "uint256",
						"numberOfBytes": "32"
					}
				}
			},
			"userdoc": {
				"kind": "user",
				"methods": {},
				"version": 1
			}
		}
	}
}