{
	"contracts/StorageFactory.sol": {
		"StorageFactory": {
			"abi": [
				{
					"inputs": [],
					"name": "createSimpleStorage",
					"outputs": [],
					"stateMutability": "nonpayable",
					"type": "function"
				},
				{
					"inputs": [
						{
							"internalType": "uint256",
							"name": "_simpleStorageIndex",
							"type": "uint256"
						}
					],
					"name": "getFavoriteNumber",
					"outputs": [
						{
							"internalType": "uint256",
							"name": "",
							"type": "uint256"
						}
					],
					"stateMutability": "view",
					"type": "function"
				},
				{
					"inputs": [
						{
							"internalType": "uint256",
							"name": "",
							"type": "uint256"
						}
					],
					"name": "simpleStorageArray",
					"outputs": [
						{
							"internalType": "contract SimpleStorage",
							"name": "",
							"type": "address"
						}
					],
					"stateMutability": "view",
					"type": "function"
				},
				{
					"inputs": [
						{
							"internalType": "uint256",
							"name": "_simpleStorageIndex",
							"type": "uint256"
						},
						{
							"internalType": "uint256",
							"name": "_simpleStorageFavoriteNumber",
							"type": "uint256"
						}
					],
					"name": "storeFavoriteNumber",
					"outputs": [],
					"stateMutability": "nonpayable",
					"type": "function"
				}
			],
			"devdoc": {
				"kind": "dev",
				"methods": {},
				"version": 1
			},
			"evm": {
				"assembly": "    /* \"contracts/StorageFactory.sol\":550:1845  contract StorageFactory{... */\n  mstore(0x40, 0x80)\n  callvalue\n  dup1\n  iszero\n  tag_1\n  jumpi\n  0x00\n  dup1\n  revert\ntag_1:\n  pop\n  dataSize(sub_0)\n  dup1\n  dataOffset(sub_0)\n  0x00\n  codecopy\n  0x00\n  return\nstop\n\nsub_0: assembly {\n        /* \"contracts/StorageFactory.sol\":550:1845  contract StorageFactory{... */\n      mstore(0x40, 0x80)\n      callvalue\n      dup1\n      iszero\n      tag_1\n      jumpi\n      0x00\n      dup1\n      revert\n    tag_1:\n      pop\n      jumpi(tag_2, lt(calldatasize, 0x04))\n      shr(0xe0, calldataload(0x00))\n      dup1\n      0x40d66b3b\n      eq\n      tag_3\n      jumpi\n      dup1\n      0x64591bf1\n      eq\n      tag_4\n      jumpi\n      dup1\n      0x8303b044\n      eq\n      tag_5\n      jumpi\n      dup1\n      0xfc898d17\n      eq\n      tag_6\n      jumpi\n    tag_2:\n      0x00\n      dup1\n      revert\n        /* \"contracts/StorageFactory.sol\":750:902  function createSimpleStorage() public {... */\n    tag_3:\n      tag_7\n      tag_8\n      jump\t// in\n    tag_7:\n      stop\n        /* \"contracts/StorageFactory.sol\":644:685  SimpleStorage[] public simpleStorageArray */\n    tag_4:\n      tag_9\n      0x04\n      dup1\n      calldatasize\n      sub\n      dup2\n      add\n      swap1\n      tag_10\n      swap2\n      swap1\n      tag_11\n      jump\t// in\n    tag_10:\n      tag_12\n      jump\t// in\n    tag_9:\n      mload(0x40)\n      tag_13\n      swap2\n      swap1\n      tag_14\n      jump\t// in\n    tag_13:\n      mload(0x40)\n      dup1\n      swap2\n      sub\n      swap1\n      return\n        /* \"contracts/StorageFactory.sol\":1517:1840  function getFavoriteNumber(uint256 _simpleStorageIndex) public view returns(uint256){... */\n    tag_5:\n      tag_15\n      0x04\n      dup1\n      calldatasize\n      sub\n      dup2\n      add\n      swap1\n      tag_16\n      swap2\n      swap1\n      tag_11\n      jump\t// in\n    tag_16:\n      tag_17\n      jump\t// in\n    tag_15:\n      mload(0x40)\n      tag_18\n      swap2\n      swap1\n      tag_19\n      jump\t// in\n    tag_18:\n      mload(0x40)\n      dup1\n      swap2\n      sub\n      swap1\n      return\n        /* \"contracts/StorageFactory.sol\":1112:1359  function storeFavoriteNumber(uint256 _simpleStorageIndex, uint256 _simpleStorageFavoriteNumber) public{... */\n    tag_6:\n      tag_20\n      0x04\n      dup1\n      calldatasize\n      sub\n      dup2\n      add\n      swap1\n      tag_21\n      swap2\n      swap1\n      tag_22\n      jump\t// in\n    tag_21:\n      tag_23\n      jump\t// in\n    tag_20:\n      stop\n        /* \"contracts/StorageFactory.sol\":750:902  function createSimpleStorage() public {... */\n    tag_8:\n        /* \"contracts/StorageFactory.sol\":798:825  SimpleStorage simpleStorage */\n      0x00\n        /* \"contracts/StorageFactory.sol\":828:847  new SimpleStorage() */\n      mload(0x40)\n      tag_25\n      swap1\n      tag_26\n      jump\t// in\n    tag_25:\n      mload(0x40)\n      dup1\n      swap2\n      sub\n      swap1\n      0x00\n      create\n      dup1\n      iszero\n      dup1\n      iszero\n      tag_27\n      jumpi\n      returndatasize\n      0x00\n      dup1\n      returndatacopy\n      revert(0x00, returndatasize)\n    tag_27:\n      pop\n        /* \"contracts/StorageFactory.sol\":798:847  SimpleStorage simpleStorage = new SimpleStorage() */\n      swap1\n      pop\n        /* \"contracts/StorageFactory.sol\":857:875  simpleStorageArray */\n      0x00\n        /* \"contracts/StorageFactory.sol\":881:894  simpleStorage */\n      dup2\n        /* \"contracts/StorageFactory.sol\":857:895  simpleStorageArray.push(simpleStorage) */\n      swap1\n      dup1\n      0x01\n      dup2\n      sload\n      add\n      dup1\n      dup3\n      sstore\n      dup1\n      swap2\n      pop\n      pop\n      0x01\n      swap1\n      sub\n      swap1\n      0x00\n      mstore\n      keccak256(0x00, 0x20)\n      add\n      0x00\n      swap1\n      swap2\n      swap1\n      swap2\n      swap1\n      swap2\n      0x0100\n      exp\n      dup2\n      sload\n      dup2\n      0xffffffffffffffffffffffffffffffffffffffff\n      mul\n      not\n      and\n      swap1\n      dup4\n      0xffffffffffffffffffffffffffffffffffffffff\n      and\n      mul\n      or\n      swap1\n      sstore\n      pop\n        /* \"contracts/StorageFactory.sol\":788:902  {... */\n      pop\n        /* \"contracts/StorageFactory.sol\":750:902  function createSimpleStorage() public {... */\n      jump\t// out\n        /* \"contracts/StorageFactory.sol\":644:685  SimpleStorage[] public simpleStorageArray */\n    tag_12:\n      0x00\n      dup2\n      dup2\n      sload\n      dup2\n      lt\n      tag_29\n      jumpi\n      0x00\n      dup1\n      revert\n    tag_29:\n      swap1\n      0x00\n      mstore\n      keccak256(0x00, 0x20)\n      add\n      0x00\n      swap2\n      pop\n      sload\n      swap1\n      0x0100\n      exp\n      swap1\n      div\n      0xffffffffffffffffffffffffffffffffffffffff\n      and\n      dup2\n      jump\t// out\n        /* \"contracts/StorageFactory.sol\":1517:1840  function getFavoriteNumber(uint256 _simpleStorageIndex) public view returns(uint256){... */\n    tag_17:\n        /* \"contracts/StorageFactory.sol\":1593:1600  uint256 */\n      0x00\n        /* \"contracts/StorageFactory.sol\":1611:1638  SimpleStorage simpleStorage */\n      dup1\n        /* \"contracts/StorageFactory.sol\":1641:1659  simpleStorageArray */\n      0x00\n        /* \"contracts/StorageFactory.sol\":1660:1679  _simpleStorageIndex */\n      dup4\n        /* \"contracts/StorageFactory.sol\":1641:1680  simpleStorageArray[_simpleStorageIndex] */\n      dup2\n      sload\n      dup2\n      lt\n      tag_32\n      jumpi\n      tag_33\n      tag_34\n      jump\t// in\n    tag_33:\n    tag_32:\n      swap1\n      0x00\n      mstore\n      keccak256(0x00, 0x20)\n      add\n      0x00\n      swap1\n      sload\n      swap1\n      0x0100\n      exp\n      swap1\n      div\n      0xffffffffffffffffffffffffffffffffffffffff\n      and\n        /* \"contracts/StorageFactory.sol\":1611:1680  SimpleStorage simpleStorage = simpleStorageArray[_simpleStorageIndex] */\n      swap1\n      pop\n        /* \"contracts/StorageFactory.sol\":1697:1710  simpleStorage */\n      dup1\n        /* \"contracts/StorageFactory.sol\":1697:1719  simpleStorage.retrieve */\n      0xffffffffffffffffffffffffffffffffffffffff\n      and\n      0x2e64cec1\n        /* \"contracts/StorageFactory.sol\":1697:1721  simpleStorage.retrieve() */\n      mload(0x40)\n      dup2\n      0xffffffff\n      and\n      0xe0\n      shl\n      dup2\n      mstore\n      0x04\n      add\n      0x20\n      mload(0x40)\n      dup1\n      dup4\n      sub\n      dup2\n      dup7\n      gas\n      staticcall\n      iszero\n      dup1\n      iszero\n      tag_37\n      jumpi\n      returndatasize\n      0x00\n      dup1\n      returndatacopy\n      revert(0x00, returndatasize)\n    tag_37:\n      pop\n      pop\n      pop\n      pop\n      mload(0x40)\n      returndatasize\n      not(0x1f)\n      0x1f\n      dup3\n      add\n      and\n      dup3\n      add\n      dup1\n      0x40\n      mstore\n      pop\n      dup2\n      add\n      swap1\n      tag_38\n      swap2\n      swap1\n      tag_39\n      jump\t// in\n    tag_38:\n        /* \"contracts/StorageFactory.sol\":1690:1721  return simpleStorage.retrieve() */\n      swap2\n      pop\n      pop\n        /* \"contracts/StorageFactory.sol\":1517:1840  function getFavoriteNumber(uint256 _simpleStorageIndex) public view returns(uint256){... */\n      swap2\n      swap1\n      pop\n      jump\t// out\n        /* \"contracts/StorageFactory.sol\":1112:1359  function storeFavoriteNumber(uint256 _simpleStorageIndex, uint256 _simpleStorageFavoriteNumber) public{... */\n    tag_23:\n        /* \"contracts/StorageFactory.sol\":1224:1251  SimpleStorage simpleStorage */\n      0x00\n        /* \"contracts/StorageFactory.sol\":1254:1272  simpleStorageArray */\n      dup1\n        /* \"contracts/StorageFactory.sol\":1273:1292  _simpleStorageIndex */\n      dup4\n        /* \"contracts/StorageFactory.sol\":1254:1293  simpleStorageArray[_simpleStorageIndex] */\n      dup2\n      sload\n      dup2\n      lt\n      tag_41\n      jumpi\n      tag_42\n      tag_34\n      jump\t// in\n    tag_42:\n    tag_41:\n      swap1\n      0x00\n      mstore\n      keccak256(0x00, 0x20)\n      add\n      0x00\n      swap1\n      sload\n      swap1\n      0x0100\n      exp\n      swap1\n      div\n      0xffffffffffffffffffffffffffffffffffffffff\n      and\n        /* \"contracts/StorageFactory.sol\":1224:1293  SimpleStorage simpleStorage = simpleStorageArray[_simpleStorageIndex] */\n      swap1\n      pop\n        /* \"contracts/StorageFactory.sol\":1303:1316  simpleStorage */\n      dup1\n        /* \"contracts/StorageFactory.sol\":1303:1322  simpleStorage.store */\n      0xffffffffffffffffffffffffffffffffffffffff\n      and\n      0x6057361d\n        /* \"contracts/StorageFactory.sol\":1323:1351  _simpleStorageFavoriteNumber */\n      dup4\n        /* \"contracts/StorageFactory.sol\":1303:1352  simpleStorage.store(_simpleStorageFavoriteNumber) */\n      mload(0x40)\n      dup3\n      0xffffffff\n      and\n      0xe0\n      shl\n      dup2\n      mstore\n      0x04\n      add\n      tag_44\n      swap2\n      swap1\n      tag_19\n      jump\t// in\n    tag_44:\n      0x00\n      mload(0x40)\n      dup1\n      dup4\n      sub\n      dup2\n      0x00\n      dup8\n      dup1\n      extcodesize\n      iszero\n      dup1\n      iszero\n      tag_45\n      jumpi\n      0x00\n      dup1\n      revert\n    tag_45:\n      pop\n      gas\n      call\n      iszero\n      dup1\n      iszero\n      tag_47\n      jumpi\n      returndatasize\n      0x00\n      dup1\n      returndatacopy\n      revert(0x00, returndatasize)\n    tag_47:\n      pop\n      pop\n      pop\n      pop\n        /* \"contracts/StorageFactory.sol\":1214:1359  {... */\n      pop\n        /* \"contracts/StorageFactory.sol\":1112:1359  function storeFavoriteNumber(uint256 _simpleStorageIndex, uint256 _simpleStorageFavoriteNumber) public{... */\n      pop\n      pop\n      jump\t// out\n    tag_26:\n      dataSize(sub_0)\n      dup1\n      dataOffset(sub_0)\n      dup4\n      codecopy\n      add\n      swap1\n      jump\t// out\n        /* \"#utility.yul\":88:205   */\n    tag_49:\n        /* \"#utility.yul\":197:198   */\n      0x00\n        /* \"#utility.yul\":194:195   */\n      dup1\n        /* \"#utility.yul\":187:199   */\n      revert\n        /* \"#utility.yul\":334:411   */\n    tag_51:\n        /* \"#utility.yul\":371:378   */\n      0x00\n        /* \"#utility.yul\":400:405   */\n      dup2\n        /* \"#utility.yul\":389:405   */\n      swap1\n      pop\n        /* \"#utility.yul\":334:411   */\n      swap2\n      swap1\n      pop\n      jump\t// out\n        /* \"#utility.yul\":417:539   */\n    tag_52:\n        /* \"#utility.yul\":490:514   */\n      tag_68\n        /* \"#utility.yul\":508:513   */\n      dup2\n        /* \"#utility.yul\":490:514   */\n      tag_51\n      jump\t// in\n    tag_68:\n        /* \"#utility.yul\":483:488   */\n      dup2\n        /* \"#utility.yul\":480:515   */\n      eq\n        /* \"#utility.yul\":470:533   */\n      tag_69\n      jumpi\n        /* \"#utility.yul\":529:530   */\n      0x00\n        /* \"#utility.yul\":526:527   */\n      dup1\n        /* \"#utility.yul\":519:531   */\n      revert\n        /* \"#utility.yul\":470:533   */\n    tag_69:\n        /* \"#utility.yul\":417:539   */\n      pop\n      jump\t// out\n        /* \"#utility.yul\":545:684   */\n    tag_53:\n        /* \"#utility.yul\":591:596   */\n      0x00\n        /* \"#utility.yul\":629:635   */\n      dup2\n        /* \"#utility.yul\":616:636   */\n      calldataload\n        /* \"#utility.yul\":607:636   */\n      swap1\n      pop\n        /* \"#utility.yul\":645:678   */\n      tag_71\n        /* \"#utility.yul\":672:677   */\n      dup2\n        /* \"#utility.yul\":645:678   */\n      tag_52\n      jump\t// in\n    tag_71:\n        /* \"#utility.yul\":545:684   */\n      swap3\n      swap2\n      pop\n      pop\n      jump\t// out\n        /* \"#utility.yul\":690:1019   */\n    tag_11:\n        /* \"#utility.yul\":749:755   */\n      0x00\n        /* \"#utility.yul\":798:800   */\n      0x20\n        /* \"#utility.yul\":786:795   */\n      dup3\n        /* \"#utility.yul\":777:784   */\n      dup5\n        /* \"#utility.yul\":773:796   */\n      sub\n        /* \"#utility.yul\":769:801   */\n      slt\n        /* \"#utility.yul\":766:885   */\n      iszero\n      tag_73\n      jumpi\n        /* \"#utility.yul\":804:883   */\n      tag_74\n      tag_49\n      jump\t// in\n    tag_74:\n        /* \"#utility.yul\":766:885   */\n    tag_73:\n        /* \"#utility.yul\":924:925   */\n      0x00\n        /* \"#utility.yul\":949:1002   */\n      tag_75\n        /* \"#utility.yul\":994:1001   */\n      dup5\n        /* \"#utility.yul\":985:991   */\n      dup3\n        /* \"#utility.yul\":974:983   */\n      dup6\n        /* \"#utility.yul\":970:992   */\n      add\n        /* \"#utility.yul\":949:1002   */\n      tag_53\n      jump\t// in\n    tag_75:\n        /* \"#utility.yul\":939:1002   */\n      swap2\n      pop\n        /* \"#utility.yul\":895:1012   */\n      pop\n        /* \"#utility.yul\":690:1019   */\n      swap3\n      swap2\n      pop\n      pop\n      jump\t// out\n        /* \"#utility.yul\":1025:1151   */\n    tag_54:\n        /* \"#utility.yul\":1062:1069   */\n      0x00\n        /* \"#utility.yul\":1102:1144   */\n      0xffffffffffffffffffffffffffffffffffffffff\n        /* \"#utility.yul\":1095:1100   */\n      dup3\n        /* \"#utility.yul\":1091:1145   */\n      and\n        /* \"#utility.yul\":1080:1145   */\n      swap1\n      pop\n        /* \"#utility.yul\":1025:1151   */\n      swap2\n      swap1\n      pop\n      jump\t// out\n        /* \"#utility.yul\":1157:1217   */\n    tag_55:\n        /* \"#utility.yul\":1185:1188   */\n      0x00\n        /* \"#utility.yul\":1206:1211   */\n      dup2\n        /* \"#utility.yul\":1199:1211   */\n      swap1\n      pop\n        /* \"#utility.yul\":1157:1217   */\n      swap2\n      swap1\n      pop\n      jump\t// out\n        /* \"#utility.yul\":1223:1365   */\n    tag_56:\n        /* \"#utility.yul\":1273:1282   */\n      0x00\n        /* \"#utility.yul\":1306:1359   */\n      tag_79\n        /* \"#utility.yul\":1324:1358   */\n      tag_80\n        /* \"#utility.yul\":1333:1357   */\n      tag_81\n        /* \"#utility.yul\":1351:1356   */\n      dup5\n        /* \"#utility.yul\":1333:1357   */\n      tag_54\n      jump\t// in\n    tag_81:\n        /* \"#utility.yul\":1324:1358   */\n      tag_55\n      jump\t// in\n    tag_80:\n        /* \"#utility.yul\":1306:1359   */\n      tag_54\n      jump\t// in\n    tag_79:\n        /* \"#utility.yul\":1293:1359   */\n      swap1\n      pop\n        /* \"#utility.yul\":1223:1365   */\n      swap2\n      swap1\n      pop\n      jump\t// out\n        /* \"#utility.yul\":1371:1497   */\n    tag_57:\n        /* \"#utility.yul\":1421:1430   */\n      0x00\n        /* \"#utility.yul\":1454:1491   */\n      tag_83\n        /* \"#utility.yul\":1485:1490   */\n      dup3\n        /* \"#utility.yul\":1454:1491   */\n      tag_56\n      jump\t// in\n    tag_83:\n        /* \"#utility.yul\":1441:1491   */\n      swap1\n      pop\n        /* \"#utility.yul\":1371:1497   */\n      swap2\n      swap1\n      pop\n      jump\t// out\n        /* \"#utility.yul\":1503:1649   */\n    tag_58:\n        /* \"#utility.yul\":1573:1582   */\n      0x00\n        /* \"#utility.yul\":1606:1643   */\n      tag_85\n        /* \"#utility.yul\":1637:1642   */\n      dup3\n        /* \"#utility.yul\":1606:1643   */\n      tag_57\n      jump\t// in\n    tag_85:\n        /* \"#utility.yul\":1593:1643   */\n      swap1\n      pop\n        /* \"#utility.yul\":1503:1649   */\n      swap2\n      swap1\n      pop\n      jump\t// out\n        /* \"#utility.yul\":1655:1826   */\n    tag_59:\n        /* \"#utility.yul\":1762:1819   */\n      tag_87\n        /* \"#utility.yul\":1813:1818   */\n      dup2\n        /* \"#utility.yul\":1762:1819   */\n      tag_58\n      jump\t// in\n    tag_87:\n        /* \"#utility.yul\":1757:1760   */\n      dup3\n        /* \"#utility.yul\":1750:1820   */\n      mstore\n        /* \"#utility.yul\":1655:1826   */\n      pop\n      pop\n      jump\t// out\n        /* \"#utility.yul\":1832:2094   */\n    tag_14:\n        /* \"#utility.yul\":1945:1949   */\n      0x00\n        /* \"#utility.yul\":1983:1985   */\n      0x20\n        /* \"#utility.yul\":1972:1981   */\n      dup3\n        /* \"#utility.yul\":1968:1986   */\n      add\n        /* \"#utility.yul\":1960:1986   */\n      swap1\n      pop\n        /* \"#utility.yul\":1996:2087   */\n      tag_89\n        /* \"#utility.yul\":2084:2085   */\n      0x00\n        /* \"#utility.yul\":2073:2082   */\n      dup4\n        /* \"#utility.yul\":2069:2086   */\n      add\n        /* \"#utility.yul\":2060:2066   */\n      dup5\n        /* \"#utility.yul\":1996:2087   */\n      tag_59\n      jump\t// in\n    tag_89:\n        /* \"#utility.yul\":1832:2094   */\n      swap3\n      swap2\n      pop\n      pop\n      jump\t// out\n        /* \"#utility.yul\":2100:2218   */\n    tag_60:\n        /* \"#utility.yul\":2187:2211   */\n      tag_91\n        /* \"#utility.yul\":2205:2210   */\n      dup2\n        /* \"#utility.yul\":2187:2211   */\n      tag_51\n      jump\t// in\n    tag_91:\n        /* \"#utility.yul\":2182:2185   */\n      dup3\n        /* \"#utility.yul\":2175:2212   */\n      mstore\n        /* \"#utility.yul\":2100:2218   */\n      pop\n      pop\n      jump\t// out\n        /* \"#utility.yul\":2224:2446   */\n    tag_19:\n        /* \"#utility.yul\":2317:2321   */\n      0x00\n        /* \"#utility.yul\":2355:2357   */\n      0x20\n        /* \"#utility.yul\":2344:2353   */\n      dup3\n        /* \"#utility.yul\":2340:2358   */\n      add\n        /* \"#utility.yul\":2332:2358   */\n      swap1\n      pop\n        /* \"#utility.yul\":2368:2439   */\n      tag_93\n        /* \"#utility.yul\":2436:2437   */\n      0x00\n        /* \"#utility.yul\":2425:2434   */\n      dup4\n        /* \"#utility.yul\":2421:2438   */\n      add\n        /* \"#utility.yul\":2412:2418   */\n      dup5\n        /* \"#utility.yul\":2368:2439   */\n      tag_60\n      jump\t// in\n    tag_93:\n        /* \"#utility.yul\":2224:2446   */\n      swap3\n      swap2\n      pop\n      pop\n      jump\t// out\n        /* \"#utility.yul\":2452:2926   */\n    tag_22:\n        /* \"#utility.yul\":2520:2526   */\n      0x00\n        /* \"#utility.yul\":2528:2534   */\n      dup1\n        /* \"#utility.yul\":2577:2579   */\n      0x40\n        /* \"#utility.yul\":2565:2574   */\n      dup4\n        /* \"#utility.yul\":2556:2563   */\n      dup6\n        /* \"#utility.yul\":2552:2575   */\n      sub\n        /* \"#utility.yul\":2548:2580   */\n      slt\n        /* \"#utility.yul\":2545:2664   */\n      iszero\n      tag_95\n      jumpi\n        /* \"#utility.yul\":2583:2662   */\n      tag_96\n      tag_49\n      jump\t// in\n    tag_96:\n        /* \"#utility.yul\":2545:2664   */\n    tag_95:\n        /* \"#utility.yul\":2703:2704   */\n      0x00\n        /* \"#utility.yul\":2728:2781   */\n      tag_97\n        /* \"#utility.yul\":2773:2780   */\n      dup6\n        /* \"#utility.yul\":2764:2770   */\n      dup3\n        /* \"#utility.yul\":2753:2762   */\n      dup7\n        /* \"#utility.yul\":2749:2771   */\n      add\n        /* \"#utility.yul\":2728:2781   */\n      tag_53\n      jump\t// in\n    tag_97:\n        /* \"#utility.yul\":2718:2781   */\n      swap3\n      pop\n        /* \"#utility.yul\":2674:2791   */\n      pop\n        /* \"#utility.yul\":2830:2832   */\n      0x20\n        /* \"#utility.yul\":2856:2909   */\n      tag_98\n        /* \"#utility.yul\":2901:2908   */\n      dup6\n        /* \"#utility.yul\":2892:2898   */\n      dup3\n        /* \"#utility.yul\":2881:2890   */\n      dup7\n        /* \"#utility.yul\":2877:2899   */\n      add\n        /* \"#utility.yul\":2856:2909   */\n      tag_53\n      jump\t// in\n    tag_98:\n        /* \"#utility.yul\":2846:2909   */\n      swap2\n      pop\n        /* \"#utility.yul\":2801:2919   */\n      pop\n        /* \"#utility.yul\":2452:2926   */\n      swap3\n      pop\n      swap3\n      swap1\n      pop\n      jump\t// out\n        /* \"#utility.yul\":2932:3112   */\n    tag_34:\n        /* \"#utility.yul\":2980:3057   */\n      0x4e487b7100000000000000000000000000000000000000000000000000000000\n        /* \"#utility.yul\":2977:2978   */\n      0x00\n        /* \"#utility.yul\":2970:3058   */\n      mstore\n        /* \"#utility.yul\":3077:3081   */\n      0x32\n        /* \"#utility.yul\":3074:3075   */\n      0x04\n        /* \"#utility.yul\":3067:3082   */\n      mstore\n        /* \"#utility.yul\":3101:3105   */\n      0x24\n        /* \"#utility.yul\":3098:3099   */\n      0x00\n        /* \"#utility.yul\":3091:3106   */\n      revert\n        /* \"#utility.yul\":3118:3261   */\n    tag_61:\n        /* \"#utility.yul\":3175:3180   */\n      0x00\n        /* \"#utility.yul\":3206:3212   */\n      dup2\n        /* \"#utility.yul\":3200:3213   */\n      mload\n        /* \"#utility.yul\":3191:3213   */\n      swap1\n      pop\n        /* \"#utility.yul\":3222:3255   */\n      tag_101\n        /* \"#utility.yul\":3249:3254   */\n      dup2\n        /* \"#utility.yul\":3222:3255   */\n      tag_52\n      jump\t// in\n    tag_101:\n        /* \"#utility.yul\":3118:3261   */\n      swap3\n      swap2\n      pop\n      pop\n      jump\t// out\n        /* \"#utility.yul\":3267:3618   */\n    tag_39:\n        /* \"#utility.yul\":3337:3343   */\n      0x00\n        /* \"#utility.yul\":3386:3388   */\n      0x20\n        /* \"#utility.yul\":3374:3383   */\n      dup3\n        /* \"#utility.yul\":3365:3372   */\n      dup5\n        /* \"#utility.yul\":3361:3384   */\n      sub\n        /* \"#utility.yul\":3357:3389   */\n      slt\n        /* \"#utility.yul\":3354:3473   */\n      iszero\n      tag_103\n      jumpi\n        /* \"#utility.yul\":3392:3471   */\n      tag_104\n      tag_49\n      jump\t// in\n    tag_104:\n        /* \"#utility.yul\":3354:3473   */\n    tag_103:\n        /* \"#utility.yul\":3512:3513   */\n      0x00\n        /* \"#utility.yul\":3537:3601   */\n      tag_105\n        /* \"#utility.yul\":3593:3600   */\n      dup5\n        /* \"#utility.yul\":3584:3590   */\n      dup3\n        /* \"#utility.yul\":3573:3582   */\n      dup6\n        /* \"#utility.yul\":3569:3591   */\n      add\n        /* \"#utility.yul\":3537:3601   */\n      tag_61\n      jump\t// in\n    tag_105:\n        /* \"#utility.yul\":3527:3601   */\n      swap2\n      pop\n        /* \"#utility.yul\":3483:3611   */\n      pop\n        /* \"#utility.yul\":3267:3618   */\n      swap3\n      swap2\n      pop\n      pop\n      jump\t// out\n    stop\n\n    sub_0: assembly {\n            /* \"contracts/SimpleStorage.sol\":57:4717  contract SimpleStorage{... */\n          mstore(0x40, 0x80)\n          callvalue\n          dup1\n          iszero\n          tag_1\n          jumpi\n          0x00\n          dup1\n          revert\n        tag_1:\n          pop\n          dataSize(sub_0)\n          dup1\n          dataOffset(sub_0)\n          0x00\n          codecopy\n          0x00\n          return\n        stop\n\n        sub_0: assembly {\n                /* \"contracts/SimpleStorage.sol\":57:4717  contract SimpleStorage{... */\n              mstore(0x40, 0x80)\n              callvalue\n              dup1\n              iszero\n              tag_1\n              jumpi\n              0x00\n              dup1\n              revert\n            tag_1:\n              pop\n              jumpi(tag_2, lt(calldatasize, 0x04))\n              shr(0xe0, calldataload(0x00))\n              dup1\n              0x6f760f41\n              gt\n              tag_10\n              jumpi\n              dup1\n              0x6f760f41\n              eq\n              tag_6\n              jumpi\n              dup1\n              0x8bab8dd5\n              eq\n              tag_7\n              jumpi\n              dup1\n              0x9e7a13ad\n              eq\n              tag_8\n              jumpi\n              dup1\n              0xa4607c00\n              eq\n              tag_9\n              jumpi\n              jump(tag_2)\n            tag_10:\n              dup1\n              0x2e64cec1\n              eq\n              tag_3\n              jumpi\n              dup1\n              0x471f7cdf\n              eq\n              tag_4\n              jumpi\n              dup1\n              0x6057361d\n              eq\n              tag_5\n              jumpi\n            tag_2:\n              0x00\n              dup1\n              revert\n                /* \"contracts/SimpleStorage.sol\":2646:2732  function retrieve() public view returns(uint256){... */\n            tag_3:\n              tag_11\n              tag_12\n              jump\t// in\n            tag_11:\n              mload(0x40)\n              tag_13\n              swap2\n              swap1\n              tag_14\n              jump\t// in\n            tag_13:\n              mload(0x40)\n              dup1\n              swap2\n              sub\n              swap1\n              return\n                /* \"contracts/SimpleStorage.sol\":1589:1618  uint256 public favoriteNumber */\n            tag_4:\n              tag_15\n              tag_16\n              jump\t// in\n            tag_15:\n              mload(0x40)\n              tag_17\n              swap2\n              swap1\n              tag_14\n              jump\t// in\n            tag_17:\n              mload(0x40)\n              dup1\n              swap2\n              sub\n              swap1\n              return\n                /* \"contracts/SimpleStorage.sol\":2315:2539  function store(uint256 _favoriteNumber) public virtual {    // 这里为了 ExtraStorage.sol 的继承加上了 virtual 关键字... */\n            tag_5:\n              tag_18\n              0x04\n              dup1\n              calldatasize\n              sub\n              dup2\n              add\n              swap1\n              tag_19\n              swap2\n              swap1\n              tag_20\n              jump\t// in\n            tag_19:\n              tag_21\n              jump\t// in\n            tag_18:\n              stop\n                /* \"contracts/SimpleStorage.sol\":4193:4557  function addPerson(string memory _name, uint256 _favoriteNumber) public {... */\n            tag_6:\n              tag_22\n              0x04\n              dup1\n              calldatasize\n              sub\n              dup2\n              add\n              swap1\n              tag_23\n              swap2\n              swap1\n              tag_24\n              jump\t// in\n            tag_23:\n              tag_25\n              jump\t// in\n            tag_22:\n              stop\n                /* \"contracts/SimpleStorage.sol\":2181:2235  mapping(string => uint256) public nameToFavoriteNumber */\n            tag_7:\n              tag_26\n              0x04\n              dup1\n              calldatasize\n              sub\n              dup2\n              add\n              swap1\n              tag_27\n              swap2\n              swap1\n              tag_28\n              jump\t// in\n            tag_27:\n              tag_29\n              jump\t// in\n            tag_26:\n              mload(0x40)\n              tag_30\n              swap2\n              swap1\n              tag_14\n              jump\t// in\n            tag_30:\n              mload(0x40)\n              dup1\n              swap2\n              sub\n              swap1\n              return\n                /* \"contracts/SimpleStorage.sol\":1943:1965  People[] public people */\n            tag_8:\n              tag_31\n              0x04\n              dup1\n              calldatasize\n              sub\n              dup2\n              add\n              swap1\n              tag_32\n              swap2\n              swap1\n              tag_20\n              jump\t// in\n            tag_32:\n              tag_33\n              jump\t// in\n            tag_31:\n              mload(0x40)\n              tag_34\n              swap3\n              swap2\n              swap1\n              tag_35\n              jump\t// in\n            tag_34:\n              mload(0x40)\n              dup1\n              swap2\n              sub\n              swap1\n              return\n                /* \"contracts/SimpleStorage.sol\":3169:3258  function pureFunctionExample() public pure returns(uint256){... */\n            tag_9:\n              tag_36\n              tag_37\n              jump\t// in\n            tag_36:\n              mload(0x40)\n              tag_38\n              swap2\n              swap1\n              tag_14\n              jump\t// in\n            tag_38:\n              mload(0x40)\n              dup1\n              swap2\n              sub\n              swap1\n              return\n                /* \"contracts/SimpleStorage.sol\":2646:2732  function retrieve() public view returns(uint256){... */\n            tag_12:\n                /* \"contracts/SimpleStorage.sol\":2686:2693  uint256 */\n              0x00\n                /* \"contracts/SimpleStorage.sol\":2711:2725  favoriteNumber */\n              dup1\n              sload\n                /* \"contracts/SimpleStorage.sol\":2704:2725  return favoriteNumber */\n              swap1\n              pop\n                /* \"contracts/SimpleStorage.sol\":2646:2732  function retrieve() public view returns(uint256){... */\n              swap1\n              jump\t// out\n                /* \"contracts/SimpleStorage.sol\":1589:1618  uint256 public favoriteNumber */\n            tag_16:\n              sload(0x00)\n              dup2\n              jump\t// out\n                /* \"contracts/SimpleStorage.sol\":2315:2539  function store(uint256 _favoriteNumber) public virtual {    // 这里为了 ExtraStorage.sol 的继承加上了 virtual 关键字... */\n            tag_21:\n                /* \"contracts/SimpleStorage.sol\":2470:2485  _favoriteNumber */\n              dup1\n                /* \"contracts/SimpleStorage.sol\":2453:2467  favoriteNumber */\n              0x00\n                /* \"contracts/SimpleStorage.sol\":2453:2485  favoriteNumber = _favoriteNumber */\n              dup2\n              swap1\n              sstore\n              pop\n                /* \"contracts/SimpleStorage.sol\":2529:2530  1 */\n              0x01\n                /* \"contracts/SimpleStorage.sol\":2512:2526  favoriteNumber */\n              sload(0x00)\n                /* \"contracts/SimpleStorage.sol\":2512:2530  favoriteNumber + 1 */\n              tag_41\n              swap2\n              swap1\n              tag_42\n              jump\t// in\n            tag_41:\n                /* \"contracts/SimpleStorage.sol\":2495:2509  favoriteNumber */\n              0x00\n                /* \"contracts/SimpleStorage.sol\":2495:2530  favoriteNumber = favoriteNumber + 1 */\n              dup2\n              swap1\n              sstore\n              pop\n                /* \"contracts/SimpleStorage.sol\":2315:2539  function store(uint256 _favoriteNumber) public virtual {    // 这里为了 ExtraStorage.sol 的继承加上了 virtual 关键字... */\n              pop\n              jump\t// out\n                /* \"contracts/SimpleStorage.sol\":4193:4557  function addPerson(string memory _name, uint256 _favoriteNumber) public {... */\n            tag_25:\n                /* \"contracts/SimpleStorage.sol\":4275:4298  People memory newPerson */\n              0x00\n                /* \"contracts/SimpleStorage.sol\":4301:4355  People({favoriteNumber: _favoriteNumber, name: _name}) */\n              mload(0x40)\n              dup1\n              0x40\n              add\n              0x40\n              mstore\n              dup1\n                /* \"contracts/SimpleStorage.sol\":4325:4340  _favoriteNumber */\n              dup4\n                /* \"contracts/SimpleStorage.sol\":4301:4355  People({favoriteNumber: _favoriteNumber, name: _name}) */\n              dup2\n              mstore\n              0x20\n              add\n                /* \"contracts/SimpleStorage.sol\":4348:4353  _name */\n              dup5\n                /* \"contracts/SimpleStorage.sol\":4301:4355  People({favoriteNumber: _favoriteNumber, name: _name}) */\n              dup2\n              mstore\n              pop\n                /* \"contracts/SimpleStorage.sol\":4275:4355  People memory newPerson = People({favoriteNumber: _favoriteNumber, name: _name}) */\n              swap1\n              pop\n                /* \"contracts/SimpleStorage.sol\":4365:4371  people */\n              0x01\n                /* \"contracts/SimpleStorage.sol\":4377:4386  newPerson */\n              dup2\n                /* \"contracts/SimpleStorage.sol\":4365:4387  people.push(newPerson) */\n              swap1\n              dup1\n              0x01\n              dup2\n              sload\n              add\n              dup1\n              dup3\n              sstore\n              dup1\n              swap2\n              pop\n              pop\n              0x01\n              swap1\n              sub\n              swap1\n              0x00\n              mstore\n              keccak256(0x00, 0x20)\n              swap1\n              0x02\n              mul\n              add\n              0x00\n              swap1\n              swap2\n              swap1\n              swap2\n              swap1\n              swap2\n              pop\n              0x00\n              dup3\n              add\n              mload\n              dup2\n              0x00\n              add\n              sstore\n              0x20\n              dup3\n              add\n              mload\n              dup2\n              0x01\n              add\n              swap1\n              dup2\n              tag_45\n              swap2\n              swap1\n              tag_46\n              jump\t// in\n            tag_45:\n              pop\n              pop\n              pop\n                /* \"contracts/SimpleStorage.sol\":4490:4505  _favoriteNumber */\n              dup2\n                /* \"contracts/SimpleStorage.sol\":4460:4480  nameToFavoriteNumber */\n              0x02\n                /* \"contracts/SimpleStorage.sol\":4481:4486  _name */\n              dup5\n                /* \"contracts/SimpleStorage.sol\":4460:4487  nameToFavoriteNumber[_name] */\n              mload(0x40)\n              tag_47\n              swap2\n              swap1\n              tag_48\n              jump\t// in\n            tag_47:\n              swap1\n              dup2\n              mstore\n              0x20\n              add\n              mload(0x40)\n              dup1\n              swap2\n              sub\n              swap1\n              keccak256\n                /* \"contracts/SimpleStorage.sol\":4460:4505  nameToFavoriteNumber[_name] = _favoriteNumber */\n              dup2\n              swap1\n              sstore\n              pop\n                /* \"contracts/SimpleStorage.sol\":4265:4557  {... */\n              pop\n                /* \"contracts/SimpleStorage.sol\":4193:4557  function addPerson(string memory _name, uint256 _favoriteNumber) public {... */\n              pop\n              pop\n              jump\t// out\n                /* \"contracts/SimpleStorage.sol\":2181:2235  mapping(string => uint256) public nameToFavoriteNumber */\n            tag_29:\n              0x02\n              dup2\n              dup1\n              mload\n              0x20\n              dup2\n              add\n              dup3\n              add\n              dup1\n              mload\n              dup5\n              dup3\n              mstore\n              0x20\n              dup4\n              add\n              0x20\n              dup6\n              add\n              keccak256\n              dup2\n              dup4\n              mstore\n              dup1\n              swap6\n              pop\n              pop\n              pop\n              pop\n              pop\n              pop\n              0x00\n              swap2\n              pop\n              swap1\n              pop\n              sload\n              dup2\n              jump\t// out\n                /* \"contracts/SimpleStorage.sol\":1943:1965  People[] public people */\n            tag_33:\n              0x01\n              dup2\n              dup2\n              sload\n              dup2\n              lt\n              tag_49\n              jumpi\n              0x00\n              dup1\n              revert\n            tag_49:\n              swap1\n              0x00\n              mstore\n              keccak256(0x00, 0x20)\n              swap1\n              0x02\n              mul\n              add\n              0x00\n              swap2\n              pop\n              swap1\n              pop\n              dup1\n              0x00\n              add\n              sload\n              swap1\n              dup1\n              0x01\n              add\n              dup1\n              sload\n              tag_51\n              swap1\n              tag_52\n              jump\t// in\n            tag_51:\n              dup1\n              0x1f\n              add\n              0x20\n              dup1\n              swap2\n              div\n              mul\n              0x20\n              add\n              mload(0x40)\n              swap1\n              dup2\n              add\n              0x40\n              mstore\n              dup1\n              swap3\n              swap2\n              swap1\n              dup2\n              dup2\n              mstore\n              0x20\n              add\n              dup3\n              dup1\n              sload\n              tag_53\n              swap1\n              tag_52\n              jump\t// in\n            tag_53:\n              dup1\n              iszero\n              tag_54\n              jumpi\n              dup1\n              0x1f\n              lt\n              tag_55\n              jumpi\n              0x0100\n              dup1\n              dup4\n              sload\n              div\n              mul\n              dup4\n              mstore\n              swap2\n              0x20\n              add\n              swap2\n              jump(tag_54)\n            tag_55:\n              dup3\n              add\n              swap2\n              swap1\n              0x00\n              mstore\n              keccak256(0x00, 0x20)\n              swap1\n            tag_56:\n              dup2\n              sload\n              dup2\n              mstore\n              swap1\n              0x01\n              add\n              swap1\n              0x20\n              add\n              dup1\n              dup4\n              gt\n              tag_56\n              jumpi\n              dup3\n              swap1\n              sub\n              0x1f\n              and\n              dup3\n              add\n              swap2\n            tag_54:\n              pop\n              pop\n              pop\n              pop\n              pop\n              swap1\n              pop\n              dup3\n              jump\t// out\n                /* \"contracts/SimpleStorage.sol\":3169:3258  function pureFunctionExample() public pure returns(uint256){... */\n            tag_37:\n                /* \"contracts/SimpleStorage.sol\":3220:3227  uint256 */\n              0x00\n                /* \"contracts/SimpleStorage.sol\":3246:3249  4+5 */\n              0x09\n                /* \"contracts/SimpleStorage.sol\":3238:3250  return (4+5) */\n              swap1\n              pop\n                /* \"contracts/SimpleStorage.sol\":3169:3258  function pureFunctionExample() public pure returns(uint256){... */\n              swap1\n              jump\t// out\n                /* \"#utility.yul\":7:84   */\n            tag_58:\n                /* \"#utility.yul\":44:51   */\n              0x00\n                /* \"#utility.yul\":73:78   */\n              dup2\n                /* \"#utility.yul\":62:78   */\n              swap1\n              pop\n                /* \"#utility.yul\":7:84   */\n              swap2\n              swap1\n              pop\n              jump\t// out\n                /* \"#utility.yul\":90:208   */\n            tag_59:\n                /* \"#utility.yul\":177:201   */\n              tag_101\n                /* \"#utility.yul\":195:200   */\n              dup2\n                /* \"#utility.yul\":177:201   */\n              tag_58\n              jump\t// in\n            tag_101:\n                /* \"#utility.yul\":172:175   */\n              dup3\n                /* \"#utility.yul\":165:202   */\n              mstore\n                /* \"#utility.yul\":90:208   */\n              pop\n              pop\n              jump\t// out\n                /* \"#utility.yul\":214:436   */\n            tag_14:\n                /* \"#utility.yul\":307:311   */\n              0x00\n                /* \"#utility.yul\":345:347   */\n              0x20\n                /* \"#utility.yul\":334:343   */\n              dup3\n                /* \"#utility.yul\":330:348   */\n              add\n                /* \"#utility.yul\":322:348   */\n              swap1\n              pop\n                /* \"#utility.yul\":358:429   */\n              tag_103\n                /* \"#utility.yul\":426:427   */\n              0x00\n                /* \"#utility.yul\":415:424   */\n              dup4\n                /* \"#utility.yul\":411:428   */\n              add\n                /* \"#utility.yul\":402:408   */\n              dup5\n                /* \"#utility.yul\":358:429   */\n              tag_59\n              jump\t// in\n            tag_103:\n                /* \"#utility.yul\":214:436   */\n              swap3\n              swap2\n              pop\n              pop\n              jump\t// out\n                /* \"#utility.yul\":442:517   */\n            tag_60:\n                /* \"#utility.yul\":475:481   */\n              0x00\n                /* \"#utility.yul\":508:510   */\n              0x40\n                /* \"#utility.yul\":502:511   */\n              mload\n                /* \"#utility.yul\":492:511   */\n              swap1\n              pop\n                /* \"#utility.yul\":442:517   */\n              swap1\n              jump\t// out\n                /* \"#utility.yul\":523:640   */\n            tag_61:\n                /* \"#utility.yul\":632:633   */\n              0x00\n                /* \"#utility.yul\":629:630   */\n              dup1\n                /* \"#utility.yul\":622:634   */\n              revert\n                /* \"#utility.yul\":646:763   */\n            tag_62:\n                /* \"#utility.yul\":755:756   */\n              0x00\n                /* \"#utility.yul\":752:753   */\n              dup1\n                /* \"#utility.yul\":745:757   */\n              revert\n                /* \"#utility.yul\":769:891   */\n            tag_63:\n                /* \"#utility.yul\":842:866   */\n              tag_108\n                /* \"#utility.yul\":860:865   */\n              dup2\n                /* \"#utility.yul\":842:866   */\n              tag_58\n              jump\t// in\n            tag_108:\n                /* \"#utility.yul\":835:840   */\n              dup2\n                /* \"#utility.yul\":832:867   */\n              eq\n                /* \"#utility.yul\":822:885   */\n              tag_109\n              jumpi\n                /* \"#utility.yul\":881:882   */\n              0x00\n                /* \"#utility.yul\":878:879   */\n              dup1\n                /* \"#utility.yul\":871:883   */\n              revert\n                /* \"#utility.yul\":822:885   */\n            tag_109:\n                /* \"#utility.yul\":769:891   */\n              pop\n              jump\t// out\n                /* \"#utility.yul\":897:1036   */\n            tag_64:\n                /* \"#utility.yul\":943:948   */\n              0x00\n                /* \"#utility.yul\":981:987   */\n              dup2\n                /* \"#utility.yul\":968:988   */\n              calldataload\n                /* \"#utility.yul\":959:988   */\n              swap1\n              pop\n                /* \"#utility.yul\":997:1030   */\n              tag_111\n                /* \"#utility.yul\":1024:1029   */\n              dup2\n                /* \"#utility.yul\":997:1030   */\n              tag_63\n              jump\t// in\n            tag_111:\n                /* \"#utility.yul\":897:1036   */\n              swap3\n              swap2\n              pop\n              pop\n              jump\t// out\n                /* \"#utility.yul\":1042:1371   */\n            tag_20:\n                /* \"#utility.yul\":1101:1107   */\n              0x00\n                /* \"#utility.yul\":1150:1152   */\n              0x20\n                /* \"#utility.yul\":1138:1147   */\n              dup3\n                /* \"#utility.yul\":1129:1136   */\n              dup5\n                /* \"#utility.yul\":1125:1148   */\n              sub\n                /* \"#utility.yul\":1121:1153   */\n              slt\n                /* \"#utility.yul\":1118:1237   */\n              iszero\n              tag_113\n              jumpi\n                /* \"#utility.yul\":1156:1235   */\n              tag_114\n              tag_61\n              jump\t// in\n            tag_114:\n                /* \"#utility.yul\":1118:1237   */\n            tag_113:\n                /* \"#utility.yul\":1276:1277   */\n              0x00\n                /* \"#utility.yul\":1301:1354   */\n              tag_115\n                /* \"#utility.yul\":1346:1353   */\n              dup5\n                /* \"#utility.yul\":1337:1343   */\n              dup3\n                /* \"#utility.yul\":1326:1335   */\n              dup6\n                /* \"#utility.yul\":1322:1344   */\n              add\n                /* \"#utility.yul\":1301:1354   */\n              tag_64\n              jump\t// in\n            tag_115:\n                /* \"#utility.yul\":1291:1354   */\n              swap2\n              pop\n                /* \"#utility.yul\":1247:1364   */\n              pop\n                /* \"#utility.yul\":1042:1371   */\n              swap3\n              swap2\n              pop\n              pop\n              jump\t// out\n                /* \"#utility.yul\":1377:1494   */\n            tag_65:\n                /* \"#utility.yul\":1486:1487   */\n              0x00\n                /* \"#utility.yul\":1483:1484   */\n              dup1\n                /* \"#utility.yul\":1476:1488   */\n              revert\n                /* \"#utility.yul\":1500:1617   */\n            tag_66:\n                /* \"#utility.yul\":1609:1610   */\n              0x00\n                /* \"#utility.yul\":1606:1607   */\n              dup1\n                /* \"#utility.yul\":1599:1611   */\n              revert\n                /* \"#utility.yul\":1623:1725   */\n            tag_67:\n                /* \"#utility.yul\":1664:1670   */\n              0x00\n                /* \"#utility.yul\":1715:1717   */\n              0x1f\n                /* \"#utility.yul\":1711:1718   */\n              not\n                /* \"#utility.yul\":1706:1708   */\n              0x1f\n                /* \"#utility.yul\":1699:1704   */\n              dup4\n                /* \"#utility.yul\":1695:1709   */\n              add\n                /* \"#utility.yul\":1691:1719   */\n              and\n                /* \"#utility.yul\":1681:1719   */\n              swap1\n              pop\n                /* \"#utility.yul\":1623:1725   */\n              swap2\n              swap1\n              pop\n              jump\t// out\n                /* \"#utility.yul\":1731:1911   */\n            tag_68:\n                /* \"#utility.yul\":1779:1856   */\n              0x4e487b7100000000000000000000000000000000000000000000000000000000\n                /* \"#utility.yul\":1776:1777   */\n              0x00\n                /* \"#utility.yul\":1769:1857   */\n              mstore\n                /* \"#utility.yul\":1876:1880   */\n              0x41\n                /* \"#utility.yul\":1873:1874   */\n              0x04\n                /* \"#utility.yul\":1866:1881   */\n              mstore\n                /* \"#utility.yul\":1900:1904   */\n              0x24\n                /* \"#utility.yul\":1897:1898   */\n              0x00\n                /* \"#utility.yul\":1890:1905   */\n              revert\n                /* \"#utility.yul\":1917:2198   */\n            tag_69:\n                /* \"#utility.yul\":2000:2027   */\n              tag_121\n                /* \"#utility.yul\":2022:2026   */\n              dup3\n                /* \"#utility.yul\":2000:2027   */\n              tag_67\n              jump\t// in\n            tag_121:\n                /* \"#utility.yul\":1992:1998   */\n              dup2\n                /* \"#utility.yul\":1988:2028   */\n              add\n                /* \"#utility.yul\":2130:2136   */\n              dup2\n                /* \"#utility.yul\":2118:2128   */\n              dup2\n                /* \"#utility.yul\":2115:2137   */\n              lt\n                /* \"#utility.yul\":2094:2112   */\n              0xffffffffffffffff\n                /* \"#utility.yul\":2082:2092   */\n              dup3\n                /* \"#utility.yul\":2079:2113   */\n              gt\n                /* \"#utility.yul\":2076:2138   */\n              or\n                /* \"#utility.yul\":2073:2161   */\n              iszero\n              tag_122\n              jumpi\n                /* \"#utility.yul\":2141:2159   */\n              tag_123\n              tag_68\n              jump\t// in\n            tag_123:\n                /* \"#utility.yul\":2073:2161   */\n            tag_122:\n                /* \"#utility.yul\":2181:2191   */\n              dup1\n                /* \"#utility.yul\":2177:2179   */\n              0x40\n                /* \"#utility.yul\":2170:2192   */\n              mstore\n                /* \"#utility.yul\":1960:2198   */\n              pop\n                /* \"#utility.yul\":1917:2198   */\n              pop\n              pop\n              jump\t// out\n                /* \"#utility.yul\":2204:2333   */\n            tag_70:\n                /* \"#utility.yul\":2238:2244   */\n              0x00\n                /* \"#utility.yul\":2265:2285   */\n              tag_125\n              tag_60\n              jump\t// in\n            tag_125:\n                /* \"#utility.yul\":2255:2285   */\n              swap1\n              pop\n                /* \"#utility.yul\":2294:2327   */\n              tag_126\n                /* \"#utility.yul\":2322:2326   */\n              dup3\n                /* \"#utility.yul\":2314:2320   */\n              dup3\n                /* \"#utility.yul\":2294:2327   */\n              tag_69\n              jump\t// in\n            tag_126:\n                /* \"#utility.yul\":2204:2333   */\n              swap2\n              swap1\n              pop\n              jump\t// out\n                /* \"#utility.yul\":2339:2647   */\n            tag_71:\n                /* \"#utility.yul\":2401:2405   */\n              0x00\n                /* \"#utility.yul\":2491:2509   */\n              0xffffffffffffffff\n                /* \"#utility.yul\":2483:2489   */\n              dup3\n                /* \"#utility.yul\":2480:2510   */\n              gt\n                /* \"#utility.yul\":2477:2533   */\n              iszero\n              tag_128\n              jumpi\n                /* \"#utility.yul\":2513:2531   */\n              tag_129\n              tag_68\n              jump\t// in\n            tag_129:\n                /* \"#utility.yul\":2477:2533   */\n            tag_128:\n                /* \"#utility.yul\":2551:2580   */\n              tag_130\n                /* \"#utility.yul\":2573:2579   */\n              dup3\n                /* \"#utility.yul\":2551:2580   */\n              tag_67\n              jump\t// in\n            tag_130:\n                /* \"#utility.yul\":2543:2580   */\n              swap1\n              pop\n                /* \"#utility.yul\":2635:2639   */\n              0x20\n                /* \"#utility.yul\":2629:2633   */\n              dup2\n                /* \"#utility.yul\":2625:2640   */\n              add\n                /* \"#utility.yul\":2617:2640   */\n              swap1\n              pop\n                /* \"#utility.yul\":2339:2647   */\n              swap2\n              swap1\n              pop\n              jump\t// out\n                /* \"#utility.yul\":2653:2801   */\n            tag_72:\n                /* \"#utility.yul\":2751:2757   */\n              dup3\n                /* \"#utility.yul\":2746:2749   */\n              dup2\n                /* \"#utility.yul\":2741:2744   */\n              dup4\n                /* \"#utility.yul\":2728:2758   */\n              calldatacopy\n                /* \"#utility.yul\":2792:2793   */\n              0x00\n                /* \"#utility.yul\":2783:2789   */\n              dup4\n                /* \"#utility.yul\":2778:2781   */\n              dup4\n                /* \"#utility.yul\":2774:2790   */\n              add\n                /* \"#utility.yul\":2767:2794   */\n              mstore\n                /* \"#utility.yul\":2653:2801   */\n              pop\n              pop\n              pop\n              jump\t// out\n                /* \"#utility.yul\":2807:3232   */\n            tag_73:\n                /* \"#utility.yul\":2885:2890   */\n              0x00\n                /* \"#utility.yul\":2910:2976   */\n              tag_133\n                /* \"#utility.yul\":2926:2975   */\n              tag_134\n                /* \"#utility.yul\":2968:2974   */\n              dup5\n                /* \"#utility.yul\":2926:2975   */\n              tag_71\n              jump\t// in\n            tag_134:\n                /* \"#utility.yul\":2910:2976   */\n              tag_70\n              jump\t// in\n            tag_133:\n                /* \"#utility.yul\":2901:2976   */\n              swap1\n              pop\n                /* \"#utility.yul\":2999:3005   */\n              dup3\n                /* \"#utility.yul\":2992:2997   */\n              dup2\n                /* \"#utility.yul\":2985:3006   */\n              mstore\n                /* \"#utility.yul\":3037:3041   */\n              0x20\n                /* \"#utility.yul\":3030:3035   */\n              dup2\n                /* \"#utility.yul\":3026:3042   */\n              add\n                /* \"#utility.yul\":3075:3078   */\n              dup5\n                /* \"#utility.yul\":3066:3072   */\n              dup5\n                /* \"#utility.yul\":3061:3064   */\n              dup5\n                /* \"#utility.yul\":3057:3073   */\n              add\n                /* \"#utility.yul\":3054:3079   */\n              gt\n                /* \"#utility.yul\":3051:3163   */\n              iszero\n              tag_135\n              jumpi\n                /* \"#utility.yul\":3082:3161   */\n              tag_136\n              tag_66\n              jump\t// in\n            tag_136:\n                /* \"#utility.yul\":3051:3163   */\n            tag_135:\n                /* \"#utility.yul\":3172:3226   */\n              tag_137\n                /* \"#utility.yul\":3219:3225   */\n              dup5\n                /* \"#utility.yul\":3214:3217   */\n              dup3\n                /* \"#utility.yul\":3209:3212   */\n              dup6\n                /* \"#utility.yul\":3172:3226   */\n              tag_72\n              jump\t// in\n            tag_137:\n                /* \"#utility.yul\":2891:3232   */\n              pop\n                /* \"#utility.yul\":2807:3232   */\n              swap4\n              swap3\n              pop\n              pop\n              pop\n              jump\t// out\n                /* \"#utility.yul\":3252:3592   */\n            tag_74:\n                /* \"#utility.yul\":3308:3313   */\n              0x00\n                /* \"#utility.yul\":3357:3360   */\n              dup3\n                /* \"#utility.yul\":3350:3354   */\n              0x1f\n                /* \"#utility.yul\":3342:3348   */\n              dup4\n                /* \"#utility.yul\":3338:3355   */\n              add\n                /* \"#utility.yul\":3334:3361   */\n              slt\n                /* \"#utility.yul\":3324:3446   */\n              tag_139\n              jumpi\n                /* \"#utility.yul\":3365:3444   */\n              tag_140\n              tag_65\n              jump\t// in\n            tag_140:\n                /* \"#utility.yul\":3324:3446   */\n            tag_139:\n                /* \"#utility.yul\":3482:3488   */\n              dup2\n                /* \"#utility.yul\":3469:3489   */\n              calldataload\n                /* \"#utility.yul\":3507:3586   */\n              tag_141\n                /* \"#utility.yul\":3582:3585   */\n              dup5\n                /* \"#utility.yul\":3574:3580   */\n              dup3\n                /* \"#utility.yul\":3567:3571   */\n              0x20\n                /* \"#utility.yul\":3559:3565   */\n              dup7\n                /* \"#utility.yul\":3555:3572   */\n              add\n                /* \"#utility.yul\":3507:3586   */\n              tag_73\n              jump\t// in\n            tag_141:\n                /* \"#utility.yul\":3498:3586   */\n              swap2\n              pop\n                /* \"#utility.yul\":3314:3592   */\n              pop\n                /* \"#utility.yul\":3252:3592   */\n              swap3\n              swap2\n              pop\n              pop\n              jump\t// out\n                /* \"#utility.yul\":3598:4252   */\n            tag_24:\n                /* \"#utility.yul\":3676:3682   */\n              0x00\n                /* \"#utility.yul\":3684:3690   */\n              dup1\n                /* \"#utility.yul\":3733:3735   */\n              0x40\n                /* \"#utility.yul\":3721:3730   */\n              dup4\n                /* \"#utility.yul\":3712:3719   */\n              dup6\n                /* \"#utility.yul\":3708:3731   */\n              sub\n                /* \"#utility.yul\":3704:3736   */\n              slt\n                /* \"#utility.yul\":3701:3820   */\n              iszero\n              tag_143\n              jumpi\n                /* \"#utility.yul\":3739:3818   */\n              tag_144\n              tag_61\n              jump\t// in\n            tag_144:\n                /* \"#utility.yul\":3701:3820   */\n            tag_143:\n                /* \"#utility.yul\":3887:3888   */\n              0x00\n                /* \"#utility.yul\":3876:3885   */\n              dup4\n                /* \"#utility.yul\":3872:3889   */\n              add\n                /* \"#utility.yul\":3859:3890   */\n              calldataload\n                /* \"#utility.yul\":3917:3935   */\n              0xffffffffffffffff\n                /* \"#utility.yul\":3909:3915   */\n              dup2\n                /* \"#utility.yul\":3906:3936   */\n              gt\n                /* \"#utility.yul\":3903:4020   */\n              iszero\n              tag_145\n              jumpi\n                /* \"#utility.yul\":3939:4018   */\n              tag_146\n              tag_62\n              jump\t// in\n            tag_146:\n                /* \"#utility.yul\":3903:4020   */\n            tag_145:\n                /* \"#utility.yul\":4044:4107   */\n              tag_147\n                /* \"#utility.yul\":4099:4106   */\n              dup6\n                /* \"#utility.yul\":4090:4096   */\n              dup3\n                /* \"#utility.yul\":4079:4088   */\n              dup7\n                /* \"#utility.yul\":4075:4097   */\n              add\n                /* \"#utility.yul\":4044:4107   */\n              tag_74\n              jump\t// in\n            tag_147:\n                /* \"#utility.yul\":4034:4107   */\n              swap3\n              pop\n                /* \"#utility.yul\":3830:4117   */\n              pop\n                /* \"#utility.yul\":4156:4158   */\n              0x20\n                /* \"#utility.yul\":4182:4235   */\n              tag_148\n                /* \"#utility.yul\":4227:4234   */\n              dup6\n                /* \"#utility.yul\":4218:4224   */\n              dup3\n                /* \"#utility.yul\":4207:4216   */\n              dup7\n                /* \"#utility.yul\":4203:4225   */\n              add\n                /* \"#utility.yul\":4182:4235   */\n              tag_64\n              jump\t// in\n            tag_148:\n                /* \"#utility.yul\":4172:4235   */\n              swap2\n              pop\n                /* \"#utility.yul\":4127:4245   */\n              pop\n                /* \"#utility.yul\":3598:4252   */\n              swap3\n              pop\n              swap3\n              swap1\n              pop\n              jump\t// out\n                /* \"#utility.yul\":4258:4767   */\n            tag_28:\n                /* \"#utility.yul\":4327:4333   */\n              0x00\n                /* \"#utility.yul\":4376:4378   */\n              0x20\n                /* \"#utility.yul\":4364:4373   */\n              dup3\n                /* \"#utility.yul\":4355:4362   */\n              dup5\n                /* \"#utility.yul\":4351:4374   */\n              sub\n                /* \"#utility.yul\":4347:4379   */\n              slt\n                /* \"#utility.yul\":4344:4463   */\n              iszero\n              tag_150\n              jumpi\n                /* \"#utility.yul\":4382:4461   */\n              tag_151\n              tag_61\n              jump\t// in\n            tag_151:\n                /* \"#utility.yul\":4344:4463   */\n            tag_150:\n                /* \"#utility.yul\":4530:4531   */\n              0x00\n                /* \"#utility.yul\":4519:4528   */\n              dup3\n                /* \"#utility.yul\":4515:4532   */\n              add\n                /* \"#utility.yul\":4502:4533   */\n              calldataload\n                /* \"#utility.yul\":4560:4578   */\n              0xffffffffffffffff\n                /* \"#utility.yul\":4552:4558   */\n              dup2\n                /* \"#utility.yul\":4549:4579   */\n              gt\n                /* \"#utility.yul\":4546:4663   */\n              iszero\n              tag_152\n              jumpi\n                /* \"#utility.yul\":4582:4661   */\n              tag_153\n              tag_62\n              jump\t// in\n            tag_153:\n                /* \"#utility.yul\":4546:4663   */\n            tag_152:\n                /* \"#utility.yul\":4687:4750   */\n              tag_154\n                /* \"#utility.yul\":4742:4749   */\n              dup5\n                /* \"#utility.yul\":4733:4739   */\n              dup3\n                /* \"#utility.yul\":4722:4731   */\n              dup6\n                /* \"#utility.yul\":4718:4740   */\n              add\n                /* \"#utility.yul\":4687:4750   */\n              tag_74\n              jump\t// in\n            tag_154:\n                /* \"#utility.yul\":4677:4750   */\n              swap2\n              pop\n                /* \"#utility.yul\":4473:4760   */\n              pop\n                /* \"#utility.yul\":4258:4767   */\n              swap3\n              swap2\n              pop\n              pop\n              jump\t// out\n                /* \"#utility.yul\":4773:4872   */\n            tag_75:\n                /* \"#utility.yul\":4825:4831   */\n              0x00\n                /* \"#utility.yul\":4859:4864   */\n              dup2\n                /* \"#utility.yul\":4853:4865   */\n              mload\n                /* \"#utility.yul\":4843:4865   */\n              swap1\n              pop\n                /* \"#utility.yul\":4773:4872   */\n              swap2\n              swap1\n              pop\n              jump\t// out\n                /* \"#utility.yul\":4878:5047   */\n            tag_76:\n                /* \"#utility.yul\":4962:4973   */\n              0x00\n                /* \"#utility.yul\":4996:5002   */\n              dup3\n                /* \"#utility.yul\":4991:4994   */\n              dup3\n                /* \"#utility.yul\":4984:5003   */\n              mstore\n                /* \"#utility.yul\":5036:5040   */\n              0x20\n                /* \"#utility.yul\":5031:5034   */\n              dup3\n                /* \"#utility.yul\":5027:5041   */\n              add\n                /* \"#utility.yul\":5012:5041   */\n              swap1\n              pop\n                /* \"#utility.yul\":4878:5047   */\n              swap3\n              swap2\n              pop\n              pop\n              jump\t// out\n                /* \"#utility.yul\":5053:5192   */\n            tag_77:\n                /* \"#utility.yul\":5142:5148   */\n              dup3\n                /* \"#utility.yul\":5137:5140   */\n              dup2\n                /* \"#utility.yul\":5132:5135   */\n              dup4\n                /* \"#utility.yul\":5126:5149   */\n              mcopy\n                /* \"#utility.yul\":5183:5184   */\n              0x00\n                /* \"#utility.yul\":5174:5180   */\n              dup4\n                /* \"#utility.yul\":5169:5172   */\n              dup4\n                /* \"#utility.yul\":5165:5181   */\n              add\n                /* \"#utility.yul\":5158:5185   */\n              mstore\n                /* \"#utility.yul\":5053:5192   */\n              pop\n              pop\n              pop\n              jump\t// out\n                /* \"#utility.yul\":5198:5575   */\n            tag_78:\n                /* \"#utility.yul\":5286:5289   */\n              0x00\n                /* \"#utility.yul\":5314:5353   */\n              tag_159\n                /* \"#utility.yul\":5347:5352   */\n              dup3\n                /* \"#utility.yul\":5314:5353   */\n              tag_75\n              jump\t// in\n            tag_159:\n                /* \"#utility.yul\":5369:5440   */\n              tag_160\n                /* \"#utility.yul\":5433:5439   */\n              dup2\n                /* \"#utility.yul\":5428:5431   */\n              dup6\n                /* \"#utility.yul\":5369:5440   */\n              tag_76\n              jump\t// in\n            tag_160:\n                /* \"#utility.yul\":5362:5440   */\n              swap4\n              pop\n                /* \"#utility.yul\":5449:5514   */\n              tag_161\n                /* \"#utility.yul\":5507:5513   */\n              dup2\n                /* \"#utility.yul\":5502:5505   */\n              dup6\n                /* \"#utility.yul\":5495:5499   */\n              0x20\n                /* \"#utility.yul\":5488:5493   */\n              dup7\n                /* \"#utility.yul\":5484:5500   */\n              add\n                /* \"#utility.yul\":5449:5514   */\n              tag_77\n              jump\t// in\n            tag_161:\n                /* \"#utility.yul\":5539:5568   */\n              tag_162\n                /* \"#utility.yul\":5561:5567   */\n              dup2\n                /* \"#utility.yul\":5539:5568   */\n              tag_67\n              jump\t// in\n            tag_162:\n                /* \"#utility.yul\":5534:5537   */\n              dup5\n                /* \"#utility.yul\":5530:5569   */\n              add\n                /* \"#utility.yul\":5523:5569   */\n              swap2\n              pop\n                /* \"#utility.yul\":5290:5575   */\n              pop\n                /* \"#utility.yul\":5198:5575   */\n              swap3\n              swap2\n              pop\n              pop\n              jump\t// out\n                /* \"#utility.yul\":5581:6004   */\n            tag_35:\n                /* \"#utility.yul\":5722:5726   */\n              0x00\n                /* \"#utility.yul\":5760:5762   */\n              0x40\n                /* \"#utility.yul\":5749:5758   */\n              dup3\n                /* \"#utility.yul\":5745:5763   */\n              add\n                /* \"#utility.yul\":5737:5763   */\n              swap1\n              pop\n                /* \"#utility.yul\":5773:5844   */\n              tag_164\n                /* \"#utility.yul\":5841:5842   */\n              0x00\n                /* \"#utility.yul\":5830:5839   */\n              dup4\n                /* \"#utility.yul\":5826:5843   */\n              add\n                /* \"#utility.yul\":5817:5823   */\n              dup6\n                /* \"#utility.yul\":5773:5844   */\n              tag_59\n              jump\t// in\n            tag_164:\n                /* \"#utility.yul\":5891:5900   */\n              dup2\n                /* \"#utility.yul\":5885:5889   */\n              dup2\n                /* \"#utility.yul\":5881:5901   */\n              sub\n                /* \"#utility.yul\":5876:5878   */\n              0x20\n                /* \"#utility.yul\":5865:5874   */\n              dup4\n                /* \"#utility.yul\":5861:5879   */\n              add\n                /* \"#utility.yul\":5854:5902   */\n              mstore\n                /* \"#utility.yul\":5919:5997   */\n              tag_165\n                /* \"#utility.yul\":5992:5996   */\n              dup2\n                /* \"#utility.yul\":5983:5989   */\n              dup5\n                /* \"#utility.yul\":5919:5997   */\n              tag_78\n              jump\t// in\n            tag_165:\n                /* \"#utility.yul\":5911:5997   */\n              swap1\n              pop\n                /* \"#utility.yul\":5581:6004   */\n              swap4\n              swap3\n              pop\n              pop\n              pop\n              jump\t// out\n                /* \"#utility.yul\":6010:6190   */\n            tag_79:\n                /* \"#utility.yul\":6058:6135   */\n              0x4e487b7100000000000000000000000000000000000000000000000000000000\n                /* \"#utility.yul\":6055:6056   */\n              0x00\n                /* \"#utility.yul\":6048:6136   */\n              mstore\n                /* \"#utility.yul\":6155:6159   */\n              0x11\n                /* \"#utility.yul\":6152:6153   */\n              0x04\n                /* \"#utility.yul\":6145:6160   */\n              mstore\n                /* \"#utility.yul\":6179:6183   */\n              0x24\n                /* \"#utility.yul\":6176:6177   */\n              0x00\n                /* \"#utility.yul\":6169:6184   */\n              revert\n                /* \"#utility.yul\":6196:6387   */\n            tag_42:\n                /* \"#utility.yul\":6236:6239   */\n              0x00\n                /* \"#utility.yul\":6255:6275   */\n              tag_168\n                /* \"#utility.yul\":6273:6274   */\n              dup3\n                /* \"#utility.yul\":6255:6275   */\n              tag_58\n              jump\t// in\n            tag_168:\n                /* \"#utility.yul\":6250:6275   */\n              swap2\n              pop\n                /* \"#utility.yul\":6289:6309   */\n              tag_169\n                /* \"#utility.yul\":6307:6308   */\n              dup4\n                /* \"#utility.yul\":6289:6309   */\n              tag_58\n              jump\t// in\n            tag_169:\n                /* \"#utility.yul\":6284:6309   */\n              swap3\n              pop\n                /* \"#utility.yul\":6332:6333   */\n              dup3\n                /* \"#utility.yul\":6329:6330   */\n              dup3\n                /* \"#utility.yul\":6325:6334   */\n              add\n                /* \"#utility.yul\":6318:6334   */\n              swap1\n              pop\n                /* \"#utility.yul\":6353:6356   */\n              dup1\n                /* \"#utility.yul\":6350:6351   */\n              dup3\n                /* \"#utility.yul\":6347:6357   */\n              gt\n                /* \"#utility.yul\":6344:6380   */\n              iszero\n              tag_170\n              jumpi\n                /* \"#utility.yul\":6360:6378   */\n              tag_171\n              tag_79\n              jump\t// in\n            tag_171:\n                /* \"#utility.yul\":6344:6380   */\n            tag_170:\n                /* \"#utility.yul\":6196:6387   */\n              swap3\n              swap2\n              pop\n              pop\n              jump\t// out\n                /* \"#utility.yul\":6393:6573   */\n            tag_80:\n                /* \"#utility.yul\":6441:6518   */\n              0x4e487b7100000000000000000000000000000000000000000000000000000000\n                /* \"#utility.yul\":6438:6439   */\n              0x00\n                /* \"#utility.yul\":6431:6519   */\n              mstore\n                /* \"#utility.yul\":6538:6542   */\n              0x22\n                /* \"#utility.yul\":6535:6536   */\n              0x04\n                /* \"#utility.yul\":6528:6543   */\n              mstore\n                /* \"#utility.yul\":6562:6566   */\n              0x24\n                /* \"#utility.yul\":6559:6560   */\n              0x00\n                /* \"#utility.yul\":6552:6567   */\n              revert\n                /* \"#utility.yul\":6579:6899   */\n            tag_52:\n                /* \"#utility.yul\":6623:6629   */\n              0x00\n                /* \"#utility.yul\":6660:6661   */\n              0x02\n                /* \"#utility.yul\":6654:6658   */\n              dup3\n                /* \"#utility.yul\":6650:6662   */\n              div\n                /* \"#utility.yul\":6640:6662   */\n              swap1\n              pop\n                /* \"#utility.yul\":6707:6708   */\n              0x01\n                /* \"#utility.yul\":6701:6705   */\n              dup3\n                /* \"#utility.yul\":6697:6709   */\n              and\n                /* \"#utility.yul\":6728:6746   */\n              dup1\n                /* \"#utility.yul\":6718:6799   */\n              tag_174\n              jumpi\n                /* \"#utility.yul\":6784:6788   */\n              0x7f\n                /* \"#utility.yul\":6776:6782   */\n              dup3\n                /* \"#utility.yul\":6772:6789   */\n              and\n                /* \"#utility.yul\":6762:6789   */\n              swap2\n              pop\n                /* \"#utility.yul\":6718:6799   */\n            tag_174:\n                /* \"#utility.yul\":6846:6848   */\n              0x20\n                /* \"#utility.yul\":6838:6844   */\n              dup3\n                /* \"#utility.yul\":6835:6849   */\n              lt\n                /* \"#utility.yul\":6815:6833   */\n              dup2\n                /* \"#utility.yul\":6812:6850   */\n              sub\n                /* \"#utility.yul\":6809:6893   */\n              tag_175\n              jumpi\n                /* \"#utility.yul\":6865:6883   */\n              tag_176\n              tag_80\n              jump\t// in\n            tag_176:\n                /* \"#utility.yul\":6809:6893   */\n            tag_175:\n                /* \"#utility.yul\":6630:6899   */\n              pop\n                /* \"#utility.yul\":6579:6899   */\n              swap2\n              swap1\n              pop\n              jump\t// out\n                /* \"#utility.yul\":6905:7046   */\n            tag_81:\n                /* \"#utility.yul\":6954:6958   */\n              0x00\n                /* \"#utility.yul\":6977:6980   */\n              dup2\n                /* \"#utility.yul\":6969:6980   */\n              swap1\n              pop\n                /* \"#utility.yul\":7000:7003   */\n              dup2\n                /* \"#utility.yul\":6997:6998   */\n              0x00\n                /* \"#utility.yul\":6990:7004   */\n              mstore\n                /* \"#utility.yul\":7034:7038   */\n              0x20\n                /* \"#utility.yul\":7031:7032   */\n              0x00\n                /* \"#utility.yul\":7021:7039   */\n              keccak256\n                /* \"#utility.yul\":7013:7039   */\n              swap1\n              pop\n                /* \"#utility.yul\":6905:7046   */\n              swap2\n              swap1\n              pop\n              jump\t// out\n                /* \"#utility.yul\":7052:7145   */\n            tag_82:\n                /* \"#utility.yul\":7089:7095   */\n              0x00\n                /* \"#utility.yul\":7136:7138   */\n              0x20\n                /* \"#utility.yul\":7131:7133   */\n              0x1f\n                /* \"#utility.yul\":7124:7129   */\n              dup4\n                /* \"#utility.yul\":7120:7134   */\n              add\n                /* \"#utility.yul\":7116:7139   */\n              div\n                /* \"#utility.yul\":7106:7139   */\n              swap1\n              pop\n                /* \"#utility.yul\":7052:7145   */\n              swap2\n              swap1\n              pop\n              jump\t// out\n                /* \"#utility.yul\":7151:7258   */\n            tag_83:\n                /* \"#utility.yul\":7195:7203   */\n              0x00\n                /* \"#utility.yul\":7245:7250   */\n              dup3\n                /* \"#utility.yul\":7239:7243   */\n              dup3\n                /* \"#utility.yul\":7235:7251   */\n              shl\n                /* \"#utility.yul\":7214:7251   */\n              swap1\n              pop\n                /* \"#utility.yul\":7151:7258   */\n              swap3\n              swap2\n              pop\n              pop\n              jump\t// out\n                /* \"#utility.yul\":7264:7657   */\n            tag_84:\n                /* \"#utility.yul\":7333:7339   */\n              0x00\n                /* \"#utility.yul\":7383:7384   */\n              0x08\n                /* \"#utility.yul\":7371:7381   */\n              dup4\n                /* \"#utility.yul\":7367:7385   */\n              mul\n                /* \"#utility.yul\":7406:7503   */\n              tag_181\n                /* \"#utility.yul\":7436:7502   */\n              0xffffffffffffffffffffffffffffffffffffffffffffffffffffffffffffffff\n                /* \"#utility.yul\":7425:7434   */\n              dup3\n                /* \"#utility.yul\":7406:7503   */\n              tag_83\n              jump\t// in\n            tag_181:\n                /* \"#utility.yul\":7524:7563   */\n              tag_182\n                /* \"#utility.yul\":7554:7562   */\n              dup7\n                /* \"#utility.yul\":7543:7552   */\n              dup4\n                /* \"#utility.yul\":7524:7563   */\n              tag_83\n              jump\t// in\n            tag_182:\n                /* \"#utility.yul\":7512:7563   */\n              swap6\n              pop\n                /* \"#utility.yul\":7596:7600   */\n              dup1\n                /* \"#utility.yul\":7592:7601   */\n              not\n                /* \"#utility.yul\":7585:7590   */\n              dup5\n                /* \"#utility.yul\":7581:7602   */\n              and\n                /* \"#utility.yul\":7572:7602   */\n              swap4\n              pop\n                /* \"#utility.yul\":7645:7649   */\n              dup1\n                /* \"#utility.yul\":7635:7643   */\n              dup7\n                /* \"#utility.yul\":7631:7650   */\n              and\n                /* \"#utility.yul\":7624:7629   */\n              dup5\n                /* \"#utility.yul\":7621:7651   */\n              or\n                /* \"#utility.yul\":7611:7651   */\n              swap3\n              pop\n                /* \"#utility.yul\":7340:7657   */\n              pop\n              pop\n                /* \"#utility.yul\":7264:7657   */\n              swap4\n              swap3\n              pop\n              pop\n              pop\n              jump\t// out\n                /* \"#utility.yul\":7663:7723   */\n            tag_85:\n                /* \"#utility.yul\":7691:7694   */\n              0x00\n                /* \"#utility.yul\":7712:7717   */\n              dup2\n                /* \"#utility.yul\":7705:7717   */\n              swap1\n              pop\n                /* \"#utility.yul\":7663:7723   */\n              swap2\n              swap1\n              pop\n              jump\t// out\n                /* \"#utility.yul\":7729:7871   */\n            tag_86:\n                /* \"#utility.yul\":7779:7788   */\n              0x00\n                /* \"#utility.yul\":7812:7865   */\n              tag_185\n                /* \"#utility.yul\":7830:7864   */\n              tag_186\n                /* \"#utility.yul\":7839:7863   */\n              tag_187\n                /* \"#utility.yul\":7857:7862   */\n              dup5\n                /* \"#utility.yul\":7839:7863   */\n              tag_58\n              jump\t// in\n            tag_187:\n                /* \"#utility.yul\":7830:7864   */\n              tag_85\n              jump\t// in\n            tag_186:\n                /* \"#utility.yul\":7812:7865   */\n              tag_58\n              jump\t// in\n            tag_185:\n                /* \"#utility.yul\":7799:7865   */\n              swap1\n              pop\n                /* \"#utility.yul\":7729:7871   */\n              swap2\n              swap1\n              pop\n              jump\t// out\n                /* \"#utility.yul\":7877:7952   */\n            tag_87:\n                /* \"#utility.yul\":7920:7923   */\n              0x00\n                /* \"#utility.yul\":7941:7946   */\n              dup2\n                /* \"#utility.yul\":7934:7946   */\n              swap1\n              pop\n                /* \"#utility.yul\":7877:7952   */\n              swap2\n              swap1\n              pop\n              jump\t// out\n                /* \"#utility.yul\":7958:8227   */\n            tag_88:\n                /* \"#utility.yul\":8068:8107   */\n              tag_190\n                /* \"#utility.yul\":8099:8106   */\n              dup4\n                /* \"#utility.yul\":8068:8107   */\n              tag_86\n              jump\t// in\n            tag_190:\n                /* \"#utility.yul\":8129:8220   */\n              tag_191\n                /* \"#utility.yul\":8178:8219   */\n              tag_192\n                /* \"#utility.yul\":8202:8218   */\n              dup3\n                /* \"#utility.yul\":8178:8219   */\n              tag_87\n              jump\t// in\n            tag_192:\n                /* \"#utility.yul\":8170:8176   */\n              dup5\n                /* \"#utility.yul\":8163:8167   */\n              dup5\n                /* \"#utility.yul\":8157:8168   */\n              sload\n                /* \"#utility.yul\":8129:8220   */\n              tag_84\n              jump\t// in\n            tag_191:\n                /* \"#utility.yul\":8123:8127   */\n              dup3\n                /* \"#utility.yul\":8116:8221   */\n              sstore\n                /* \"#utility.yul\":8034:8227   */\n              pop\n                /* \"#utility.yul\":7958:8227   */\n              pop\n              pop\n              pop\n              jump\t// out\n                /* \"#utility.yul\":8233:8306   */\n            tag_89:\n                /* \"#utility.yul\":8278:8281   */\n              0x00\n                /* \"#utility.yul\":8233:8306   */\n              swap1\n              jump\t// out\n                /* \"#utility.yul\":8312:8501   */\n            tag_90:\n                /* \"#utility.yul\":8389:8421   */\n              tag_195\n              tag_89\n              jump\t// in\n            tag_195:\n                /* \"#utility.yul\":8430:8495   */\n              tag_196\n                /* \"#utility.yul\":8488:8494   */\n              dup2\n                /* \"#utility.yul\":8480:8486   */\n              dup5\n                /* \"#utility.yul\":8474:8478   */\n              dup5\n                /* \"#utility.yul\":8430:8495   */\n              tag_88\n              jump\t// in\n            tag_196:\n                /* \"#utility.yul\":8365:8501   */\n              pop\n                /* \"#utility.yul\":8312:8501   */\n              pop\n              pop\n              jump\t// out\n                /* \"#utility.yul\":8507:8693   */\n            tag_91:\n                /* \"#utility.yul\":8567:8687   */\n            tag_198:\n                /* \"#utility.yul\":8584:8587   */\n              dup2\n                /* \"#utility.yul\":8577:8582   */\n              dup2\n                /* \"#utility.yul\":8574:8588   */\n              lt\n                /* \"#utility.yul\":8567:8687   */\n              iszero\n              tag_200\n              jumpi\n                /* \"#utility.yul\":8638:8677   */\n              tag_201\n                /* \"#utility.yul\":8675:8676   */\n              0x00\n                /* \"#utility.yul\":8668:8673   */\n              dup3\n                /* \"#utility.yul\":8638:8677   */\n              tag_90\n              jump\t// in\n            tag_201:\n                /* \"#utility.yul\":8611:8612   */\n              0x01\n                /* \"#utility.yul\":8604:8609   */\n              dup2\n                /* \"#utility.yul\":8600:8613   */\n              add\n                /* \"#utility.yul\":8591:8613   */\n              swap1\n              pop\n                /* \"#utility.yul\":8567:8687   */\n              jump(tag_198)\n            tag_200:\n                /* \"#utility.yul\":8507:8693   */\n              pop\n              pop\n              jump\t// out\n                /* \"#utility.yul\":8699:9242   */\n            tag_92:\n                /* \"#utility.yul\":8800:8802   */\n              0x1f\n                /* \"#utility.yul\":8795:8798   */\n              dup3\n                /* \"#utility.yul\":8792:8803   */\n              gt\n                /* \"#utility.yul\":8789:9235   */\n              iszero\n              tag_203\n              jumpi\n                /* \"#utility.yul\":8834:8872   */\n              tag_204\n                /* \"#utility.yul\":8866:8871   */\n              dup2\n                /* \"#utility.yul\":8834:8872   */\n              tag_81\n              jump\t// in\n            tag_204:\n                /* \"#utility.yul\":8918:8947   */\n              tag_205\n                /* \"#utility.yul\":8936:8946   */\n              dup5\n                /* \"#utility.yul\":8918:8947   */\n              tag_82\n              jump\t// in\n            tag_205:\n                /* \"#utility.yul\":8908:8916   */\n              dup2\n                /* \"#utility.yul\":8904:8948   */\n              add\n                /* \"#utility.yul\":9101:9103   */\n              0x20\n                /* \"#utility.yul\":9089:9099   */\n              dup6\n                /* \"#utility.yul\":9086:9104   */\n              lt\n                /* \"#utility.yul\":9083:9132   */\n              iszero\n              tag_206\n              jumpi\n                /* \"#utility.yul\":9122:9130   */\n              dup2\n                /* \"#utility.yul\":9107:9130   */\n              swap1\n              pop\n                /* \"#utility.yul\":9083:9132   */\n            tag_206:\n                /* \"#utility.yul\":9145:9225   */\n              tag_207\n                /* \"#utility.yul\":9201:9223   */\n              tag_208\n                /* \"#utility.yul\":9219:9222   */\n              dup6\n                /* \"#utility.yul\":9201:9223   */\n              tag_82\n              jump\t// in\n            tag_208:\n                /* \"#utility.yul\":9191:9199   */\n              dup4\n                /* \"#utility.yul\":9187:9224   */\n              add\n                /* \"#utility.yul\":9174:9185   */\n              dup3\n                /* \"#utility.yul\":9145:9225   */\n              tag_91\n              jump\t// in\n            tag_207:\n                /* \"#utility.yul\":8804:9235   */\n              pop\n              pop\n                /* \"#utility.yul\":8789:9235   */\n            tag_203:\n                /* \"#utility.yul\":8699:9242   */\n              pop\n              pop\n              pop\n              jump\t// out\n                /* \"#utility.yul\":9248:9365   */\n            tag_93:\n                /* \"#utility.yul\":9302:9310   */\n              0x00\n                /* \"#utility.yul\":9352:9357   */\n              dup3\n                /* \"#utility.yul\":9346:9350   */\n              dup3\n                /* \"#utility.yul\":9342:9358   */\n              shr\n                /* \"#utility.yul\":9321:9358   */\n              swap1\n              pop\n                /* \"#utility.yul\":9248:9365   */\n              swap3\n              swap2\n              pop\n              pop\n              jump\t// out\n                /* \"#utility.yul\":9371:9540   */\n            tag_94:\n                /* \"#utility.yul\":9415:9421   */\n              0x00\n                /* \"#utility.yul\":9448:9499   */\n              tag_211\n                /* \"#utility.yul\":9496:9497   */\n              0x00\n                /* \"#utility.yul\":9492:9498   */\n              not\n                /* \"#utility.yul\":9484:9489   */\n              dup5\n                /* \"#utility.yul\":9481:9482   */\n              0x08\n                /* \"#utility.yul\":9477:9490   */\n              mul\n                /* \"#utility.yul\":9448:9499   */\n              tag_93\n              jump\t// in\n            tag_211:\n                /* \"#utility.yul\":9444:9500   */\n              not\n                /* \"#utility.yul\":9529:9533   */\n              dup1\n                /* \"#utility.yul\":9523:9527   */\n              dup4\n                /* \"#utility.yul\":9519:9534   */\n              and\n                /* \"#utility.yul\":9509:9534   */\n              swap2\n              pop\n                /* \"#utility.yul\":9422:9540   */\n              pop\n                /* \"#utility.yul\":9371:9540   */\n              swap3\n              swap2\n              pop\n              pop\n              jump\t// out\n                /* \"#utility.yul\":9545:9840   */\n            tag_95:\n                /* \"#utility.yul\":9621:9625   */\n              0x00\n                /* \"#utility.yul\":9767:9796   */\n              tag_213\n                /* \"#utility.yul\":9792:9795   */\n              dup4\n                /* \"#utility.yul\":9786:9790   */\n              dup4\n                /* \"#utility.yul\":9767:9796   */\n              tag_94\n              jump\t// in\n            tag_213:\n                /* \"#utility.yul\":9759:9796   */\n              swap2\n              pop\n                /* \"#utility.yul\":9829:9832   */\n              dup3\n                /* \"#utility.yul\":9826:9827   */\n              0x02\n                /* \"#utility.yul\":9822:9833   */\n              mul\n                /* \"#utility.yul\":9816:9820   */\n              dup3\n                /* \"#utility.yul\":9813:9834   */\n              or\n                /* \"#utility.yul\":9805:9834   */\n              swap1\n              pop\n                /* \"#utility.yul\":9545:9840   */\n              swap3\n              swap2\n              pop\n              pop\n              jump\t// out\n                /* \"#utility.yul\":9845:11240   */\n            tag_46:\n                /* \"#utility.yul\":9962:9999   */\n              tag_215\n                /* \"#utility.yul\":9995:9998   */\n              dup3\n                /* \"#utility.yul\":9962:9999   */\n              tag_75\n              jump\t// in\n            tag_215:\n                /* \"#utility.yul\":10064:10082   */\n              0xffffffffffffffff\n                /* \"#utility.yul\":10056:10062   */\n              dup2\n                /* \"#utility.yul\":10053:10083   */\n              gt\n                /* \"#utility.yul\":10050:10106   */\n              iszero\n              tag_216\n              jumpi\n                /* \"#utility.yul\":10086:10104   */\n              tag_217\n              tag_68\n              jump\t// in\n            tag_217:\n                /* \"#utility.yul\":10050:10106   */\n            tag_216:\n                /* \"#utility.yul\":10130:10168   */\n              tag_218\n                /* \"#utility.yul\":10162:10166   */\n              dup3\n                /* \"#utility.yul\":10156:10167   */\n              sload\n                /* \"#utility.yul\":10130:10168   */\n              tag_52\n              jump\t// in\n            tag_218:\n                /* \"#utility.yul\":10215:10282   */\n              tag_219\n                /* \"#utility.yul\":10275:10281   */\n              dup3\n                /* \"#utility.yul\":10267:10273   */\n              dup3\n                /* \"#utility.yul\":10261:10265   */\n              dup6\n                /* \"#utility.yul\":10215:10282   */\n              tag_92\n              jump\t// in\n            tag_219:\n                /* \"#utility.yul\":10309:10310   */\n              0x00\n                /* \"#utility.yul\":10333:10337   */\n              0x20\n                /* \"#utility.yul\":10320:10337   */\n              swap1\n              pop\n                /* \"#utility.yul\":10365:10367   */\n              0x1f\n                /* \"#utility.yul\":10357:10363   */\n              dup4\n                /* \"#utility.yul\":10354:10368   */\n              gt\n                /* \"#utility.yul\":10382:10383   */\n              0x01\n                /* \"#utility.yul\":10377:10995   */\n              dup2\n              eq\n              tag_221\n              jumpi\n                /* \"#utility.yul\":11039:11040   */\n              0x00\n                /* \"#utility.yul\":11056:11062   */\n              dup5\n                /* \"#utility.yul\":11053:11130   */\n              iszero\n              tag_222\n              jumpi\n                /* \"#utility.yul\":11105:11114   */\n              dup3\n                /* \"#utility.yul\":11100:11103   */\n              dup8\n                /* \"#utility.yul\":11096:11115   */\n              add\n                /* \"#utility.yul\":11090:11116   */\n              mload\n                /* \"#utility.yul\":11081:11116   */\n              swap1\n              pop\n                /* \"#utility.yul\":11053:11130   */\n            tag_222:\n                /* \"#utility.yul\":11156:11223   */\n              tag_223\n                /* \"#utility.yul\":11216:11222   */\n              dup6\n                /* \"#utility.yul\":11209:11214   */\n              dup3\n                /* \"#utility.yul\":11156:11223   */\n              tag_95\n              jump\t// in\n            tag_223:\n                /* \"#utility.yul\":11150:11154   */\n              dup7\n                /* \"#utility.yul\":11143:11224   */\n              sstore\n                /* \"#utility.yul\":11012:11234   */\n              pop\n                /* \"#utility.yul\":10347:11234   */\n              jump(tag_220)\n                /* \"#utility.yul\":10377:10995   */\n            tag_221:\n                /* \"#utility.yul\":10429:10433   */\n              0x1f\n                /* \"#utility.yul\":10425:10434   */\n              not\n                /* \"#utility.yul\":10417:10423   */\n              dup5\n                /* \"#utility.yul\":10413:10435   */\n              and\n                /* \"#utility.yul\":10463:10500   */\n              tag_224\n                /* \"#utility.yul\":10495:10499   */\n              dup7\n                /* \"#utility.yul\":10463:10500   */\n              tag_81\n              jump\t// in\n            tag_224:\n                /* \"#utility.yul\":10522:10523   */\n              0x00\n                /* \"#utility.yul\":10536:10744   */\n            tag_225:\n                /* \"#utility.yul\":10550:10557   */\n              dup3\n                /* \"#utility.yul\":10547:10548   */\n              dup2\n                /* \"#utility.yul\":10544:10558   */\n              lt\n                /* \"#utility.yul\":10536:10744   */\n              iszero\n              tag_227\n              jumpi\n                /* \"#utility.yul\":10629:10638   */\n              dup5\n                /* \"#utility.yul\":10624:10627   */\n              dup10\n                /* \"#utility.yul\":10620:10639   */\n              add\n                /* \"#utility.yul\":10614:10640   */\n              mload\n                /* \"#utility.yul\":10606:10612   */\n              dup3\n                /* \"#utility.yul\":10599:10641   */\n              sstore\n                /* \"#utility.yul\":10680:10681   */\n              0x01\n                /* \"#utility.yul\":10672:10678   */\n              dup3\n                /* \"#utility.yul\":10668:10682   */\n              add\n                /* \"#utility.yul\":10658:10682   */\n              swap2\n              pop\n                /* \"#utility.yul\":10727:10729   */\n              0x20\n                /* \"#utility.yul\":10716:10725   */\n              dup6\n                /* \"#utility.yul\":10712:10730   */\n              add\n                /* \"#utility.yul\":10699:10730   */\n              swap5\n              pop\n                /* \"#utility.yul\":10573:10577   */\n              0x20\n                /* \"#utility.yul\":10570:10571   */\n              dup2\n                /* \"#utility.yul\":10566:10578   */\n              add\n                /* \"#utility.yul\":10561:10578   */\n              swap1\n              pop\n                /* \"#utility.yul\":10536:10744   */\n              jump(tag_225)\n            tag_227:\n                /* \"#utility.yul\":10772:10778   */\n              dup7\n                /* \"#utility.yul\":10763:10770   */\n              dup4\n                /* \"#utility.yul\":10760:10779   */\n              lt\n                /* \"#utility.yul\":10757:10936   */\n              iszero\n              tag_228\n              jumpi\n                /* \"#utility.yul\":10830:10839   */\n              dup5\n                /* \"#utility.yul\":10825:10828   */\n              dup10\n                /* \"#utility.yul\":10821:10840   */\n              add\n                /* \"#utility.yul\":10815:10841   */\n              mload\n                /* \"#utility.yul\":10873:10921   */\n              tag_229\n                /* \"#utility.yul\":10915:10919   */\n              0x1f\n                /* \"#utility.yul\":10907:10913   */\n              dup10\n                /* \"#utility.yul\":10903:10920   */\n              and\n                /* \"#utility.yul\":10892:10901   */\n              dup3\n                /* \"#utility.yul\":10873:10921   */\n              tag_94\n              jump\t// in\n            tag_229:\n                /* \"#utility.yul\":10865:10871   */\n              dup4\n                /* \"#utility.yul\":10858:10922   */\n              sstore\n                /* \"#utility.yul\":10780:10936   */\n              pop\n                /* \"#utility.yul\":10757:10936   */\n            tag_228:\n                /* \"#utility.yul\":10982:10983   */\n              0x01\n                /* \"#utility.yul\":10978:10979   */\n              0x02\n                /* \"#utility.yul\":10970:10976   */\n              dup9\n                /* \"#utility.yul\":10966:10980   */\n              mul\n                /* \"#utility.yul\":10962:10984   */\n              add\n                /* \"#utility.yul\":10956:10960   */\n              dup9\n                /* \"#utility.yul\":10949:10985   */\n              sstore\n                /* \"#utility.yul\":10384:10995   */\n              pop\n              pop\n              pop\n                /* \"#utility.yul\":10347:11234   */\n            tag_220:\n              pop\n                /* \"#utility.yul\":9937:11240   */\n              pop\n              pop\n              pop\n                /* \"#utility.yul\":9845:11240   */\n              pop\n              pop\n              jump\t// out\n                /* \"#utility.yul\":11246:11394   */\n            tag_96:\n                /* \"#utility.yul\":11348:11359   */\n              0x00\n                /* \"#utility.yul\":11385:11388   */\n              dup2\n                /* \"#utility.yul\":11370:11388   */\n              swap1\n              pop\n                /* \"#utility.yul\":11246:11394   */\n              swap3\n              swap2\n              pop\n              pop\n              jump\t// out\n                /* \"#utility.yul\":11400:11790   */\n            tag_97:\n                /* \"#utility.yul\":11506:11509   */\n              0x00\n                /* \"#utility.yul\":11534:11573   */\n              tag_232\n                /* \"#utility.yul\":11567:11572   */\n              dup3\n                /* \"#utility.yul\":11534:11573   */\n              tag_75\n              jump\t// in\n            tag_232:\n                /* \"#utility.yul\":11589:11678   */\n              tag_233\n                /* \"#utility.yul\":11671:11677   */\n              dup2\n                /* \"#utility.yul\":11666:11669   */\n              dup6\n                /* \"#utility.yul\":11589:11678   */\n              tag_96\n              jump\t// in\n            tag_233:\n                /* \"#utility.yul\":11582:11678   */\n              swap4\n              pop\n                /* \"#utility.yul\":11687:11752   */\n              tag_234\n                /* \"#utility.yul\":11745:11751   */\n              dup2\n                /* \"#utility.yul\":11740:11743   */\n              dup6\n                /* \"#utility.yul\":11733:11737   */\n              0x20\n                /* \"#utility.yul\":11726:11731   */\n              dup7\n                /* \"#utility.yul\":11722:11738   */\n              add\n                /* \"#utility.yul\":11687:11752   */\n              tag_77\n              jump\t// in\n            tag_234:\n                /* \"#utility.yul\":11777:11783   */\n              dup1\n                /* \"#utility.yul\":11772:11775   */\n              dup5\n                /* \"#utility.yul\":11768:11784   */\n              add\n                /* \"#utility.yul\":11761:11784   */\n              swap2\n              pop\n                /* \"#utility.yul\":11510:11790   */\n              pop\n                /* \"#utility.yul\":11400:11790   */\n              swap3\n              swap2\n              pop\n              pop\n              jump\t// out\n                /* \"#utility.yul\":11796:12071   */\n            tag_48:\n                /* \"#utility.yul\":11928:11931   */\n              0x00\n                /* \"#utility.yul\":11950:12045   */\n              tag_236\n                /* \"#utility.yul\":12041:12044   */\n              dup3\n                /* \"#utility.yul\":12032:12038   */\n              dup5\n                /* \"#utility.yul\":11950:12045   */\n              tag_97\n              jump\t// in\n            tag_236:\n                /* \"#utility.yul\":11943:12045   */\n              swap2\n              pop\n                /* \"#utility.yul\":12062:12065   */\n              dup2\n                /* \"#utility.yul\":12055:12065   */\n              swap1\n              pop\n                /* \"#utility.yul\":11796:12071   */\n              swap3\n              swap2\n              pop\n              pop\n              jump\t// out\n\n            auxdata: 0xa264697066735822122008dfc4a63e670711619c0a0da945950b3e541561f3982f0896a033c758eeba6864736f6c634300081a0033\n        }\n    }\n\n    auxdata: 0xa2646970667358221220a1ee6db366f680f9317f670e3ca87a64d915bc90b4bad2587025fb739af77d1964736f6c634300081a0033\n}\n",
				"bytecode": {
					"linkReferences": {},
					"object": "6080604052348015600e575f80fd5b50610edb8061001c5f395ff3fe608060405234801561000f575f80fd5b506004361061004a575f3560e01c806340d66b3b1461004e57806364591bf1146100585780638303b04414610088578063fc898d17146100b8575b5f80fd5b6100566100d4565b005b610072600480360381019061006d919061033a565b61015f565b60405161007f91906103df565b60405180910390f35b6100a2600480360381019061009d919061033a565b610199565b6040516100af9190610407565b60405180910390f35b6100d260048036038101906100cd9190610420565b61024d565b005b5f6040516100e1906102f6565b604051809103905ff0801580156100fa573d5f803e3d5ffd5b5090505f81908060018154018082558091505060019003905f5260205f20015f9091909190916101000a81548173ffffffffffffffffffffffffffffffffffffffff021916908373ffffffffffffffffffffffffffffffffffffffff16021790555050565b5f818154811061016d575f80fd5b905f5260205f20015f915054906101000a900473ffffffffffffffffffffffffffffffffffffffff1681565b5f805f83815481106101ae576101ad61045e565b5b905f5260205f20015f9054906101000a900473ffffffffffffffffffffffffffffffffffffffff1690508073ffffffffffffffffffffffffffffffffffffffff16632e64cec16040518163ffffffff1660e01b8152600401602060405180830381865afa158015610221573d5f803e3d5ffd5b505050506040513d601f19601f82011682018060405250810190610245919061049f565b915050919050565b5f8083815481106102615761026061045e565b5b905f5260205f20015f9054906101000a900473ffffffffffffffffffffffffffffffffffffffff1690508073ffffffffffffffffffffffffffffffffffffffff16636057361d836040518263ffffffff1660e01b81526004016102c49190610407565b5f604051808303815f87803b1580156102db575f80fd5b505af11580156102ed573d5f803e3d5ffd5b50505050505050565b6109db806104cb83390190565b5f80fd5b5f819050919050565b61031981610307565b8114610323575f80fd5b50565b5f8135905061033481610310565b92915050565b5f6020828403121561034f5761034e610303565b5b5f61035c84828501610326565b91505092915050565b5f73ffffffffffffffffffffffffffffffffffffffff82169050919050565b5f819050919050565b5f6103a76103a261039d84610365565b610384565b610365565b9050919050565b5f6103b88261038d565b9050919050565b5f6103c9826103ae565b9050919050565b6103d9816103bf565b82525050565b5f6020820190506103f25f8301846103d0565b92915050565b61040181610307565b82525050565b5f60208201905061041a5f8301846103f8565b92915050565b5f806040838503121561043657610435610303565b5b5f61044385828601610326565b925050602061045485828601610326565b9150509250929050565b7f4e487b71000000000000000000000000000000000000000000000000000000005f52603260045260245ffd5b5f8151905061049981610310565b92915050565b5f602082840312156104b4576104b3610303565b5b5f6104c18482850161048b565b9150509291505056fe6080604052348015600e575f80fd5b506109bf8061001c5f395ff3fe608060405234801561000f575f80fd5b506004361061007b575f3560e01c80636f760f41116100595780636f760f41146100d75780638bab8dd5146100f35780639e7a13ad14610123578063a4607c00146101545761007b565b80632e64cec11461007f578063471f7cdf1461009d5780636057361d146100bb575b5f80fd5b610087610172565b6040516100949190610326565b60405180910390f35b6100a561017a565b6040516100b29190610326565b60405180910390f35b6100d560048036038101906100d0919061037a565b61017f565b005b6100f160048036038101906100ec91906104e1565b61019b565b005b61010d6004803603810190610108919061053b565b610224565b60405161011a9190610326565b60405180910390f35b61013d6004803603810190610138919061037a565b610251565b60405161014b9291906105e2565b60405180910390f35b61015c610306565b6040516101699190610326565b60405180910390f35b5f8054905090565b5f5481565b805f8190555060015f54610193919061063d565b5f8190555050565b5f6040518060400160405280838152602001848152509050600181908060018154018082558091505060019003905f5260205f2090600202015f909190919091505f820151815f015560208201518160010190816101f9919061086a565b5050508160028460405161020d9190610973565b908152602001604051809103902081905550505050565b6002818051602081018201805184825260208301602085012081835280955050505050505f915090505481565b60018181548110610260575f80fd5b905f5260205f2090600202015f91509050805f0154908060010180546102859061069d565b80601f01602080910402602001604051908101604052809291908181526020018280546102b19061069d565b80156102fc5780601f106102d3576101008083540402835291602001916102fc565b820191905f5260205f20905b8154815290600101906020018083116102df57829003601f168201915b5050505050905082565b5f6009905090565b5f819050919050565b6103208161030e565b82525050565b5f6020820190506103395f830184610317565b92915050565b5f604051905090565b5f80fd5b5f80fd5b6103598161030e565b8114610363575f80fd5b50565b5f8135905061037481610350565b92915050565b5f6020828403121561038f5761038e610348565b5b5f61039c84828501610366565b91505092915050565b5f80fd5b5f80fd5b5f601f19601f8301169050919050565b7f4e487b71000000000000000000000000000000000000000000000000000000005f52604160045260245ffd5b6103f3826103ad565b810181811067ffffffffffffffff82111715610412576104116103bd565b5b80604052505050565b5f61042461033f565b905061043082826103ea565b919050565b5f67ffffffffffffffff82111561044f5761044e6103bd565b5b610458826103ad565b9050602081019050919050565b828183375f83830152505050565b5f61048561048084610435565b61041b565b9050828152602081018484840111156104a1576104a06103a9565b5b6104ac848285610465565b509392505050565b5f82601f8301126104c8576104c76103a5565b5b81356104d8848260208601610473565b91505092915050565b5f80604083850312156104f7576104f6610348565b5b5f83013567ffffffffffffffff8111156105145761051361034c565b5b610520858286016104b4565b925050602061053185828601610366565b9150509250929050565b5f602082840312156105505761054f610348565b5b5f82013567ffffffffffffffff81111561056d5761056c61034c565b5b610579848285016104b4565b91505092915050565b5f81519050919050565b5f82825260208201905092915050565b8281835e5f83830152505050565b5f6105b482610582565b6105be818561058c565b93506105ce81856020860161059c565b6105d7816103ad565b840191505092915050565b5f6040820190506105f55f830185610317565b818103602083015261060781846105aa565b90509392505050565b7f4e487b71000000000000000000000000000000000000000000000000000000005f52601160045260245ffd5b5f6106478261030e565b91506106528361030e565b925082820190508082111561066a57610669610610565b5b92915050565b7f4e487b71000000000000000000000000000000000000000000000000000000005f52602260045260245ffd5b5f60028204905060018216806106b457607f821691505b6020821081036106c7576106c6610670565b5b50919050565b5f819050815f5260205f209050919050565b5f6020601f8301049050919050565b5f82821b905092915050565b5f600883026107297fffffffffffffffffffffffffffffffffffffffffffffffffffffffffffffffff826106ee565b61073386836106ee565b95508019841693508086168417925050509392505050565b5f819050919050565b5f61076e6107696107648461030e565b61074b565b61030e565b9050919050565b5f819050919050565b61078783610754565b61079b61079382610775565b8484546106fa565b825550505050565b5f90565b6107af6107a3565b6107ba81848461077e565b505050565b5b818110156107dd576107d25f826107a7565b6001810190506107c0565b5050565b601f821115610822576107f3816106cd565b6107fc846106df565b8101602085101561080b578190505b61081f610817856106df565b8301826107bf565b50505b505050565b5f82821c905092915050565b5f6108425f1984600802610827565b1980831691505092915050565b5f61085a8383610833565b9150826002028217905092915050565b61087382610582565b67ffffffffffffffff81111561088c5761088b6103bd565b5b610896825461069d565b6108a18282856107e1565b5f60209050601f8311600181146108d2575f84156108c0578287015190505b6108ca858261084f565b865550610931565b601f1984166108e0866106cd565b5f5b82811015610907578489015182556001820191506020850194506020810190506108e2565b868310156109245784890151610920601f891682610833565b8355505b6001600288020188555050505b505050505050565b5f81905092915050565b5f61094d82610582565b6109578185610939565b935061096781856020860161059c565b80840191505092915050565b5f61097e8284610943565b91508190509291505056fea264697066735822122008dfc4a63e670711619c0a0da945950b3e541561f3982f0896a033c758eeba6864736f6c634300081a0033a2646970667358221220a1ee6db366f680f9317f670e3ca87a64d915bc90b4bad2587025fb739af77d1964736f6c634300081a0033",
					"opcodes": "PUSH1 0x80 PUSH1 0x40 MSTORE CALLVALUE DUP1 ISZERO PUSH1 0xE JUMPI PUSH0 DUP1 REVERT JUMPDEST POP PUSH2 0xEDB DUP1 PUSH2 0x1C PUSH0 CODECOPY PUSH0 RETURN INVALID PUSH1 0x80 PUSH1 0x40 MSTORE CALLVALUE DUP1 ISZERO PUSH2 0xF JUMPI PUSH0 DUP1 REVERT JUMPDEST POP PUSH1 0x4 CALLDATASIZE LT PUSH2 0x4A JUMPI PUSH0 CALLDATALOAD PUSH1 0xE0 SHR DUP1 PUSH4 0x40D66B3B EQ PUSH2 0x4E JUMPI DUP1 PUSH4 0x64591BF1 EQ PUSH2 0x58 JUMPI DUP1 PUSH4 0x8303B044 EQ PUSH2 0x88 JUMPI DUP1 PUSH4 0xFC898D17 EQ PUSH2 0xB8 JUMPI JUMPDEST PUSH0 DUP1 REVERT JUMPDEST PUSH2 0x56 PUSH2 0xD4 JUMP JUMPDEST STOP JUMPDEST PUSH2 0x72 PUSH1 0x4 DUP1 CALLDATASIZE SUB DUP2 ADD SWAP1 PUSH2 0x6D SWAP2 SWAP1 PUSH2 0x33A JUMP JUMPDEST PUSH2 0x15F JUMP JUMPDEST PUSH1 0x40 MLOAD PUSH2 0x7F SWAP2 SWAP1 PUSH2 0x3DF JUMP JUMPDEST PUSH1 0x40 MLOAD DUP1 SWAP2 SUB SWAP1 RETURN JUMPDEST PUSH2 0xA2 PUSH1 0x4 DUP1 CALLDATASIZE SUB DUP2 ADD SWAP1 PUSH2 0x9D SWAP2 SWAP1 PUSH2 0x33A JUMP JUMPDEST PUSH2 0x199 JUMP JUMPDEST PUSH1 0x40 MLOAD PUSH2 0xAF SWAP2 SWAP1 PUSH2 0x407 JUMP JUMPDEST PUSH1 0x40 MLOAD DUP1 SWAP2 SUB SWAP1 RETURN JUMPDEST PUSH2 0xD2 PUSH1 0x4 DUP1 CALLDATASIZE SUB DUP2 ADD SWAP1 PUSH2 0xCD SWAP2 SWAP1 PUSH2 0x420 JUMP JUMPDEST PUSH2 0x24D JUMP JUMPDEST STOP JUMPDEST PUSH0 PUSH1 0x40 MLOAD PUSH2 0xE1 SWAP1 PUSH2 0x2F6 JUMP JUMPDEST PUSH1 0x40 MLOAD DUP1 SWAP2 SUB SWAP1 PUSH0 CREATE DUP1 ISZERO DUP1 ISZERO PUSH2 0xFA JUMPI RETURNDATASIZE PUSH0 DUP1 RETURNDATACOPY RETURNDATASIZE PUSH0 REVERT JUMPDEST POP SWAP1 POP PUSH0 DUP2 SWAP1 DUP1 PUSH1 0x1 DUP2 SLOAD ADD DUP1 DUP3 SSTORE DUP1 SWAP2 POP POP PUSH1 0x1 SWAP1 SUB SWAP1 PUSH0 MSTORE PUSH1 0x20 PUSH0 KECCAK256 ADD PUSH0 SWAP1 SWAP2 SWAP1 SWAP2 SWAP1 SWAP2 PUSH2 0x100 EXP DUP2 SLOAD DUP2 PUSH20 0xFFFFFFFFFFFFFFFFFFFFFFFFFFFFFFFFFFFFFFFF MUL NOT AND SWAP1 DUP4 PUSH20 0xFFFFFFFFFFFFFFFFFFFFFFFFFFFFFFFFFFFFFFFF AND MUL OR SWAP1 SSTORE POP POP JUMP JUMPDEST PUSH0 DUP2 DUP2 SLOAD DUP2 LT PUSH2 0x16D JUMPI PUSH0 DUP1 REVERT JUMPDEST SWAP1 PUSH0 MSTORE PUSH1 0x20 PUSH0 KECCAK256 ADD PUSH0 SWAP2 POP SLOAD SWAP1 PUSH2 0x100 EXP SWAP1 DIV PUSH20 0xFFFFFFFFFFFFFFFFFFFFFFFFFFFFFFFFFFFFFFFF AND DUP2 JUMP JUMPDEST PUSH0 DUP1 PUSH0 DUP4 DUP2 SLOAD DUP2 LT PUSH2 0x1AE JUMPI PUSH2 0x1AD PUSH2 0x45E JUMP JUMPDEST JUMPDEST SWAP1 PUSH0 MSTORE PUSH1 0x20 PUSH0 KECCAK256 ADD PUSH0 SWAP1 SLOAD SWAP1 PUSH2 0x100 EXP SWAP1 DIV PUSH20 0xFFFFFFFFFFFFFFFFFFFFFFFFFFFFFFFFFFFFFFFF AND SWAP1 POP DUP1 PUSH20 0xFFFFFFFFFFFFFFFFFFFFFFFFFFFFFFFFFFFFFFFF AND PUSH4 0x2E64CEC1 PUSH1 0x40 MLOAD DUP2 PUSH4 0xFFFFFFFF AND PUSH1 0xE0 SHL DUP2 MSTORE PUSH1 0x4 ADD PUSH1 0x20 PUSH1 0x40 MLOAD DUP1 DUP4 SUB DUP2 DUP7 GAS STATICCALL ISZERO DUP1 ISZERO PUSH2 0x221 JUMPI RETURNDATASIZE PUSH0 DUP1 RETURNDATACOPY RETURNDATASIZE PUSH0 REVERT JUMPDEST POP POP POP POP PUSH1 0x40 MLOAD RETURNDATASIZE PUSH1 0x1F NOT PUSH1 0x1F DUP3 ADD AND DUP3 ADD DUP1 PUSH1 0x40 MSTORE POP DUP2 ADD SWAP1 PUSH2 0x245 SWAP2 SWAP1 PUSH2 0x49F JUMP JUMPDEST SWAP2 POP POP SWAP2 SWAP1 POP JUMP JUMPDEST PUSH0 DUP1 DUP4 DUP2 SLOAD DUP2 LT PUSH2 0x261 JUMPI PUSH2 0x260 PUSH2 0x45E JUMP JUMPDEST JUMPDEST SWAP1 PUSH0 MSTORE PUSH1 0x20 PUSH0 KECCAK256 ADD PUSH0 SWAP1 SLOAD SWAP1 PUSH2 0x100 EXP SWAP1 DIV PUSH20 0xFFFFFFFFFFFFFFFFFFFFFFFFFFFFFFFFFFFFFFFF AND SWAP1 POP DUP1 PUSH20 0xFFFFFFFFFFFFFFFFFFFFFFFFFFFFFFFFFFFFFFFF AND PUSH4 0x6057361D DUP4 PUSH1 0x40 MLOAD DUP3 PUSH4 0xFFFFFFFF AND PUSH1 0xE0 SHL DUP2 MSTORE PUSH1 0x4 ADD PUSH2 0x2C4 SWAP2 SWAP1 PUSH2 0x407 JUMP JUMPDEST PUSH0 PUSH1 0x40 MLOAD DUP1 DUP4 SUB DUP2 PUSH0 DUP8 DUP1 EXTCODESIZE ISZERO DUP1 ISZERO PUSH2 0x2DB JUMPI PUSH0 DUP1 REVERT JUMPDEST POP GAS CALL ISZERO DUP1 ISZERO PUSH2 0x2ED JUMPI RETURNDATASIZE PUSH0 DUP1 RETURNDATACOPY RETURNDATASIZE PUSH0 REVERT JUMPDEST POP POP POP POP POP POP POP JUMP JUMPDEST PUSH2 0x9DB DUP1 PUSH2 0x4CB DUP4 CODECOPY ADD SWAP1 JUMP JUMPDEST PUSH0 DUP1 REVERT JUMPDEST PUSH0 DUP2 SWAP1 POP SWAP2 SWAP1 POP JUMP JUMPDEST PUSH2 0x319 DUP2 PUSH2 0x307 JUMP JUMPDEST DUP2 EQ PUSH2 0x323 JUMPI PUSH0 DUP1 REVERT JUMPDEST POP JUMP JUMPDEST PUSH0 DUP2 CALLDATALOAD SWAP1 POP PUSH2 0x334 DUP2 PUSH2 0x310 JUMP JUMPDEST SWAP3 SWAP2 POP POP JUMP JUMPDEST PUSH0 PUSH1 0x20 DUP3 DUP5 SUB SLT ISZERO PUSH2 0x34F JUMPI PUSH2 0x34E PUSH2 0x303 JUMP JUMPDEST JUMPDEST PUSH0 PUSH2 0x35C DUP5 DUP3 DUP6 ADD PUSH2 0x326 JUMP JUMPDEST SWAP2 POP POP SWAP3 SWAP2 POP POP JUMP JUMPDEST PUSH0 PUSH20 0xFFFFFFFFFFFFFFFFFFFFFFFFFFFFFFFFFFFFFFFF DUP3 AND SWAP1 POP SWAP2 SWAP1 POP JUMP JUMPDEST PUSH0 DUP2 SWAP1 POP SWAP2 SWAP1 POP JUMP JUMPDEST PUSH0 PUSH2 0x3A7 PUSH2 0x3A2 PUSH2 0x39D DUP5 PUSH2 0x365 JUMP JUMPDEST PUSH2 0x384 JUMP JUMPDEST PUSH2 0x365 JUMP JUMPDEST SWAP1 POP SWAP2 SWAP1 POP JUMP JUMPDEST PUSH0 PUSH2 0x3B8 DUP3 PUSH2 0x38D JUMP JUMPDEST SWAP1 POP SWAP2 SWAP1 POP JUMP JUMPDEST PUSH0 PUSH2 0x3C9 DUP3 PUSH2 0x3AE JUMP JUMPDEST SWAP1 POP SWAP2 SWAP1 POP JUMP JUMPDEST PUSH2 0x3D9 DUP2 PUSH2 0x3BF JUMP JUMPDEST DUP3 MSTORE POP POP JUMP JUMPDEST PUSH0 PUSH1 0x20 DUP3 ADD SWAP1 POP PUSH2 0x3F2 PUSH0 DUP4 ADD DUP5 PUSH2 0x3D0 JUMP JUMPDEST SWAP3 SWAP2 POP POP JUMP JUMPDEST PUSH2 0x401 DUP2 PUSH2 0x307 JUMP JUMPDEST DUP3 MSTORE POP POP JUMP JUMPDEST PUSH0 PUSH1 0x20 DUP3 ADD SWAP1 POP PUSH2 0x41A PUSH0 DUP4 ADD DUP5 PUSH2 0x3F8 JUMP JUMPDEST SWAP3 SWAP2 POP POP JUMP JUMPDEST PUSH0 DUP1 PUSH1 0x40 DUP4 DUP6 SUB SLT ISZERO PUSH2 0x436 JUMPI PUSH2 0x435 PUSH2 0x303 JUMP JUMPDEST JUMPDEST PUSH0 PUSH2 0x443 DUP6 DUP3 DUP7 ADD PUSH2 0x326 JUMP JUMPDEST SWAP3 POP POP PUSH1 0x20 PUSH2 0x454 DUP6 DUP3 DUP7 ADD PUSH2 0x326 JUMP JUMPDEST SWAP2 POP POP SWAP3 POP SWAP3 SWAP1 POP JUMP JUMPDEST PUSH32 0x4E487B7100000000000000000000000000000000000000000000000000000000 PUSH0 MSTORE PUSH1 0x32 PUSH1 0x4 MSTORE PUSH1 0x24 PUSH0 REVERT JUMPDEST PUSH0 DUP2 MLOAD SWAP1 POP PUSH2 0x499 DUP2 PUSH2 0x310 JUMP JUMPDEST SWAP3 SWAP2 POP POP JUMP JUMPDEST PUSH0 PUSH1 0x20 DUP3 DUP5 SUB SLT ISZERO PUSH2 0x4B4 JUMPI PUSH2 0x4B3 PUSH2 0x303 JUMP JUMPDEST JUMPDEST PUSH0 PUSH2 0x4C1 DUP5 DUP3 DUP6 ADD PUSH2 0x48B JUMP JUMPDEST SWAP2 POP POP SWAP3 SWAP2 POP POP JUMP INVALID PUSH1 0x80 PUSH1 0x40 MSTORE CALLVALUE DUP1 ISZERO PUSH1 0xE JUMPI PUSH0 DUP1 REVERT JUMPDEST POP PUSH2 0x9BF DUP1 PUSH2 0x1C PUSH0 CODECOPY PUSH0 RETURN INVALID PUSH1 0x80 PUSH1 0x40 MSTORE CALLVALUE DUP1 ISZERO PUSH2 0xF JUMPI PUSH0 DUP1 REVERT JUMPDEST POP PUSH1 0x4 CALLDATASIZE LT PUSH2 0x7B JUMPI PUSH0 CALLDATALOAD PUSH1 0xE0 SHR DUP1 PUSH4 0x6F760F41 GT PUSH2 0x59 JUMPI DUP1 PUSH4 0x6F760F41 EQ PUSH2 0xD7 JUMPI DUP1 PUSH4 0x8BAB8DD5 EQ PUSH2 0xF3 JUMPI DUP1 PUSH4 0x9E7A13AD EQ PUSH2 0x123 JUMPI DUP1 PUSH4 0xA4607C00 EQ PUSH2 0x154 JUMPI PUSH2 0x7B JUMP JUMPDEST DUP1 PUSH4 0x2E64CEC1 EQ PUSH2 0x7F JUMPI DUP1 PUSH4 0x471F7CDF EQ PUSH2 0x9D JUMPI DUP1 PUSH4 0x6057361D EQ PUSH2 0xBB JUMPI JUMPDEST PUSH0 DUP1 REVERT JUMPDEST PUSH2 0x87 PUSH2 0x172 JUMP JUMPDEST PUSH1 0x40 MLOAD PUSH2 0x94 SWAP2 SWAP1 PUSH2 0x326 JUMP JUMPDEST PUSH1 0x40 MLOAD DUP1 SWAP2 SUB SWAP1 RETURN JUMPDEST PUSH2 0xA5 PUSH2 0x17A JUMP JUMPDEST PUSH1 0x40 MLOAD PUSH2 0xB2 SWAP2 SWAP1 PUSH2 0x326 JUMP JUMPDEST PUSH1 0x40 MLOAD DUP1 SWAP2 SUB SWAP1 RETURN JUMPDEST PUSH2 0xD5 PUSH1 0x4 DUP1 CALLDATASIZE SUB DUP2 ADD SWAP1 PUSH2 0xD0 SWAP2 SWAP1 PUSH2 0x37A JUMP JUMPDEST PUSH2 0x17F JUMP JUMPDEST STOP JUMPDEST PUSH2 0xF1 PUSH1 0x4 DUP1 CALLDATASIZE SUB DUP2 ADD SWAP1 PUSH2 0xEC SWAP2 SWAP1 PUSH2 0x4E1 JUMP JUMPDEST PUSH2 0x19B JUMP JUMPDEST STOP JUMPDEST PUSH2 0x10D PUSH1 0x4 DUP1 CALLDATASIZE SUB DUP2 ADD SWAP1 PUSH2 0x108 SWAP2 SWAP1 PUSH2 0x53B JUMP JUMPDEST PUSH2 0x224 JUMP JUMPDEST PUSH1 0x40 MLOAD PUSH2 0x11A SWAP2 SWAP1 PUSH2 0x326 JUMP JUMPDEST PUSH1 0x40 MLOAD DUP1 SWAP2 SUB SWAP1 RETURN JUMPDEST PUSH2 0x13D PUSH1 0x4 DUP1 CALLDATASIZE SUB DUP2 ADD SWAP1 PUSH2 0x138 SWAP2 SWAP1 PUSH2 0x37A JUMP JUMPDEST PUSH2 0x251 JUMP JUMPDEST PUSH1 0x40 MLOAD PUSH2 0x14B SWAP3 SWAP2 SWAP1 PUSH2 0x5E2 JUMP JUMPDEST PUSH1 0x40 MLOAD DUP1 SWAP2 SUB SWAP1 RETURN JUMPDEST PUSH2 0x15C PUSH2 0x306 JUMP JUMPDEST PUSH1 0x40 MLOAD PUSH2 0x169 SWAP2 SWAP1 PUSH2 0x326 JUMP JUMPDEST PUSH1 0x40 MLOAD DUP1 SWAP2 SUB SWAP1 RETURN JUMPDEST PUSH0 DUP1 SLOAD SWAP1 POP SWAP1 JUMP JUMPDEST PUSH0 SLOAD DUP2 JUMP JUMPDEST DUP1 PUSH0 DUP2 SWAP1 SSTORE POP PUSH1 0x1 PUSH0 SLOAD PUSH2 0x193 SWAP2 SWAP1 PUSH2 0x63D JUMP JUMPDEST PUSH0 DUP2 SWAP1 SSTORE POP POP JUMP JUMPDEST PUSH0 PUSH1 0x40 MLOAD DUP1 PUSH1 0x40 ADD PUSH1 0x40 MSTORE DUP1 DUP4 DUP2 MSTORE PUSH1 0x20 ADD DUP5 DUP2 MSTORE POP SWAP1 POP PUSH1 0x1 DUP2 SWAP1 DUP1 PUSH1 0x1 DUP2 SLOAD ADD DUP1 DUP3 SSTORE DUP1 SWAP2 POP POP PUSH1 0x1 SWAP1 SUB SWAP1 PUSH0 MSTORE PUSH1 0x20 PUSH0 KECCAK256 SWAP1 PUSH1 0x2 MUL ADD PUSH0 SWAP1 SWAP2 SWAP1 SWAP2 SWAP1 SWAP2 POP PUSH0 DUP3 ADD MLOAD DUP2 PUSH0 ADD SSTORE PUSH1 0x20 DUP3 ADD MLOAD DUP2 PUSH1 0x1 ADD SWAP1 DUP2 PUSH2 0x1F9 SWAP2 SWAP1 PUSH2 0x86A JUMP JUMPDEST POP POP POP DUP2 PUSH1 0x2 DUP5 PUSH1 0x40 MLOAD PUSH2 0x20D SWAP2 SWAP1 PUSH2 0x973 JUMP JUMPDEST SWAP1 DUP2 MSTORE PUSH1 0x20 ADD PUSH1 0x40 MLOAD DUP1 SWAP2 SUB SWAP1 KECCAK256 DUP2 SWAP1 SSTORE POP POP POP POP JUMP JUMPDEST PUSH1 0x2 DUP2 DUP1 MLOAD PUSH1 0x20 DUP2 ADD DUP3 ADD DUP1 MLOAD DUP5 DUP3 MSTORE PUSH1 0x20 DUP4 ADD PUSH1 0x20 DUP6 ADD KECCAK256 DUP2 DUP4 MSTORE DUP1 SWAP6 POP POP POP POP POP POP PUSH0 SWAP2 POP SWAP1 POP SLOAD DUP2 JUMP JUMPDEST PUSH1 0x1 DUP2 DUP2 SLOAD DUP2 LT PUSH2 0x260 JUMPI PUSH0 DUP1 REVERT JUMPDEST SWAP1 PUSH0 MSTORE PUSH1 0x20 PUSH0 KECCAK256 SWAP1 PUSH1 0x2 MUL ADD PUSH0 SWAP2 POP SWAP1 POP DUP1 PUSH0 ADD SLOAD SWAP1 DUP1 PUSH1 0x1 ADD DUP1 SLOAD PUSH2 0x285 SWAP1 PUSH2 0x69D JUMP JUMPDEST DUP1 PUSH1 0x1F ADD PUSH1 0x20 DUP1 SWAP2 DIV MUL PUSH1 0x20 ADD PUSH1 0x40 MLOAD SWAP1 DUP2 ADD PUSH1 0x40 MSTORE DUP1 SWAP3 SWAP2 SWAP1 DUP2 DUP2 MSTORE PUSH1 0x20 ADD DUP3 DUP1 SLOAD PUSH2 0x2B1 SWAP1 PUSH2 0x69D JUMP JUMPDEST DUP1 ISZERO PUSH2 0x2FC JUMPI DUP1 PUSH1 0x1F LT PUSH2 0x2D3 JUMPI PUSH2 0x100 DUP1 DUP4 SLOAD DIV MUL DUP4 MSTORE SWAP2 PUSH1 0x20 ADD SWAP2 PUSH2 0x2FC JUMP JUMPDEST DUP3 ADD SWAP2 SWAP1 PUSH0 MSTORE PUSH1 0x20 PUSH0 KECCAK256 SWAP1 JUMPDEST DUP2 SLOAD DUP2 MSTORE SWAP1 PUSH1 0x1 ADD SWAP1 PUSH1 0x20 ADD DUP1 DUP4 GT PUSH2 0x2DF JUMPI DUP3 SWAP1 SUB PUSH1 0x1F AND DUP3 ADD SWAP2 JUMPDEST POP POP POP POP POP SWAP1 POP DUP3 JUMP JUMPDEST PUSH0 PUSH1 0x9 SWAP1 POP SWAP1 JUMP JUMPDEST PUSH0 DUP2 SWAP1 POP SWAP2 SWAP1 POP JUMP JUMPDEST PUSH2 0x320 DUP2 PUSH2 0x30E JUMP JUMPDEST DUP3 MSTORE POP POP JUMP JUMPDEST PUSH0 PUSH1 0x20 DUP3 ADD SWAP1 POP PUSH2 0x339 PUSH0 DUP4 ADD DUP5 PUSH2 0x317 JUMP JUMPDEST SWAP3 SWAP2 POP POP JUMP JUMPDEST PUSH0 PUSH1 0x40 MLOAD SWAP1 POP SWAP1 JUMP JUMPDEST PUSH0 DUP1 REVERT JUMPDEST PUSH0 DUP1 REVERT JUMPDEST PUSH2 0x359 DUP2 PUSH2 0x30E JUMP JUMPDEST DUP2 EQ PUSH2 0x363 JUMPI PUSH0 DUP1 REVERT JUMPDEST POP JUMP JUMPDEST PUSH0 DUP2 CALLDATALOAD SWAP1 POP PUSH2 0x374 DUP2 PUSH2 0x350 JUMP JUMPDEST SWAP3 SWAP2 POP POP JUMP JUMPDEST PUSH0 PUSH1 0x20 DUP3 DUP5 SUB SLT ISZERO PUSH2 0x38F JUMPI PUSH2 0x38E PUSH2 0x348 JUMP JUMPDEST JUMPDEST PUSH0 PUSH2 0x39C DUP5 DUP3 DUP6 ADD PUSH2 0x366 JUMP JUMPDEST SWAP2 POP POP SWAP3 SWAP2 POP POP JUMP JUMPDEST PUSH0 DUP1 REVERT JUMPDEST PUSH0 DUP1 REVERT JUMPDEST PUSH0 PUSH1 0x1F NOT PUSH1 0x1F DUP4 ADD AND SWAP1 POP SWAP2 SWAP1 POP JUMP JUMPDEST PUSH32 0x4E487B7100000000000000000000000000000000000000000000000000000000 PUSH0 MSTORE PUSH1 0x41 PUSH1 0x4 MSTORE PUSH1 0x24 PUSH0 REVERT JUMPDEST PUSH2 0x3F3 DUP3 PUSH2 0x3AD JUMP JUMPDEST DUP2 ADD DUP2 DUP2 LT PUSH8 0xFFFFFFFFFFFFFFFF DUP3 GT OR ISZERO PUSH2 0x412 JUMPI PUSH2 0x411 PUSH2 0x3BD JUMP JUMPDEST JUMPDEST DUP1 PUSH1 0x40 MSTORE POP POP POP JUMP JUMPDEST PUSH0 PUSH2 0x424 PUSH2 0x33F JUMP JUMPDEST SWAP1 POP PUSH2 0x430 DUP3 DUP3 PUSH2 0x3EA JUMP JUMPDEST SWAP2 SWAP1 POP JUMP JUMPDEST PUSH0 PUSH8 0xFFFFFFFFFFFFFFFF DUP3 GT ISZERO PUSH2 0x44F JUMPI PUSH2 0x44E PUSH2 0x3BD JUMP JUMPDEST JUMPDEST PUSH2 0x458 DUP3 PUSH2 0x3AD JUMP JUMPDEST SWAP1 POP PUSH1 0x20 DUP2 ADD SWAP1 POP SWAP2 SWAP1 POP JUMP JUMPDEST DUP3 DUP2 DUP4 CALLDATACOPY PUSH0 DUP4 DUP4 ADD MSTORE POP POP POP JUMP JUMPDEST PUSH0 PUSH2 0x485 PUSH2 0x480 DUP5 PUSH2 0x435 JUMP JUMPDEST PUSH2 0x41B JUMP JUMPDEST SWAP1 POP DUP3 DUP2 MSTORE PUSH1 0x20 DUP2 ADD DUP5 DUP5 DUP5 ADD GT ISZERO PUSH2 0x4A1 JUMPI PUSH2 0x4A0 PUSH2 0x3A9 JUMP JUMPDEST JUMPDEST PUSH2 0x4AC DUP5 DUP3 DUP6 PUSH2 0x465 JUMP JUMPDEST POP SWAP4 SWAP3 POP POP POP JUMP JUMPDEST PUSH0 DUP3 PUSH1 0x1F DUP4 ADD SLT PUSH2 0x4C8 JUMPI PUSH2 0x4C7 PUSH2 0x3A5 JUMP JUMPDEST JUMPDEST DUP2 CALLDATALOAD PUSH2 0x4D8 DUP5 DUP3 PUSH1 0x20 DUP7 ADD PUSH2 0x473 JUMP JUMPDEST SWAP2 POP POP SWAP3 SWAP2 POP POP JUMP JUMPDEST PUSH0 DUP1 PUSH1 0x40 DUP4 DUP6 SUB SLT ISZERO PUSH2 0x4F7 JUMPI PUSH2 0x4F6 PUSH2 0x348 JUMP JUMPDEST JUMPDEST PUSH0 DUP4 ADD CALLDATALOAD PUSH8 0xFFFFFFFFFFFFFFFF DUP2 GT ISZERO PUSH2 0x514 JUMPI PUSH2 0x513 PUSH2 0x34C JUMP JUMPDEST JUMPDEST PUSH2 0x520 DUP6 DUP3 DUP7 ADD PUSH2 0x4B4 JUMP JUMPDEST SWAP3 POP POP PUSH1 0x20 PUSH2 0x531 DUP6 DUP3 DUP7 ADD PUSH2 0x366 JUMP JUMPDEST SWAP2 POP POP SWAP3 POP SWAP3 SWAP1 POP JUMP JUMPDEST PUSH0 PUSH1 0x20 DUP3 DUP5 SUB SLT ISZERO PUSH2 0x550 JUMPI PUSH2 0x54F PUSH2 0x348 JUMP JUMPDEST JUMPDEST PUSH0 DUP3 ADD CALLDATALOAD PUSH8 0xFFFFFFFFFFFFFFFF DUP2 GT ISZERO PUSH2 0x56D JUMPI PUSH2 0x56C PUSH2 0x34C JUMP JUMPDEST JUMPDEST PUSH2 0x579 DUP5 DUP3 DUP6 ADD PUSH2 0x4B4 JUMP JUMPDEST SWAP2 POP POP SWAP3 SWAP2 POP POP JUMP JUMPDEST PUSH0 DUP2 MLOAD SWAP1 POP SWAP2 SWAP1 POP JUMP JUMPDEST PUSH0 DUP3 DUP3 MSTORE PUSH1 0x20 DUP3 ADD SWAP1 POP SWAP3 SWAP2 POP POP JUMP JUMPDEST DUP3 DUP2 DUP4 MCOPY PUSH0 DUP4 DUP4 ADD MSTORE POP POP POP JUMP JUMPDEST PUSH0 PUSH2 0x5B4 DUP3 PUSH2 0x582 JUMP JUMPDEST PUSH2 0x5BE DUP2 DUP6 PUSH2 0x58C JUMP JUMPDEST SWAP4 POP PUSH2 0x5CE DUP2 DUP6 PUSH1 0x20 DUP7 ADD PUSH2 0x59C JUMP JUMPDEST PUSH2 0x5D7 DUP2 PUSH2 0x3AD JUMP JUMPDEST DUP5 ADD SWAP2 POP POP SWAP3 SWAP2 POP POP JUMP JUMPDEST PUSH0 PUSH1 0x40 DUP3 ADD SWAP1 POP PUSH2 0x5F5 PUSH0 DUP4 ADD DUP6 PUSH2 0x317 JUMP JUMPDEST DUP2 DUP2 SUB PUSH1 0x20 DUP4 ADD MSTORE PUSH2 0x607 DUP2 DUP5 PUSH2 0x5AA JUMP JUMPDEST SWAP1 POP SWAP4 SWAP3 POP POP POP JUMP JUMPDEST PUSH32 0x4E487B7100000000000000000000000000000000000000000000000000000000 PUSH0 MSTORE PUSH1 0x11 PUSH1 0x4 MSTORE PUSH1 0x24 PUSH0 REVERT JUMPDEST PUSH0 PUSH2 0x647 DUP3 PUSH2 0x30E JUMP JUMPDEST SWAP2 POP PUSH2 0x652 DUP4 PUSH2 0x30E JUMP JUMPDEST SWAP3 POP DUP3 DUP3 ADD SWAP1 POP DUP1 DUP3 GT ISZERO PUSH2 0x66A JUMPI PUSH2 0x669 PUSH2 0x610 JUMP JUMPDEST JUMPDEST SWAP3 SWAP2 POP POP JUMP JUMPDEST PUSH32 0x4E487B7100000000000000000000000000000000000000000000000000000000 PUSH0 MSTORE PUSH1 0x22 PUSH1 0x4 MSTORE PUSH1 0x24 PUSH0 REVERT JUMPDEST PUSH0 PUSH1 0x2 DUP3 DIV SWAP1 POP PUSH1 0x1 DUP3 AND DUP1 PUSH2 0x6B4 JUMPI PUSH1 0x7F DUP3 AND SWAP2 POP JUMPDEST PUSH1 0x20 DUP3 LT DUP2 SUB PUSH2 0x6C7 JUMPI PUSH2 0x6C6 PUSH2 0x670 JUMP JUMPDEST JUMPDEST POP SWAP2 SWAP1 POP JUMP JUMPDEST PUSH0 DUP2 SWAP1 POP DUP2 PUSH0 MSTORE PUSH1 0x20 PUSH0 KECCAK256 SWAP1 POP SWAP2 SWAP1 POP JUMP JUMPDEST PUSH0 PUSH1 0x20 PUSH1 0x1F DUP4 ADD DIV SWAP1 POP SWAP2 SWAP1 POP JUMP JUMPDEST PUSH0 DUP3 DUP3 SHL SWAP1 POP SWAP3 SWAP2 POP POP JUMP JUMPDEST PUSH0 PUSH1 0x8 DUP4 MUL PUSH2 0x729 PUSH32 0xFFFFFFFFFFFFFFFFFFFFFFFFFFFFFFFFFFFFFFFFFFFFFFFFFFFFFFFFFFFFFFFF DUP3 PUSH2 0x6EE JUMP JUMPDEST PUSH2 0x733 DUP7 DUP4 PUSH2 0x6EE JUMP JUMPDEST SWAP6 POP DUP1 NOT DUP5 AND SWAP4 POP DUP1 DUP7 AND DUP5 OR SWAP3 POP POP POP SWAP4 SWAP3 POP POP POP JUMP JUMPDEST PUSH0 DUP2 SWAP1 POP SWAP2 SWAP1 POP JUMP JUMPDEST PUSH0 PUSH2 0x76E PUSH2 0x769 PUSH2 0x764 DUP5 PUSH2 0x30E JUMP JUMPDEST PUSH2 0x74B JUMP JUMPDEST PUSH2 0x30E JUMP JUMPDEST SWAP1 POP SWAP2 SWAP1 POP JUMP JUMPDEST PUSH0 DUP2 SWAP1 POP SWAP2 SWAP1 POP JUMP JUMPDEST PUSH2 0x787 DUP4 PUSH2 0x754 JUMP JUMPDEST PUSH2 0x79B PUSH2 0x793 DUP3 PUSH2 0x775 JUMP JUMPDEST DUP5 DUP5 SLOAD PUSH2 0x6FA JUMP JUMPDEST DUP3 SSTORE POP POP POP POP JUMP JUMPDEST PUSH0 SWAP1 JUMP JUMPDEST PUSH2 0x7AF PUSH2 0x7A3 JUMP JUMPDEST PUSH2 0x7BA DUP2 DUP5 DUP5 PUSH2 0x77E JUMP JUMPDEST POP POP POP JUMP JUMPDEST JUMPDEST DUP2 DUP2 LT ISZERO PUSH2 0x7DD JUMPI PUSH2 0x7D2 PUSH0 DUP3 PUSH2 0x7A7 JUMP JUMPDEST PUSH1 0x1 DUP2 ADD SWAP1 POP PUSH2 0x7C0 JUMP JUMPDEST POP POP JUMP JUMPDEST PUSH1 0x1F DUP3 GT ISZERO PUSH2 0x822 JUMPI PUSH2 0x7F3 DUP2 PUSH2 0x6CD JUMP JUMPDEST PUSH2 0x7FC DUP5 PUSH2 0x6DF JUMP JUMPDEST DUP2 ADD PUSH1 0x20 DUP6 LT ISZERO PUSH2 0x80B JUMPI DUP2 SWAP1 POP JUMPDEST PUSH2 0x81F PUSH2 0x817 DUP6 PUSH2 0x6DF JUMP JUMPDEST DUP4 ADD DUP3 PUSH2 0x7BF JUMP JUMPDEST POP POP JUMPDEST POP POP POP JUMP JUMPDEST PUSH0 DUP3 DUP3 SHR SWAP1 POP SWAP3 SWAP2 POP POP JUMP JUMPDEST PUSH0 PUSH2 0x842 PUSH0 NOT DUP5 PUSH1 0x8 MUL PUSH2 0x827 JUMP JUMPDEST NOT DUP1 DUP4 AND SWAP2 POP POP SWAP3 SWAP2 POP POP JUMP JUMPDEST PUSH0 PUSH2 0x85A DUP4 DUP4 PUSH2 0x833 JUMP JUMPDEST SWAP2 POP DUP3 PUSH1 0x2 MUL DUP3 OR SWAP1 POP SWAP3 SWAP2 POP POP JUMP JUMPDEST PUSH2 0x873 DUP3 PUSH2 0x582 JUMP JUMPDEST PUSH8 0xFFFFFFFFFFFFFFFF DUP2 GT ISZERO PUSH2 0x88C JUMPI PUSH2 0x88B PUSH2 0x3BD JUMP JUMPDEST JUMPDEST PUSH2 0x896 DUP3 SLOAD PUSH2 0x69D JUMP JUMPDEST PUSH2 0x8A1 DUP3 DUP3 DUP6 PUSH2 0x7E1 JUMP JUMPDEST PUSH0 PUSH1 0x20 SWAP1 POP PUSH1 0x1F DUP4 GT PUSH1 0x1 DUP2 EQ PUSH2 0x8D2 JUMPI PUSH0 DUP5 ISZERO PUSH2 0x8C0 JUMPI DUP3 DUP8 ADD MLOAD SWAP1 POP JUMPDEST PUSH2 0x8CA DUP6 DUP3 PUSH2 0x84F JUMP JUMPDEST DUP7 SSTORE POP PUSH2 0x931 JUMP JUMPDEST PUSH1 0x1F NOT DUP5 AND PUSH2 0x8E0 DUP7 PUSH2 0x6CD JUMP JUMPDEST PUSH0 JUMPDEST DUP3 DUP2 LT ISZERO PUSH2 0x907 JUMPI DUP5 DUP10 ADD MLOAD DUP3 SSTORE PUSH1 0x1 DUP3 ADD SWAP2 POP PUSH1 0x20 DUP6 ADD SWAP5 POP PUSH1 0x20 DUP2 ADD SWAP1 POP PUSH2 0x8E2 JUMP JUMPDEST DUP7 DUP4 LT ISZERO PUSH2 0x924 JUMPI DUP5 DUP10 ADD MLOAD PUSH2 0x920 PUSH1 0x1F DUP10 AND DUP3 PUSH2 0x833 JUMP JUMPDEST DUP4 SSTORE POP JUMPDEST PUSH1 0x1 PUSH1 0x2 DUP9 MUL ADD DUP9 SSTORE POP POP POP JUMPDEST POP POP POP POP POP POP JUMP JUMPDEST PUSH0 DUP2 SWAP1 POP SWAP3 SWAP2 POP POP JUMP JUMPDEST PUSH0 PUSH2 0x94D DUP3 PUSH2 0x582 JUMP JUMPDEST PUSH2 0x957 DUP2 DUP6 PUSH2 0x939 JUMP JUMPDEST SWAP4 POP PUSH2 0x967 DUP2 DUP6 PUSH1 0x20 DUP7 ADD PUSH2 0x59C JUMP JUMPDEST DUP1 DUP5 ADD SWAP2 POP POP SWAP3 SWAP2 POP POP JUMP JUMPDEST PUSH0 PUSH2 0x97E DUP3 DUP5 PUSH2 0x943 JUMP JUMPDEST SWAP2 POP DUP2 SWAP1 POP SWAP3 SWAP2 POP POP JUMP INVALID LOG2 PUSH5 0x6970667358 0x22 SLT KECCAK256 ADDMOD 0xDF 0xC4 0xA6 RETURNDATACOPY PUSH8 0x711619C0A0DA945 SWAP6 SIGNEXTEND RETURNDATACOPY SLOAD ISZERO PUSH2 0xF398 0x2F ADDMOD SWAP7 LOG0 CALLER 0xC7 PC 0xEE 0xBA PUSH9 0x64736F6C634300081A STOP CALLER LOG2 PUSH5 0x6970667358 0x22 SLT KECCAK256 LOG1 0xEE PUSH14 0xB366F680F9317F670E3CA87A64D9 ISZERO 0xBC SWAP1 0xB4 0xBA 0xD2 PC PUSH17 0x25FB739AF77D1964736F6C634300081A00 CALLER "
				},
				"gasEstimates": {
					"creation": {
						"codeDepositCost": "760600",
						"executionCost": "790",
						"totalCost": "761390"
					},
					"external": {
						"createSimpleStorage()": "infinite",
						"getFavoriteNumber(uint256)": "infinite",
						"simpleStorageArray(uint256)": "infinite",
						"storeFavoriteNumber(uint256,uint256)": "infinite"
					}
				},
				"methodIdentifiers": {
					"createSimpleStorage()": "40d66b3b",
					"getFavoriteNumber(uint256)": "8303b044",
					"simpleStorageArray(uint256)": "64591bf1",
					"storeFavoriteNumber(uint256,uint256)": "fc898d17"
				}
			},
			"storageLayout": {
				"storage": [
					{
						"astId": 106,
						"contract": "contracts/StorageFactory.sol:StorageFactory",
						"label": "simpleStorageArray",
						"offset": 0,
						"slot": "0",
						"type": "t_array(t_contract(SimpleStorage)99)dyn_storage"
					}
				],
				"types": {
					"t_array(t_contract(SimpleStorage)99)dyn_storage": {
						"base": "t_contract(SimpleStorage)99",
						"encoding": "dynamic_array",
						"label": "contract SimpleStorage[]",
						"numberOfBytes": "32"
					},
					"t_contract(SimpleStorage)99": {
						"encoding": "inplace",
						"label": "contract SimpleStorage",
						"numberOfBytes": "20"
					}
				}
			},
			"userdoc": {
				"kind": "user",
				"methods": {},
				"version": 1
			}
		}
	}
}